{
  "_format": "hh-sol-artifact-1",
  "contractName": "PNSGuardian",
  "sourceName": "contracts/PNSGuardian.sol",
  "abi": [
    {
      "anonymous": false,
      "inputs": [
        {
          "indexed": false,
          "internalType": "uint8",
          "name": "version",
          "type": "uint8"
        }
      ],
      "name": "Initialized",
      "type": "event"
    },
    {
      "anonymous": false,
      "inputs": [
        {
          "indexed": true,
          "internalType": "address",
          "name": "owner",
          "type": "address"
        },
        {
          "indexed": true,
          "internalType": "bytes32",
          "name": "phoneHash",
          "type": "bytes32"
        },
        {
          "indexed": false,
          "internalType": "uint256",
          "name": "verifiedAt",
          "type": "uint256"
        }
      ],
      "name": "PhoneVerified",
      "type": "event"
    },
    {
      "inputs": [
        {
          "internalType": "bytes32",
          "name": "phoneHash",
          "type": "bytes32"
        }
      ],
      "name": "getVerificationRecord",
      "outputs": [
        {
          "components": [
            {
              "internalType": "uint256",
              "name": "verifiedAt",
              "type": "uint256"
            },
            {
              "internalType": "bool",
              "name": "isVerified",
              "type": "bool"
            },
            {
              "internalType": "bool",
              "name": "exists",
              "type": "bool"
            },
            {
              "internalType": "address",
              "name": "owner",
              "type": "address"
            },
            {
              "internalType": "bytes32",
              "name": "phoneHash",
              "type": "bytes32"
            }
          ],
          "internalType": "struct IPNSSchema.VerificationRecord",
          "name": "",
          "type": "tuple"
        }
      ],
      "stateMutability": "view",
      "type": "function"
    },
    {
      "inputs": [
        {
          "internalType": "bytes32",
          "name": "phoneHash",
          "type": "bytes32"
        }
      ],
      "name": "getVerificationStatus",
      "outputs": [
        {
          "internalType": "bool",
          "name": "",
          "type": "bool"
        }
      ],
      "stateMutability": "view",
      "type": "function"
    },
    {
      "inputs": [],
      "name": "guardianVerifier",
      "outputs": [
        {
          "internalType": "address",
          "name": "",
          "type": "address"
        }
      ],
      "stateMutability": "view",
      "type": "function"
    },
    {
      "inputs": [
        {
          "internalType": "address",
          "name": "_guardianVerifier",
          "type": "address"
        }
      ],
      "name": "initialize",
      "outputs": [],
      "stateMutability": "nonpayable",
      "type": "function"
    },
    {
      "inputs": [],
      "name": "registryAddress",
      "outputs": [
        {
          "internalType": "address",
          "name": "",
          "type": "address"
        }
      ],
      "stateMutability": "view",
      "type": "function"
    },
    {
      "inputs": [],
      "name": "registryContract",
      "outputs": [
        {
          "internalType": "contract IPNSRegistry",
          "name": "",
          "type": "address"
        }
      ],
      "stateMutability": "view",
      "type": "function"
    },
    {
      "inputs": [
        {
          "internalType": "address",
          "name": "_guardianVerifier",
          "type": "address"
        }
      ],
      "name": "setGuardianVerifier",
      "outputs": [],
      "stateMutability": "nonpayable",
      "type": "function"
    },
    {
      "inputs": [
        {
          "internalType": "address",
          "name": "_registryAddress",
          "type": "address"
        }
      ],
      "name": "setPNSRegistry",
      "outputs": [],
      "stateMutability": "nonpayable",
      "type": "function"
    },
    {
      "inputs": [
        {
          "internalType": "bytes32",
          "name": "phoneHash",
          "type": "bytes32"
        },
        {
          "internalType": "bytes32",
          "name": "_hashedMessage",
          "type": "bytes32"
        },
        {
          "internalType": "bool",
          "name": "status",
          "type": "bool"
        },
        {
          "internalType": "bytes",
          "name": "_signature",
          "type": "bytes"
        }
      ],
      "name": "setVerificationStatus",
      "outputs": [],
      "stateMutability": "nonpayable",
      "type": "function"
    }
  ],
  "bytecode": "0x608060405234801561001057600080fd5b506118d1806100206000396000f3fe608060405234801561001057600080fd5b50600436106100935760003560e01c8063be09f19f11610066578063be09f19f14610134578063be2abc4814610150578063c256cdae1461016c578063c4d66de814610188578063ed9aab51146101a457610093565b806311502b641461009857806328c1f99b146100b65780636346000b146100d45780638108c04414610104575b600080fd5b6100a06101c2565b6040516100ad9190610ec3565b60405180910390f35b6100be6101e8565b6040516100cb9190610f3d565b60405180910390f35b6100ee60048036038101906100e99190610fa2565b61020e565b6040516100fb9190610fea565b60405180910390f35b61011e60048036038101906101199190610fa2565b6102de565b60405161012b91906110b3565b60405180910390f35b61014e600480360381019061014991906110fa565b6103b1565b005b61016a600480360381019061016591906110fa565b610485565b005b61018660048036038101906101819190611299565b6105bc565b005b6101a2600480360381019061019d91906110fa565b61085d565b005b6101ac6109d5565b6040516101b99190610ec3565b60405180910390f35b600260009054906101000a900473ffffffffffffffffffffffffffffffffffffffff1681565b600160009054906101000a900473ffffffffffffffffffffffffffffffffffffffff1681565b600080600360008481526020019081526020016000206040518060a0016040529081600082015481526020016001820160009054906101000a900460ff161515151581526020016001820160019054906101000a900460ff161515151581526020016001820160029054906101000a900473ffffffffffffffffffffffffffffffffffffffff1673ffffffffffffffffffffffffffffffffffffffff1673ffffffffffffffffffffffffffffffffffffffff16815260200160028201548152505090508060200151915050919050565b6102e6610e36565b6000600360008481526020019081526020016000206040518060a0016040529081600082015481526020016001820160009054906101000a900460ff161515151581526020016001820160019054906101000a900460ff161515151581526020016001820160029054906101000a900473ffffffffffffffffffffffffffffffffffffffff1673ffffffffffffffffffffffffffffffffffffffff1673ffffffffffffffffffffffffffffffffffffffff168152602001600282015481525050905080915050919050565b600260009054906101000a900473ffffffffffffffffffffffffffffffffffffffff1673ffffffffffffffffffffffffffffffffffffffff163373ffffffffffffffffffffffffffffffffffffffff1614610441576040517f08c379a000000000000000000000000000000000000000000000000000000000815260040161043890611379565b60405180910390fd5b80600260006101000a81548173ffffffffffffffffffffffffffffffffffffffff021916908373ffffffffffffffffffffffffffffffffffffffff16021790555050565b600260009054906101000a900473ffffffffffffffffffffffffffffffffffffffff1673ffffffffffffffffffffffffffffffffffffffff163373ffffffffffffffffffffffffffffffffffffffff1614610515576040517f08c379a000000000000000000000000000000000000000000000000000000000815260040161050c90611379565b60405180910390fd5b80600060026101000a81548173ffffffffffffffffffffffffffffffffffffffff021916908373ffffffffffffffffffffffffffffffffffffffff160217905550600060029054906101000a900473ffffffffffffffffffffffffffffffffffffffff16600160006101000a81548173ffffffffffffffffffffffffffffffffffffffff021916908373ffffffffffffffffffffffffffffffffffffffff16021790555050565b600060029054906101000a900473ffffffffffffffffffffffffffffffffffffffff1673ffffffffffffffffffffffffffffffffffffffff163373ffffffffffffffffffffffffffffffffffffffff161461064c576040517f08c379a00000000000000000000000000000000000000000000000000000000081526004016106439061140b565b60405180910390fd5b60006040518060400160405280601c81526020017f19457468657265756d205369676e6564204d6573736167653a0a33320000000081525090506000818560405160200161069b9291906114c6565b60405160208183030381529060405280519060200120905060006106bf82856109fb565b90506000600360008981526020019081526020016000206040518060a0016040529081600082015481526020016001820160009054906101000a900460ff161515151581526020016001820160019054906101000a900460ff161515151581526020016001820160029054906101000a900473ffffffffffffffffffffffffffffffffffffffff1673ffffffffffffffffffffffffffffffffffffffff1673ffffffffffffffffffffffffffffffffffffffff168152602001600282015481525050905080604001516107fa5781816060019073ffffffffffffffffffffffffffffffffffffffff16908173ffffffffffffffffffffffffffffffffffffffff168152505087816080018181525050428160000181815250506001816040019015159081151581525050858160200190151590811515815250505b6108048189610a22565b878273ffffffffffffffffffffffffffffffffffffffff167f33bc481696695ade64433419d4bd13ff5380a88afd151a5ac038c36b295534024260405161084b91906114fd565b60405180910390a35050505050505050565b60008060019054906101000a900460ff1615905080801561088e5750600160008054906101000a900460ff1660ff16105b806108bb575061089d30610adf565b1580156108ba5750600160008054906101000a900460ff1660ff16145b5b6108fa576040517f08c379a00000000000000000000000000000000000000000000000000000000081526004016108f19061158a565b60405180910390fd5b60016000806101000a81548160ff021916908360ff1602179055508015610937576001600060016101000a81548160ff0219169083151502179055505b81600260006101000a81548173ffffffffffffffffffffffffffffffffffffffff021916908373ffffffffffffffffffffffffffffffffffffffff16021790555080156109d15760008060016101000a81548160ff0219169083151502179055507f7f26b83ff96e1f2b6a682f133852f6798a09c465da95921460cefb384740249860016040516109c891906115f2565b60405180910390a15b5050565b600060029054906101000a900473ffffffffffffffffffffffffffffffffffffffff1681565b6000806000610a0a8585610b02565b91509150610a1781610b54565b819250505092915050565b600060036000838152602001908152602001600020905082606001518160010160026101000a81548173ffffffffffffffffffffffffffffffffffffffff021916908373ffffffffffffffffffffffffffffffffffffffff16021790555082604001518160010160016101000a81548160ff0219169083151502179055508260800151816002018190555082602001518160010160006101000a81548160ff02191690831515021790555082600001518160000181905550505050565b6000808273ffffffffffffffffffffffffffffffffffffffff163b119050919050565b600080604183511415610b445760008060006020860151925060408601519150606086015160001a9050610b3887828585610d29565b94509450505050610b4d565b60006002915091505b9250929050565b60006004811115610b6857610b6761160d565b5b816004811115610b7b57610b7a61160d565b5b1415610b8657610d26565b60016004811115610b9a57610b9961160d565b5b816004811115610bad57610bac61160d565b5b1415610bee576040517f08c379a0000000000000000000000000000000000000000000000000000000008152600401610be590611688565b60405180910390fd5b60026004811115610c0257610c0161160d565b5b816004811115610c1557610c1461160d565b5b1415610c56576040517f08c379a0000000000000000000000000000000000000000000000000000000008152600401610c4d906116f4565b60405180910390fd5b60036004811115610c6a57610c6961160d565b5b816004811115610c7d57610c7c61160d565b5b1415610cbe576040517f08c379a0000000000000000000000000000000000000000000000000000000008152600401610cb590611786565b60405180910390fd5b600480811115610cd157610cd061160d565b5b816004811115610ce457610ce361160d565b5b1415610d25576040517f08c379a0000000000000000000000000000000000000000000000000000000008152600401610d1c90611818565b60405180910390fd5b5b50565b6000807f7fffffffffffffffffffffffffffffff5d576e7357a4501ddfe92f46681b20a08360001c1115610d64576000600391509150610e2d565b601b8560ff1614158015610d7c5750601c8560ff1614155b15610d8e576000600491509150610e2d565b600060018787878760405160008152602001604052604051610db39493929190611856565b6020604051602081039080840390855afa158015610dd5573d6000803e3d6000fd5b505050602060405103519050600073ffffffffffffffffffffffffffffffffffffffff168173ffffffffffffffffffffffffffffffffffffffff161415610e2457600060019250925050610e2d565b80600092509250505b94509492505050565b6040518060a0016040528060008152602001600015158152602001600015158152602001600073ffffffffffffffffffffffffffffffffffffffff168152602001600080191681525090565b600073ffffffffffffffffffffffffffffffffffffffff82169050919050565b6000610ead82610e82565b9050919050565b610ebd81610ea2565b82525050565b6000602082019050610ed86000830184610eb4565b92915050565b6000819050919050565b6000610f03610efe610ef984610e82565b610ede565b610e82565b9050919050565b6000610f1582610ee8565b9050919050565b6000610f2782610f0a565b9050919050565b610f3781610f1c565b82525050565b6000602082019050610f526000830184610f2e565b92915050565b6000604051905090565b600080fd5b600080fd5b6000819050919050565b610f7f81610f6c565b8114610f8a57600080fd5b50565b600081359050610f9c81610f76565b92915050565b600060208284031215610fb857610fb7610f62565b5b6000610fc684828501610f8d565b91505092915050565b60008115159050919050565b610fe481610fcf565b82525050565b6000602082019050610fff6000830184610fdb565b92915050565b6000819050919050565b61101881611005565b82525050565b61102781610fcf565b82525050565b61103681610ea2565b82525050565b61104581610f6c565b82525050565b60a082016000820151611061600085018261100f565b506020820151611074602085018261101e565b506040820151611087604085018261101e565b50606082015161109a606085018261102d565b5060808201516110ad608085018261103c565b50505050565b600060a0820190506110c8600083018461104b565b92915050565b6110d781610ea2565b81146110e257600080fd5b50565b6000813590506110f4816110ce565b92915050565b6000602082840312156111105761110f610f62565b5b600061111e848285016110e5565b91505092915050565b61113081610fcf565b811461113b57600080fd5b50565b60008135905061114d81611127565b92915050565b600080fd5b600080fd5b6000601f19601f8301169050919050565b7f4e487b7100000000000000000000000000000000000000000000000000000000600052604160045260246000fd5b6111a68261115d565b810181811067ffffffffffffffff821117156111c5576111c461116e565b5b80604052505050565b60006111d8610f58565b90506111e4828261119d565b919050565b600067ffffffffffffffff8211156112045761120361116e565b5b61120d8261115d565b9050602081019050919050565b82818337600083830152505050565b600061123c611237846111e9565b6111ce565b90508281526020810184848401111561125857611257611158565b5b61126384828561121a565b509392505050565b600082601f8301126112805761127f611153565b5b8135611290848260208601611229565b91505092915050565b600080600080608085870312156112b3576112b2610f62565b5b60006112c187828801610f8d565b94505060206112d287828801610f8d565b93505060406112e38782880161113e565b925050606085013567ffffffffffffffff81111561130457611303610f67565b5b6113108782880161126b565b91505092959194509250565b600082825260208201905092915050565b7f4f6e6c7920477561726469616e20566572696669657200000000000000000000600082015250565b600061136360168361131c565b915061136e8261132d565b602082019050919050565b6000602082019050818103600083015261139281611356565b9050919050565b7f4f6e6c7920526567697374727920436f6e74726163743a206e6f7420616c6c6f60008201527f7765642000000000000000000000000000000000000000000000000000000000602082015250565b60006113f560248361131c565b915061140082611399565b604082019050919050565b60006020820190508181036000830152611424816113e8565b9050919050565b600081519050919050565b600081905092915050565b60005b8381101561145f578082015181840152602081019050611444565b8381111561146e576000848401525b50505050565b600061147f8261142b565b6114898185611436565b9350611499818560208601611441565b80840191505092915050565b6000819050919050565b6114c06114bb82610f6c565b6114a5565b82525050565b60006114d28285611474565b91506114de82846114af565b6020820191508190509392505050565b6114f781611005565b82525050565b600060208201905061151260008301846114ee565b92915050565b7f496e697469616c697a61626c653a20636f6e747261637420697320616c72656160008201527f647920696e697469616c697a6564000000000000000000000000000000000000602082015250565b6000611574602e8361131c565b915061157f82611518565b604082019050919050565b600060208201905081810360008301526115a381611567565b9050919050565b6000819050919050565b600060ff82169050919050565b60006115dc6115d76115d2846115aa565b610ede565b6115b4565b9050919050565b6115ec816115c1565b82525050565b600060208201905061160760008301846115e3565b92915050565b7f4e487b7100000000000000000000000000000000000000000000000000000000600052602160045260246000fd5b7f45434453413a20696e76616c6964207369676e61747572650000000000000000600082015250565b600061167260188361131c565b915061167d8261163c565b602082019050919050565b600060208201905081810360008301526116a181611665565b9050919050565b7f45434453413a20696e76616c6964207369676e6174757265206c656e67746800600082015250565b60006116de601f8361131c565b91506116e9826116a8565b602082019050919050565b6000602082019050818103600083015261170d816116d1565b9050919050565b7f45434453413a20696e76616c6964207369676e6174757265202773272076616c60008201527f7565000000000000000000000000000000000000000000000000000000000000602082015250565b600061177060228361131c565b915061177b82611714565b604082019050919050565b6000602082019050818103600083015261179f81611763565b9050919050565b7f45434453413a20696e76616c6964207369676e6174757265202776272076616c60008201527f7565000000000000000000000000000000000000000000000000000000000000602082015250565b600061180260228361131c565b915061180d826117a6565b604082019050919050565b60006020820190508181036000830152611831816117f5565b9050919050565b61184181610f6c565b82525050565b611850816115b4565b82525050565b600060808201905061186b6000830187611838565b6118786020830186611847565b6118856040830185611838565b6118926060830184611838565b9594505050505056fea264697066735822122049f1b99f19b5fff4e7f164d74b890a6ee15b7995f387a75926960c373ff7650864736f6c63430008090033",
  "linkReferences": {},
  "deployedLinkReferences": {}
}