{
  "_format": "hh-sol-artifact-1",
  "contractName": "PNSRegistry",
  "sourceName": "contracts/PNSRegistry.sol",
  "abi": [
    {
      "anonymous": false,
      "inputs": [
        {
          "indexed": true,
          "internalType": "address",
          "name": "updater",
          "type": "address"
        },
        {
          "indexed": false,
          "internalType": "uint256",
          "name": "expiryTime",
          "type": "uint256"
        }
      ],
      "name": "ExpiryTimeUpdated",
      "type": "event"
    },
    {
      "anonymous": false,
      "inputs": [
        {
          "indexed": true,
          "internalType": "address",
          "name": "updater",
          "type": "address"
        },
        {
          "indexed": false,
          "internalType": "uint256",
          "name": "gracePeriod",
          "type": "uint256"
        }
      ],
      "name": "GracePeriodUpdated",
      "type": "event"
    },
    {
      "anonymous": false,
      "inputs": [
        {
          "indexed": false,
          "internalType": "uint8",
          "name": "version",
          "type": "uint8"
        }
      ],
      "name": "Initialized",
      "type": "event"
    },
    {
      "anonymous": false,
      "inputs": [
        {
          "indexed": true,
          "internalType": "bytes32",
          "name": "phoneHash",
          "type": "bytes32"
        },
        {
          "indexed": true,
          "internalType": "address",
          "name": "wallet",
          "type": "address"
        }
      ],
      "name": "PhoneLinked",
      "type": "event"
    },
    {
      "anonymous": false,
      "inputs": [
        {
          "indexed": true,
          "internalType": "bytes32",
          "name": "phoneHash",
          "type": "bytes32"
        },
        {
          "indexed": false,
          "internalType": "bool",
          "name": "status",
          "type": "bool"
        }
      ],
      "name": "PhoneNumberVerified",
      "type": "event"
    },
    {
      "anonymous": false,
      "inputs": [
        {
          "indexed": true,
          "internalType": "bytes32",
          "name": "phoneHash",
          "type": "bytes32"
        },
        {
          "indexed": true,
          "internalType": "address",
          "name": "wallet",
          "type": "address"
        },
        {
          "indexed": true,
          "internalType": "address",
          "name": "owner",
          "type": "address"
        }
      ],
      "name": "PhoneRecordCreated",
      "type": "event"
    },
    {
      "anonymous": false,
      "inputs": [
        {
          "indexed": true,
          "internalType": "bytes32",
          "name": "phoneHash",
          "type": "bytes32"
        }
      ],
      "name": "PhoneRecordEnteredGracePeriod",
      "type": "event"
    },
    {
      "anonymous": false,
      "inputs": [
        {
          "indexed": true,
          "internalType": "bytes32",
          "name": "phoneHash",
          "type": "bytes32"
        }
      ],
      "name": "PhoneRecordExpired",
      "type": "event"
    },
    {
      "anonymous": false,
      "inputs": [
        {
          "indexed": true,
          "internalType": "bytes32",
          "name": "phoneHash",
          "type": "bytes32"
        }
      ],
      "name": "PhoneRecordRenewed",
      "type": "event"
    },
    {
      "anonymous": false,
      "inputs": [
        {
          "indexed": true,
          "internalType": "bytes32",
          "name": "role",
          "type": "bytes32"
        },
        {
          "indexed": true,
          "internalType": "bytes32",
          "name": "previousAdminRole",
          "type": "bytes32"
        },
        {
          "indexed": true,
          "internalType": "bytes32",
          "name": "newAdminRole",
          "type": "bytes32"
        }
      ],
      "name": "RoleAdminChanged",
      "type": "event"
    },
    {
      "anonymous": false,
      "inputs": [
        {
          "indexed": true,
          "internalType": "bytes32",
          "name": "role",
          "type": "bytes32"
        },
        {
          "indexed": true,
          "internalType": "address",
          "name": "account",
          "type": "address"
        },
        {
          "indexed": true,
          "internalType": "address",
          "name": "sender",
          "type": "address"
        }
      ],
      "name": "RoleGranted",
      "type": "event"
    },
    {
      "anonymous": false,
      "inputs": [
        {
          "indexed": true,
          "internalType": "bytes32",
          "name": "role",
          "type": "bytes32"
        },
        {
          "indexed": true,
          "internalType": "address",
          "name": "account",
          "type": "address"
        },
        {
          "indexed": true,
          "internalType": "address",
          "name": "sender",
          "type": "address"
        }
      ],
      "name": "RoleRevoked",
      "type": "event"
    },
    {
      "anonymous": false,
      "inputs": [
        {
          "indexed": true,
          "internalType": "bytes32",
          "name": "phoneHash",
          "type": "bytes32"
        },
        {
          "indexed": true,
          "internalType": "address",
          "name": "owner",
          "type": "address"
        }
      ],
      "name": "Transfer",
      "type": "event"
    },
    {
      "anonymous": false,
      "inputs": [
        {
          "indexed": true,
          "internalType": "address",
          "name": "_recipient",
          "type": "address"
        },
        {
          "indexed": false,
          "internalType": "uint256",
          "name": "amount",
          "type": "uint256"
        }
      ],
      "name": "WithdrawalSuccessful",
      "type": "event"
    },
    {
      "stateMutability": "payable",
      "type": "fallback"
    },
    {
      "inputs": [],
      "name": "DEFAULT_ADMIN_ROLE",
      "outputs": [
        {
          "internalType": "bytes32",
          "name": "",
          "type": "bytes32"
        }
      ],
      "stateMutability": "view",
      "type": "function"
    },
    {
      "inputs": [],
      "name": "MAINTAINER_ROLE",
      "outputs": [
        {
          "internalType": "bytes32",
          "name": "",
          "type": "bytes32"
        }
      ],
      "stateMutability": "view",
      "type": "function"
    },
    {
      "inputs": [],
      "name": "VERIFIER_ROLE",
      "outputs": [
        {
          "internalType": "bytes32",
          "name": "",
          "type": "bytes32"
        }
      ],
      "stateMutability": "view",
      "type": "function"
    },
    {
      "inputs": [
        {
          "internalType": "bytes32",
          "name": "phoneHash",
          "type": "bytes32"
        },
        {
          "internalType": "address",
          "name": "resolver",
          "type": "address"
        },
        {
          "internalType": "string",
          "name": "label",
          "type": "string"
        }
      ],
      "name": "claimExpiredPhoneRecord",
      "outputs": [],
      "stateMutability": "payable",
      "type": "function"
    },
    {
      "inputs": [
        {
          "internalType": "uint256",
          "name": "ethAmount",
          "type": "uint256"
        }
      ],
      "name": "convertETHToUSD",
      "outputs": [
        {
          "internalType": "uint256",
          "name": "",
          "type": "uint256"
        }
      ],
      "stateMutability": "view",
      "type": "function"
    },
    {
      "inputs": [
        {
          "internalType": "uint256",
          "name": "usdAmount",
          "type": "uint256"
        }
      ],
      "name": "convertUSDToETH",
      "outputs": [
        {
          "internalType": "uint256",
          "name": "",
          "type": "uint256"
        }
      ],
      "stateMutability": "view",
      "type": "function"
    },
    {
      "inputs": [],
      "name": "expiryTime",
      "outputs": [
        {
          "internalType": "uint256",
          "name": "",
          "type": "uint256"
        }
      ],
      "stateMutability": "view",
      "type": "function"
    },
    {
      "inputs": [],
      "name": "getEtherPriceInUSD",
      "outputs": [
        {
          "internalType": "uint256",
          "name": "",
          "type": "uint256"
        }
      ],
      "stateMutability": "view",
      "type": "function"
    },
    {
      "inputs": [],
      "name": "getExpiryTime",
      "outputs": [
        {
          "internalType": "uint256",
          "name": "",
          "type": "uint256"
        }
      ],
      "stateMutability": "view",
      "type": "function"
    },
    {
      "inputs": [],
      "name": "getGracePeriod",
      "outputs": [
        {
          "internalType": "uint256",
          "name": "",
          "type": "uint256"
        }
      ],
      "stateMutability": "view",
      "type": "function"
    },
    {
      "inputs": [
        {
          "internalType": "bytes32",
          "name": "phoneHash",
          "type": "bytes32"
        }
      ],
      "name": "getRecord",
      "outputs": [
        {
          "components": [
            {
              "internalType": "address",
              "name": "owner",
              "type": "address"
            },
            {
              "internalType": "bytes32",
              "name": "phoneHash",
              "type": "bytes32"
            },
            {
              "internalType": "bool",
              "name": "exists",
              "type": "bool"
            },
            {
              "internalType": "bool",
              "name": "isInGracePeriod",
              "type": "bool"
            },
            {
              "internalType": "bool",
              "name": "isExpired",
              "type": "bool"
            },
            {
              "internalType": "uint256",
              "name": "expirationTime",
              "type": "uint256"
            },
            {
              "internalType": "uint256",
              "name": "createdAt",
              "type": "uint256"
            }
          ],
          "internalType": "struct IPNSSchema.PhoneRecord",
          "name": "",
          "type": "tuple"
        }
      ],
      "stateMutability": "view",
      "type": "function"
    },
    {
      "inputs": [
        {
          "internalType": "bytes32",
          "name": "phoneHash",
          "type": "bytes32"
        }
      ],
      "name": "getRecordMapping",
      "outputs": [
        {
          "components": [
            {
              "internalType": "address",
              "name": "owner",
              "type": "address"
            },
            {
              "internalType": "bytes32",
              "name": "phoneHash",
              "type": "bytes32"
            },
            {
              "internalType": "bool",
              "name": "exists",
              "type": "bool"
            },
            {
              "internalType": "bool",
              "name": "isInGracePeriod",
              "type": "bool"
            },
            {
              "internalType": "bool",
              "name": "isExpired",
              "type": "bool"
            },
            {
              "internalType": "uint256",
              "name": "expirationTime",
              "type": "uint256"
            },
            {
              "internalType": "uint256",
              "name": "createdAt",
              "type": "uint256"
            }
          ],
          "internalType": "struct IPNSSchema.PhoneRecord",
          "name": "",
          "type": "tuple"
        }
      ],
      "stateMutability": "view",
      "type": "function"
    },
    {
      "inputs": [
        {
          "internalType": "bytes32",
          "name": "phoneHash",
          "type": "bytes32"
        }
      ],
      "name": "getResolver",
      "outputs": [
        {
          "components": [
            {
              "internalType": "address",
              "name": "wallet",
              "type": "address"
            },
            {
              "internalType": "uint256",
              "name": "createdAt",
              "type": "uint256"
            },
            {
              "internalType": "string",
              "name": "label",
              "type": "string"
            },
            {
              "internalType": "bool",
              "name": "exists",
              "type": "bool"
            }
          ],
          "internalType": "struct IPNSSchema.ResolverRecord[]",
          "name": "",
          "type": "tuple[]"
        }
      ],
      "stateMutability": "view",
      "type": "function"
    },
    {
      "inputs": [
        {
          "internalType": "bytes32",
          "name": "role",
          "type": "bytes32"
        }
      ],
      "name": "getRoleAdmin",
      "outputs": [
        {
          "internalType": "bytes32",
          "name": "",
          "type": "bytes32"
        }
      ],
      "stateMutability": "view",
      "type": "function"
    },
    {
      "inputs": [
        {
          "internalType": "bytes32",
          "name": "phoneHash",
          "type": "bytes32"
        }
      ],
      "name": "getVerificationRecord",
      "outputs": [
        {
          "components": [
            {
              "internalType": "uint256",
              "name": "verifiedAt",
              "type": "uint256"
            },
            {
              "internalType": "bool",
              "name": "isVerified",
              "type": "bool"
            },
            {
              "internalType": "bool",
              "name": "exists",
              "type": "bool"
            },
            {
              "internalType": "address",
              "name": "owner",
              "type": "address"
            },
            {
              "internalType": "bytes32",
              "name": "phoneHash",
              "type": "bytes32"
            }
          ],
          "internalType": "struct IPNSSchema.VerificationRecord",
          "name": "",
          "type": "tuple"
        }
      ],
      "stateMutability": "view",
      "type": "function"
    },
    {
      "inputs": [],
      "name": "getVersion",
      "outputs": [
        {
          "internalType": "uint32",
          "name": "",
          "type": "uint32"
        }
      ],
      "stateMutability": "view",
      "type": "function"
    },
    {
      "inputs": [],
      "name": "gracePeriod",
      "outputs": [
        {
          "internalType": "uint256",
          "name": "",
          "type": "uint256"
        }
      ],
      "stateMutability": "view",
      "type": "function"
    },
    {
      "inputs": [
        {
          "internalType": "bytes32",
          "name": "role",
          "type": "bytes32"
        },
        {
          "internalType": "address",
          "name": "account",
          "type": "address"
        }
      ],
      "name": "grantRole",
      "outputs": [],
      "stateMutability": "nonpayable",
      "type": "function"
    },
    {
      "inputs": [
        {
          "internalType": "bytes32",
          "name": "role",
          "type": "bytes32"
        },
        {
          "internalType": "address",
          "name": "account",
          "type": "address"
        }
      ],
      "name": "hasRole",
      "outputs": [
        {
          "internalType": "bool",
          "name": "",
          "type": "bool"
        }
      ],
      "stateMutability": "view",
      "type": "function"
    },
    {
      "inputs": [
        {
          "internalType": "address",
          "name": "_pnsGuardianContract",
          "type": "address"
        },
        {
          "internalType": "address",
          "name": "_priceAggregator",
          "type": "address"
        },
        {
          "internalType": "address",
          "name": "_verifier",
          "type": "address"
        }
      ],
      "name": "initialize",
      "outputs": [],
      "stateMutability": "nonpayable",
      "type": "function"
    },
    {
      "inputs": [
        {
          "internalType": "bytes32",
          "name": "phoneHash",
          "type": "bytes32"
        }
      ],
      "name": "isRecordVerified",
      "outputs": [
        {
          "internalType": "bool",
          "name": "",
          "type": "bool"
        }
      ],
      "stateMutability": "view",
      "type": "function"
    },
    {
      "inputs": [
        {
          "internalType": "bytes32",
          "name": "phoneHash",
          "type": "bytes32"
        },
        {
          "internalType": "address",
          "name": "resolver",
          "type": "address"
        },
        {
          "internalType": "string",
          "name": "label",
          "type": "string"
        }
      ],
      "name": "linkPhoneToWallet",
      "outputs": [],
      "stateMutability": "nonpayable",
      "type": "function"
    },
    {
      "inputs": [],
      "name": "pnsGuardianContract",
      "outputs": [
        {
          "internalType": "contract IPNSGuardian",
          "name": "",
          "type": "address"
        }
      ],
      "stateMutability": "view",
      "type": "function"
    },
    {
      "inputs": [],
      "name": "priceFeedContract",
      "outputs": [
        {
          "internalType": "contract AggregatorInterface",
          "name": "",
          "type": "address"
        }
      ],
      "stateMutability": "view",
      "type": "function"
    },
    {
      "inputs": [
        {
          "internalType": "bytes32",
          "name": "phoneHash",
          "type": "bytes32"
        }
      ],
      "name": "recordExists",
      "outputs": [
        {
          "internalType": "bool",
          "name": "",
          "type": "bool"
        }
      ],
      "stateMutability": "view",
      "type": "function"
    },
    {
      "inputs": [
        {
          "internalType": "bytes32",
          "name": "",
          "type": "bytes32"
        }
      ],
      "name": "records",
      "outputs": [
        {
          "internalType": "address",
          "name": "owner",
          "type": "address"
        },
        {
          "internalType": "bytes32",
          "name": "phoneHash",
          "type": "bytes32"
        },
        {
          "internalType": "bool",
          "name": "exists",
          "type": "bool"
        },
        {
          "internalType": "bool",
          "name": "isInGracePeriod",
          "type": "bool"
        },
        {
          "internalType": "bool",
          "name": "isExpired",
          "type": "bool"
        },
        {
          "internalType": "uint256",
          "name": "expirationTime",
          "type": "uint256"
        },
        {
          "internalType": "uint256",
          "name": "createdAt",
          "type": "uint256"
        }
      ],
      "stateMutability": "view",
      "type": "function"
    },
    {
      "inputs": [],
      "name": "registryCostInUSD",
      "outputs": [
        {
          "internalType": "uint256",
          "name": "",
          "type": "uint256"
        }
      ],
      "stateMutability": "view",
      "type": "function"
    },
    {
      "inputs": [],
      "name": "registryRenewCostInUSD",
      "outputs": [
        {
          "internalType": "uint256",
          "name": "",
          "type": "uint256"
        }
      ],
      "stateMutability": "view",
      "type": "function"
    },
    {
      "inputs": [
        {
          "internalType": "bytes32",
          "name": "phoneHash",
          "type": "bytes32"
        }
      ],
      "name": "renew",
      "outputs": [],
      "stateMutability": "payable",
      "type": "function"
    },
    {
      "inputs": [
        {
          "internalType": "bytes32",
          "name": "role",
          "type": "bytes32"
        },
        {
          "internalType": "address",
          "name": "account",
          "type": "address"
        }
      ],
      "name": "renounceRole",
      "outputs": [],
      "stateMutability": "nonpayable",
      "type": "function"
    },
    {
      "inputs": [
        {
          "internalType": "bytes32",
          "name": "",
          "type": "bytes32"
        },
        {
          "internalType": "uint256",
          "name": "",
          "type": "uint256"
        }
      ],
      "name": "resolverRecords",
      "outputs": [
        {
          "internalType": "address",
          "name": "wallet",
          "type": "address"
        },
        {
          "internalType": "uint256",
          "name": "createdAt",
          "type": "uint256"
        },
        {
          "internalType": "string",
          "name": "label",
          "type": "string"
        },
        {
          "internalType": "bool",
          "name": "exists",
          "type": "bool"
        }
      ],
      "stateMutability": "view",
      "type": "function"
    },
    {
      "inputs": [
        {
          "internalType": "bytes32",
          "name": "role",
          "type": "bytes32"
        },
        {
          "internalType": "address",
          "name": "account",
          "type": "address"
        }
      ],
      "name": "revokeRole",
      "outputs": [],
      "stateMutability": "nonpayable",
      "type": "function"
    },
    {
      "inputs": [
        {
          "internalType": "uint256",
          "name": "time",
          "type": "uint256"
        }
      ],
      "name": "setExpiryTime",
      "outputs": [],
      "stateMutability": "nonpayable",
      "type": "function"
    },
    {
      "inputs": [
        {
          "internalType": "uint256",
          "name": "time",
          "type": "uint256"
        }
      ],
      "name": "setGracePeriod",
      "outputs": [],
      "stateMutability": "nonpayable",
      "type": "function"
    },
    {
      "inputs": [
        {
          "internalType": "bytes32",
          "name": "phoneHash",
          "type": "bytes32"
        },
        {
          "internalType": "address",
          "name": "owner",
          "type": "address"
        }
      ],
      "name": "setOwner",
      "outputs": [],
      "stateMutability": "nonpayable",
      "type": "function"
    },
    {
      "inputs": [
        {
          "internalType": "bytes32",
          "name": "phoneHash",
          "type": "bytes32"
        },
        {
          "internalType": "address",
          "name": "resolver",
          "type": "address"
        },
        {
          "internalType": "string",
          "name": "label",
          "type": "string"
        }
      ],
      "name": "setPhoneRecord",
      "outputs": [],
      "stateMutability": "payable",
      "type": "function"
    },
    {
      "inputs": [
        {
          "components": [
            {
              "internalType": "address",
              "name": "owner",
              "type": "address"
            },
            {
              "internalType": "bytes32",
              "name": "phoneHash",
              "type": "bytes32"
            },
            {
              "internalType": "bool",
              "name": "exists",
              "type": "bool"
            },
            {
              "internalType": "bool",
              "name": "isInGracePeriod",
              "type": "bool"
            },
            {
              "internalType": "bool",
              "name": "isExpired",
              "type": "bool"
            },
            {
              "internalType": "uint256",
              "name": "expirationTime",
              "type": "uint256"
            },
            {
              "internalType": "uint256",
              "name": "createdAt",
              "type": "uint256"
            }
          ],
          "internalType": "struct IPNSSchema.PhoneRecord",
          "name": "recordData",
          "type": "tuple"
        },
        {
          "internalType": "bytes32",
          "name": "phoneHash",
          "type": "bytes32"
        }
      ],
      "name": "setPhoneRecordMapping",
      "outputs": [],
      "stateMutability": "nonpayable",
      "type": "function"
    },
    {
      "inputs": [
        {
          "internalType": "uint256",
          "name": "_registryCostInUSD",
          "type": "uint256"
        }
      ],
      "name": "setRegistryCost",
      "outputs": [],
      "stateMutability": "nonpayable",
      "type": "function"
    },
    {
      "inputs": [
        {
          "internalType": "uint256",
          "name": "_registryRenewCostInUSD",
          "type": "uint256"
        }
      ],
      "name": "setRegistryRenewCost",
      "outputs": [],
      "stateMutability": "nonpayable",
      "type": "function"
    },
    {
      "inputs": [
        {
          "internalType": "bytes4",
          "name": "interfaceId",
          "type": "bytes4"
        }
      ],
      "name": "supportsInterface",
      "outputs": [
        {
          "internalType": "bool",
          "name": "",
          "type": "bool"
        }
      ],
      "stateMutability": "view",
      "type": "function"
    },
    {
      "inputs": [
        {
          "internalType": "bytes32",
          "name": "phoneHash",
          "type": "bytes32"
        },
        {
          "internalType": "bytes32",
          "name": "hashedMessage",
          "type": "bytes32"
        },
        {
          "internalType": "bool",
          "name": "status",
          "type": "bool"
        },
        {
          "internalType": "bytes",
          "name": "signature",
          "type": "bytes"
        }
      ],
      "name": "verifyPhone",
      "outputs": [],
      "stateMutability": "nonpayable",
      "type": "function"
    },
    {
      "inputs": [
        {
          "internalType": "address",
          "name": "_recipient",
          "type": "address"
        },
        {
          "internalType": "uint256",
          "name": "amount",
          "type": "uint256"
        }
      ],
      "name": "withdraw",
      "outputs": [],
      "stateMutability": "nonpayable",
      "type": "function"
    },
    {
      "stateMutability": "payable",
      "type": "receive"
    }
  ],
  "bytecode": "0x608060405234801561001057600080fd5b50615b9f80620000216000396000f3fe6080604052600436106102555760003560e01c80638e32762d11610139578063d547741f116100b6578063f3fef3a31161007a578063f3fef3a314610917578063f56d7f1114610940578063f79fe53814610969578063f8742254146109a6578063fd3069d6146109d1578063fec3f459146109ed5761025c565b8063d547741f14610832578063dbd183881461085b578063e7705db614610886578063ea6ec3de146108b1578063f2f65960146108ee5761025c565b8063a217fddf116100fd578063a217fddf1461074a578063ab8a2df114610775578063c0c53b8b1461079e578063c4c83918146107c7578063d26f3887146108075761025c565b80638e32762d1461065e57806391d148541461067a57806393210be4146106b757806399bc0aea146106f4578063a06db7dc1461071f5761025c565b806330fc4cff116101d25780634c2bf9c2116101965780634c2bf9c21461053e5780635b0fc9c31461057b5780636474eeab146105a45780636543c744146105cd57806375e39fab146105f85780638108c044146106215761025c565b806330fc4cff1461044757806336568abe146104705780633be0dcb814610499578063488dbfad146104d65780634b6f6710146105135761025c565b8063213681cd11610219578063213681cd14610350578063248a9ca31461038d57806325cb5bc0146103ca5780632c1d0cfe146103f55780632f2ff15d1461041e5761025c565b806301e647251461025e57806301ffc9a7146102a15780630ae5e35a146102de5780630d8e6e2c14610309578063130b7498146103345761025c565b3661025c57005b005b34801561026a57600080fd5b5061028560048036038101906102809190613cca565b610a18565b6040516102989796959493929190613d7b565b60405180910390f35b3480156102ad57600080fd5b506102c860048036038101906102c39190613e42565b610aa1565b6040516102d59190613e6f565b60405180910390f35b3480156102ea57600080fd5b506102f3610b1b565b6040516103009190613e8a565b60405180910390f35b34801561031557600080fd5b5061031e610b21565b60405161032b9190613ec4565b60405180910390f35b61034e60048036038101906103499190614051565b610b2a565b005b34801561035c57600080fd5b5061037760048036038101906103729190613cca565b610b3b565b604051610384919061418a565b60405180910390f35b34801561039957600080fd5b506103b460048036038101906103af9190613cca565b610cf5565b6040516103c191906141a5565b60405180910390f35b3480156103d657600080fd5b506103df610d15565b6040516103ec9190613e8a565b60405180910390f35b34801561040157600080fd5b5061041c600480360381019061041791906141ec565b610d1f565b005b34801561042a57600080fd5b5061044560048036038101906104409190614219565b610da6565b005b34801561045357600080fd5b5061046e600480360381019061046991906141ec565b610dc7565b005b34801561047c57600080fd5b5061049760048036038101906104929190614219565b610e9c565b005b3480156104a557600080fd5b506104c060048036038101906104bb91906141ec565b610f1f565b6040516104cd9190613e8a565b60405180910390f35b3480156104e257600080fd5b506104fd60048036038101906104f89190613cca565b610f59565b60405161050a9190613e6f565b60405180910390f35b34801561051f57600080fd5b50610528611016565b60405161053591906142b8565b60405180910390f35b34801561054a57600080fd5b50610565600480360381019061056091906141ec565b61103c565b6040516105729190613e8a565b60405180910390f35b34801561058757600080fd5b506105a2600480360381019061059d9190614219565b611076565b005b3480156105b057600080fd5b506105cb60048036038101906105c69190614051565b6113e6565b005b3480156105d957600080fd5b506105e261162e565b6040516105ef9190613e8a565b60405180910390f35b34801561060457600080fd5b5061061f600480360381019061061a91906143b8565b6116ea565b005b34801561062d57600080fd5b5061064860048036038101906106439190613cca565b6116f8565b6040516106559190614461565b60405180910390f35b61067860048036038101906106739190613cca565b6117b8565b005b34801561068657600080fd5b506106a1600480360381019061069c9190614219565b611b3a565b6040516106ae9190613e6f565b60405180910390f35b3480156106c357600080fd5b506106de60048036038101906106d99190613cca565b611ba5565b6040516106eb919061418a565b60405180910390f35b34801561070057600080fd5b50610709611c97565b6040516107169190613e8a565b60405180910390f35b34801561072b57600080fd5b50610734611c9d565b6040516107419190613e8a565b60405180910390f35b34801561075657600080fd5b5061075f611ca3565b60405161076c91906141a5565b60405180910390f35b34801561078157600080fd5b5061079c600480360381019061079791906141ec565b611caa565b005b3480156107aa57600080fd5b506107c560048036038101906107c0919061447c565b611d31565b005b3480156107d357600080fd5b506107ee60048036038101906107e991906144cf565b611f40565b6040516107fe9493929190614597565b60405180910390f35b34801561081357600080fd5b5061081c612042565b6040516108299190614604565b60405180910390f35b34801561083e57600080fd5b5061085960048036038101906108549190614219565b612068565b005b34801561086757600080fd5b50610870612089565b60405161087d9190613e8a565b60405180910390f35b34801561089257600080fd5b5061089b612093565b6040516108a891906141a5565b60405180910390f35b3480156108bd57600080fd5b506108d860048036038101906108d39190613cca565b6120b7565b6040516108e5919061478e565b60405180910390f35b3480156108fa57600080fd5b50610915600480360381019061091091906141ec565b612236565b005b34801561092357600080fd5b5061093e600480360381019061093991906147b0565b61230b565b005b34801561094c57600080fd5b5061096760048036038101906109629190614891565b61253a565b005b34801561097557600080fd5b50610990600480360381019061098b9190613cca565b61260b565b60405161099d9190613e6f565b60405180910390f35b3480156109b257600080fd5b506109bb612638565b6040516109c891906141a5565b60405180910390f35b6109eb60048036038101906109e69190614051565b61265c565b005b3480156109f957600080fd5b50610a0261282f565b604051610a0f9190613e8a565b60405180910390f35b609e6020528060005260406000206000915090508060000160009054906101000a900473ffffffffffffffffffffffffffffffffffffffff16908060010154908060020160009054906101000a900460ff16908060020160019054906101000a900460ff16908060020160029054906101000a900460ff16908060030154908060040154905087565b60007f7965db0b000000000000000000000000000000000000000000000000000000007bffffffffffffffffffffffffffffffffffffffffffffffffffffffff1916827bffffffffffffffffffffffffffffffffffffffffffffffffffffffff19161480610b145750610b1382612835565b5b9050919050565b60995481565b60006001905090565b610b368333848461289f565b505050565b610b436139da565b6000609e60008481526020019081526020016000206040518060e00160405290816000820160009054906101000a900473ffffffffffffffffffffffffffffffffffffffff1673ffffffffffffffffffffffffffffffffffffffff1673ffffffffffffffffffffffffffffffffffffffff168152602001600182015481526020016002820160009054906101000a900460ff161515151581526020016002820160019054906101000a900460ff161515151581526020016002820160029054906101000a900460ff161515151581526020016003820154815260200160048201548152505090508060400151610c6e576040517f08c379a0000000000000000000000000000000000000000000000000000000008152600401610c6590614960565b60405180910390fd5b6000610c7984612fe4565b90506000610c8685613061565b90506040518060e00160405280846000015173ffffffffffffffffffffffffffffffffffffffff16815260200184602001518152602001846040015115158152602001831515815260200182151581526020018460a0015181526020018460c001518152509350505050919050565b600060656000838152602001908152602001600020600101549050919050565b6000609754905090565b610d497f339759585899103d2ace64958e37e18ccb0504652c81d4a1b8aa80fe2126ab9533611b3a565b80610d5d5750610d5c6000801b33611b3a565b5b610d9c576040517f08c379a0000000000000000000000000000000000000000000000000000000008152600401610d93906149cc565b60405180910390fd5b8060998190555050565b610daf82610cf5565b610db8816130eb565b610dc283836130ff565b505050565b610df17f339759585899103d2ace64958e37e18ccb0504652c81d4a1b8aa80fe2126ab9533611b3a565b80610e055750610e046000801b33611b3a565b5b610e44576040517f08c379a0000000000000000000000000000000000000000000000000000000008152600401610e3b906149cc565b60405180910390fd5b806097819055503373ffffffffffffffffffffffffffffffffffffffff167f9d85dc994c891eea203f3a6cc89736299931ac5325fd63b233339228970b99de82604051610e919190613e8a565b60405180910390a250565b610ea46131e0565b73ffffffffffffffffffffffffffffffffffffffff168173ffffffffffffffffffffffffffffffffffffffff1614610f11576040517f08c379a0000000000000000000000000000000000000000000000000000000008152600401610f0890614a5e565b60405180910390fd5b610f1b82826131e8565b5050565b600080610f2a61162e565b9050600081670de0b6b3a764000085610f439190614aad565b610f4d9190614b36565b90508092505050919050565b600080609c60009054906101000a900473ffffffffffffffffffffffffffffffffffffffff1673ffffffffffffffffffffffffffffffffffffffff16638108c044846040518263ffffffff1660e01b8152600401610fb791906141a5565b60a06040518083038186803b158015610fcf57600080fd5b505afa158015610fe3573d6000803e3d6000fd5b505050506040513d601f19601f820116820180604052508101906110079190614c47565b90508060200151915050919050565b609b60009054906101000a900473ffffffffffffffffffffffffffffffffffffffff1681565b60008061104761162e565b90506000670de0b6b3a764000082856110609190614aad565b61106a9190614b36565b90508092505050919050565b816000609e600083815260200190815260200160002060000160009054906101000a900473ffffffffffffffffffffffffffffffffffffffff1690503373ffffffffffffffffffffffffffffffffffffffff168173ffffffffffffffffffffffffffffffffffffffff1614611120576040517f08c379a000000000000000000000000000000000000000000000000000000000815260040161111790614cc0565b60405180910390fd5b83600061112c82612fe4565b90508015611197576000609e6000848152602001908152602001600020905060018160020160016101000a81548160ff021916908315150217905550827f03eb7537ed8ac874f6194d32434e70b659fe7409c8f693aa03e65cf50f2626e360405160405180910390a2505b8560006111a382613061565b90508015611264576000609e6000848152602001908152602001600020905060008160020160016101000a81548160ff02191690831515021790555060018160020160026101000a81548160ff021916908315150217905550827fb679d0c767903a8ba184d02a07326d998e08611b6dc812b61142ef5d9374a30960405160405180910390a26040517f08c379a000000000000000000000000000000000000000000000000000000000815260040161125b90614d52565b60405180910390fd5b600073ffffffffffffffffffffffffffffffffffffffff168773ffffffffffffffffffffffffffffffffffffffff1614156112d4576040517f08c379a00000000000000000000000000000000000000000000000000000000081526004016112cb90614de4565b60405180910390fd5b3073ffffffffffffffffffffffffffffffffffffffff168773ffffffffffffffffffffffffffffffffffffffff161415611343576040517f08c379a000000000000000000000000000000000000000000000000000000000815260040161133a90614e76565b60405180910390fd5b86609e60008a815260200190815260200160002060000160006101000a81548173ffffffffffffffffffffffffffffffffffffffff021916908373ffffffffffffffffffffffffffffffffffffffff1602179055508673ffffffffffffffffffffffffffffffffffffffff16887fd4735d920b0f87494915f556dd9b54c8f309026070caea5c737245152564d26660405160405180910390a35050505050505050565b826000609e600083815260200190815260200160002060000160009054906101000a900473ffffffffffffffffffffffffffffffffffffffff1690503373ffffffffffffffffffffffffffffffffffffffff168173ffffffffffffffffffffffffffffffffffffffff1614611490576040517f08c379a000000000000000000000000000000000000000000000000000000000815260040161148790614cc0565b60405180910390fd5b84600061149c82612fe4565b90508015611507576000609e6000848152602001908152602001600020905060018160020160016101000a81548160ff021916908315150217905550827f03eb7537ed8ac874f6194d32434e70b659fe7409c8f693aa03e65cf50f2626e360405160405180910390a2505b86600061151382613061565b905080156115d4576000609e6000848152602001908152602001600020905060008160020160016101000a81548160ff02191690831515021790555060018160020160026101000a81548160ff021916908315150217905550827fb679d0c767903a8ba184d02a07326d998e08611b6dc812b61142ef5d9374a30960405160405180910390a26040517f08c379a00000000000000000000000000000000000000000000000000000000081526004016115cb90614d52565b60405180910390fd5b6115df8989896132ca565b8773ffffffffffffffffffffffffffffffffffffffff16897f2fba9db5fd4b5b44ef46ec5170dba710636b886bf0dbf8c98ffb5e76e2e5516860405160405180910390a3505050505050505050565b600080609b60009054906101000a900473ffffffffffffffffffffffffffffffffffffffff1673ffffffffffffffffffffffffffffffffffffffff166350d25bcd6040518163ffffffff1660e01b815260040160206040518083038186803b15801561169957600080fd5b505afa1580156116ad573d6000803e3d6000fd5b505050506040513d601f19601f820116820180604052508101906116d19190614ecc565b90506402540be400816116e49190614ef9565b91505090565b6116f4828261358e565b5050565b611700613a36565b6000609c60009054906101000a900473ffffffffffffffffffffffffffffffffffffffff1673ffffffffffffffffffffffffffffffffffffffff16638108c044846040518263ffffffff1660e01b815260040161175d91906141a5565b60a06040518083038186803b15801561177557600080fd5b505afa158015611789573d6000803e3d6000fd5b505050506040513d601f19601f820116820180604052508101906117ad9190614c47565b905080915050919050565b806000609e600083815260200190815260200160002060000160009054906101000a900473ffffffffffffffffffffffffffffffffffffffff1690503373ffffffffffffffffffffffffffffffffffffffff168173ffffffffffffffffffffffffffffffffffffffff1614611862576040517f08c379a000000000000000000000000000000000000000000000000000000000815260040161185990614cc0565b60405180910390fd5b826000609e600083815260200190815260200160002060030154116118bc576040517f08c379a00000000000000000000000000000000000000000000000000000000081526004016118b39061505c565b60405180910390fd5b60006118c73461103c565b9050609a5481101561190e576040517f08c379a0000000000000000000000000000000000000000000000000000000008152600401611905906150c8565b60405180910390fd5b6000609e60008781526020019081526020016000209050600061193087612fe4565b9050600061193d88613061565b90508260020160009054906101000a900460ff16611990576040517f08c379a00000000000000000000000000000000000000000000000000000000081526004016119879061515a565b60405180910390fd5b81801561199b575080155b6119da576040517f08c379a00000000000000000000000000000000000000000000000000000000081526004016119d1906151ec565b60405180910390fd5b60008360020160016101000a81548160ff02191690831515021790555060008360020160026101000a81548160ff02191690831515021790555060975442611a22919061520c565b8360030181905550609a54841115611b03576000609a5485611a449190615262565b90506000611a5182610f1f565b905060003373ffffffffffffffffffffffffffffffffffffffff1682604051611a79906152c7565b60006040518083038185875af1925050503d8060008114611ab6576040519150601f19603f3d011682016040523d82523d6000602084013e611abb565b606091505b5050905080611aff576040517f08c379a0000000000000000000000000000000000000000000000000000000008152600401611af690615328565b60405180910390fd5b5050505b877ffc18d31e0e0e3243c37bd753fa25eaeea8fae3f39c29c8e2b70b249d81d96abd60405160405180910390a25050505050505050565b60006065600084815260200190815260200160002060000160008373ffffffffffffffffffffffffffffffffffffffff1673ffffffffffffffffffffffffffffffffffffffff16815260200190815260200160002060009054906101000a900460ff16905092915050565b611bad6139da565b609e60008381526020019081526020016000206040518060e00160405290816000820160009054906101000a900473ffffffffffffffffffffffffffffffffffffffff1673ffffffffffffffffffffffffffffffffffffffff1673ffffffffffffffffffffffffffffffffffffffff168152602001600182015481526020016002820160009054906101000a900460ff161515151581526020016002820160019054906101000a900460ff161515151581526020016002820160029054906101000a900460ff16151515158152602001600382015481526020016004820154815250509050919050565b60975481565b60985481565b6000801b81565b611cd47f339759585899103d2ace64958e37e18ccb0504652c81d4a1b8aa80fe2126ab9533611b3a565b80611ce85750611ce76000801b33611b3a565b5b611d27576040517f08c379a0000000000000000000000000000000000000000000000000000000008152600401611d1e906149cc565b60405180910390fd5b80609a8190555050565b60008060019054906101000a900460ff16159050808015611d625750600160008054906101000a900460ff1660ff16105b80611d8f5750611d7130613678565b158015611d8e5750600160008054906101000a900460ff1660ff16145b5b611dce576040517f08c379a0000000000000000000000000000000000000000000000000000000008152600401611dc5906153ba565b60405180910390fd5b60016000806101000a81548160ff021916908360ff1602179055508015611e0b576001600060016101000a81548160ff0219169083151502179055505b611e1361369b565b6301e13380609781905550624f1a0060988190555082609b60006101000a81548173ffffffffffffffffffffffffffffffffffffffff021916908373ffffffffffffffffffffffffffffffffffffffff16021790555083609c60006101000a81548173ffffffffffffffffffffffffffffffffffffffff021916908373ffffffffffffffffffffffffffffffffffffffff160217905550611eb76000801b336130ff565b611ee17f0ce23c3e399818cfee81a7ab0880f714e53d7672b08df0fa62f2843416e1ea09836130ff565b8015611f3a5760008060016101000a81548160ff0219169083151502179055507f7f26b83ff96e1f2b6a682f133852f6798a09c465da95921460cefb38474024986001604051611f319190615422565b60405180910390a15b50505050565b609f6020528160005260406000208181548110611f5c57600080fd5b9060005260206000209060040201600091509150508060000160009054906101000a900473ffffffffffffffffffffffffffffffffffffffff1690806001015490806002018054611fac9061546c565b80601f0160208091040260200160405190810160405280929190818152602001828054611fd89061546c565b80156120255780601f10611ffa57610100808354040283529160200191612025565b820191906000526020600020905b81548152906001019060200180831161200857829003601f168201915b5050505050908060030160009054906101000a900460ff16905084565b609c60009054906101000a900473ffffffffffffffffffffffffffffffffffffffff1681565b61207182610cf5565b61207a816130eb565b61208483836131e8565b505050565b6000609854905090565b7f0ce23c3e399818cfee81a7ab0880f714e53d7672b08df0fa62f2843416e1ea0981565b6060609f6000838152602001908152602001600020805480602002602001604051908101604052809291908181526020016000905b8282101561222b57838290600052602060002090600402016040518060800160405290816000820160009054906101000a900473ffffffffffffffffffffffffffffffffffffffff1673ffffffffffffffffffffffffffffffffffffffff1673ffffffffffffffffffffffffffffffffffffffff1681526020016001820154815260200160028201805461217f9061546c565b80601f01602080910402602001604051908101604052809291908181526020018280546121ab9061546c565b80156121f85780601f106121cd576101008083540402835291602001916121f8565b820191906000526020600020905b8154815290600101906020018083116121db57829003601f168201915b505050505081526020016003820160009054906101000a900460ff161515151581525050815260200190600101906120ec565b505050509050919050565b6122607f339759585899103d2ace64958e37e18ccb0504652c81d4a1b8aa80fe2126ab9533611b3a565b8061227457506122736000801b33611b3a565b5b6122b3576040517f08c379a00000000000000000000000000000000000000000000000000000000081526004016122aa906149cc565b60405180910390fd5b806098819055503373ffffffffffffffffffffffffffffffffffffffff167f2f09768ccdcd5c73d8da21f3662ec67c7a580278f579e047e118a9ef5865e50d826040516123009190613e8a565b60405180910390a250565b6123357f339759585899103d2ace64958e37e18ccb0504652c81d4a1b8aa80fe2126ab9533611b3a565b8061234957506123486000801b33611b3a565b5b612388576040517f08c379a000000000000000000000000000000000000000000000000000000000815260040161237f906149cc565b60405180910390fd5b600073ffffffffffffffffffffffffffffffffffffffff168273ffffffffffffffffffffffffffffffffffffffff1614156123f8576040517f08c379a00000000000000000000000000000000000000000000000000000000081526004016123ef90615510565b60405180910390fd5b6000811161243b576040517f08c379a00000000000000000000000000000000000000000000000000000000081526004016124329061557c565b60405180910390fd5b60008273ffffffffffffffffffffffffffffffffffffffff1682604051612461906152c7565b60006040518083038185875af1925050503d806000811461249e576040519150601f19603f3d011682016040523d82523d6000602084013e6124a3565b606091505b50509050806124e7576040517f08c379a00000000000000000000000000000000000000000000000000000000081526004016124de90615328565b60405180910390fd5b8273ffffffffffffffffffffffffffffffffffffffff167ff4f855c53853d0277a9ff688aadbfe4cb795ca1d5af41704b62cb539f89939ec8360405161252d9190613e8a565b60405180910390a2505050565b609c60009054906101000a900473ffffffffffffffffffffffffffffffffffffffff1673ffffffffffffffffffffffffffffffffffffffff1663c256cdae858585856040518563ffffffff1660e01b815260040161259b94939291906155f1565b600060405180830381600087803b1580156125b557600080fd5b505af11580156125c9573d6000803e3d6000fd5b50505050837faa50ef67735e4ca4cb60e096249d4aa16358cd00b9767cc0985da8b72565c73c836040516125fd9190613e6f565b60405180910390a250505050565b6000609e600083815260200190815260200160002060020160009054906101000a900460ff169050919050565b7f339759585899103d2ace64958e37e18ccb0504652c81d4a1b8aa80fe2126ab9581565b826000609e600083815260200190815260200160002060030154116126b6576040517f08c379a00000000000000000000000000000000000000000000000000000000081526004016126ad9061505c565b60405180910390fd5b6000609e6000868152602001908152602001600020905060006126d886613061565b90508160020160009054906101000a900460ff1661272b576040517f08c379a0000000000000000000000000000000000000000000000000000000008152600401612722906156af565b60405180910390fd5b8061276b576040517f08c379a000000000000000000000000000000000000000000000000000000000815260040161276290615741565b60405180910390fd5b609e6000878152602001908152602001600020600080820160006101000a81549073ffffffffffffffffffffffffffffffffffffffff021916905560018201600090556002820160006101000a81549060ff02191690556002820160016101000a81549060ff02191690556002820160026101000a81549060ff0219169055600382016000905560048201600090555050609f6000878152602001908152602001600020600061281b9190613a82565b6128278633878761289f565b505050505050565b609a5481565b60007f01ffc9a7000000000000000000000000000000000000000000000000000000007bffffffffffffffffffffffffffffffffffffffffffffffffffffffff1916827bffffffffffffffffffffffffffffffffffffffffffffffffffffffff1916149050919050565b836000609c60009054906101000a900473ffffffffffffffffffffffffffffffffffffffff1673ffffffffffffffffffffffffffffffffffffffff16638108c044836040518263ffffffff1660e01b81526004016128fd91906141a5565b60a06040518083038186803b15801561291557600080fd5b505afa158015612929573d6000803e3d6000fd5b505050506040513d601f19601f8201168201806040525081019061294d9190614c47565b90508060200151612993576040517f08c379a000000000000000000000000000000000000000000000000000000000815260040161298a906157ad565b60405180910390fd5b856000609c60009054906101000a900473ffffffffffffffffffffffffffffffffffffffff1673ffffffffffffffffffffffffffffffffffffffff16638108c044836040518263ffffffff1660e01b81526004016129f191906141a5565b60a06040518083038186803b158015612a0957600080fd5b505afa158015612a1d573d6000803e3d6000fd5b505050506040513d601f19601f82011682018060405250810190612a419190614c47565b90503373ffffffffffffffffffffffffffffffffffffffff16816060015173ffffffffffffffffffffffffffffffffffffffff1614612ab5576040517f08c379a0000000000000000000000000000000000000000000000000000000008152600401612aac90615819565b60405180910390fd5b6000612ac03461103c565b9050609954811015612b07576040517f08c379a0000000000000000000000000000000000000000000000000000000008152600401612afe906150c8565b60405180910390fd5b6000609e60008b815260200190815260200160002090506000609d60008c815260200190815260200160002090508088604051612b449190615875565b908152602001604051809103902060030160009054906101000a900460ff1615612ba3576040517f08c379a0000000000000000000000000000000000000000000000000000000008152600401612b9a906158fe565b60405180910390fd5b8088604051612bb29190615875565b908152602001604051809103902060030160009054906101000a900460ff16612de157878189604051612be59190615875565b90815260200160405180910390206002019080519060200190612c09929190613aa6565b50428189604051612c1a9190615875565b908152602001604051809103902060010181905550888189604051612c3f9190615875565b908152602001604051809103902060000160006101000a81548173ffffffffffffffffffffffffffffffffffffffff021916908373ffffffffffffffffffffffffffffffffffffffff16021790555060018189604051612c9f9190615875565b908152602001604051809103902060030160006101000a81548160ff021916908315150217905550609f60008c81526020019081526020016000208189604051612ce99190615875565b908152602001604051809103902090806001815401808255809150506001900390600052602060002090600402016000909190919091506000820160009054906101000a900473ffffffffffffffffffffffffffffffffffffffff168160000160006101000a81548173ffffffffffffffffffffffffffffffffffffffff021916908373ffffffffffffffffffffffffffffffffffffffff160217905550600182015481600101556002820181600201908054612da59061546c565b612db0929190613b2c565b506003820160009054906101000a900460ff168160030160006101000a81548160ff02191690831515021790555050505b8a8260010181905550898260000160006101000a81548173ffffffffffffffffffffffffffffffffffffffff021916908373ffffffffffffffffffffffffffffffffffffffff16021790555042826004018190555060018260020160006101000a81548160ff02191690831515021790555060008260020160016101000a81548160ff02191690831515021790555060008260020160026101000a81548160ff02191690831515021790555060975442612e9b919061520c565b8260030181905550609954831115612f7c57600060995484612ebd9190615262565b90506000612eca82610f1f565b905060003373ffffffffffffffffffffffffffffffffffffffff1682604051612ef2906152c7565b60006040518083038185875af1925050503d8060008114612f2f576040519150601f19603f3d011682016040523d82523d6000602084013e612f34565b606091505b5050905080612f78576040517f08c379a0000000000000000000000000000000000000000000000000000000008152600401612f6f90615328565b60405180910390fd5b5050505b8973ffffffffffffffffffffffffffffffffffffffff168973ffffffffffffffffffffffffffffffffffffffff168c7f09e63897cecdb290ea9107823707eaff21c470ccde4e25697135681b86873bc560405160405180910390a45050505050505050505050565b6000816000609e60008381526020019081526020016000206003015411613040576040517f08c379a00000000000000000000000000000000000000000000000000000000081526004016130379061505c565b60405180910390fd5b609e6000848152602001908152602001600020600301544211915050919050565b6000816000609e600083815260200190815260200160002060030154116130bd576040517f08c379a00000000000000000000000000000000000000000000000000000000081526004016130b49061505c565b60405180910390fd5b609854609e6000858152602001908152602001600020600301546130e1919061520c565b4211915050919050565b6130fc816130f76131e0565b6136ec565b50565b6131098282611b3a565b6131dc5760016065600084815260200190815260200160002060000160008373ffffffffffffffffffffffffffffffffffffffff1673ffffffffffffffffffffffffffffffffffffffff16815260200190815260200160002060006101000a81548160ff0219169083151502179055506131816131e0565b73ffffffffffffffffffffffffffffffffffffffff168173ffffffffffffffffffffffffffffffffffffffff16837f2f8788117e7eff1d82e926ec794901d17c78024a50270940304540a733656f0d60405160405180910390a45b5050565b600033905090565b6131f28282611b3a565b156132c65760006065600084815260200190815260200160002060000160008373ffffffffffffffffffffffffffffffffffffffff1673ffffffffffffffffffffffffffffffffffffffff16815260200190815260200160002060006101000a81548160ff02191690831515021790555061326b6131e0565b73ffffffffffffffffffffffffffffffffffffffff168173ffffffffffffffffffffffffffffffffffffffff16837ff6391f5c32d9c69d2a47ea670b442974b53935d1edc7fd64eb21e047a839171b60405160405180910390a45b5050565b6000609d600085815260200190815260200160002090506000609e600086815260200190815260200160002090508060020160009054906101000a900460ff16613349576040517f08c379a000000000000000000000000000000000000000000000000000000000815260040161334090614960565b60405180910390fd5b81836040516133589190615875565b908152602001604051809103902060030160009054906101000a900460ff166135875782828460405161338b9190615875565b908152602001604051809103902060020190805190602001906133af929190613aa6565b504282846040516133c09190615875565b9081526020016040518091039020600101819055508382846040516133e59190615875565b908152602001604051809103902060000160006101000a81548173ffffffffffffffffffffffffffffffffffffffff021916908373ffffffffffffffffffffffffffffffffffffffff160217905550600182846040516134459190615875565b908152602001604051809103902060030160006101000a81548160ff021916908315150217905550609f6000868152602001908152602001600020828460405161348f9190615875565b908152602001604051809103902090806001815401808255809150506001900390600052602060002090600402016000909190919091506000820160009054906101000a900473ffffffffffffffffffffffffffffffffffffffff168160000160006101000a81548173ffffffffffffffffffffffffffffffffffffffff021916908373ffffffffffffffffffffffffffffffffffffffff16021790555060018201548160010155600282018160020190805461354b9061546c565b613556929190613b2c565b506003820160009054906101000a900460ff168160030160006101000a81548160ff02191690831515021790555050505b5050505050565b6000609e600083815260200190815260200160002090508260c00151816004018190555082600001518160000160006101000a81548173ffffffffffffffffffffffffffffffffffffffff021916908373ffffffffffffffffffffffffffffffffffffffff16021790555082604001518160020160006101000a81548160ff0219169083151502179055508260200151816001018190555082606001518160020160016101000a81548160ff02191690831515021790555082608001518160020160026101000a81548160ff0219169083151502179055508260a001518160030181905550505050565b6000808273ffffffffffffffffffffffffffffffffffffffff163b119050919050565b600060019054906101000a900460ff166136ea576040517f08c379a00000000000000000000000000000000000000000000000000000000081526004016136e190615990565b60405180910390fd5b565b6136f68282611b3a565b61376d5761370381613771565b6137118360001c602061379e565b604051602001613722929190615a48565b6040516020818303038152906040526040517f08c379a00000000000000000000000000000000000000000000000000000000081526004016137649190615a82565b60405180910390fd5b5050565b60606137978273ffffffffffffffffffffffffffffffffffffffff16601460ff1661379e565b9050919050565b6060600060028360026137b19190614aad565b6137bb919061520c565b67ffffffffffffffff8111156137d4576137d3613f26565b5b6040519080825280601f01601f1916602001820160405280156138065781602001600182028036833780820191505090505b5090507f30000000000000000000000000000000000000000000000000000000000000008160008151811061383e5761383d615aa4565b5b60200101907effffffffffffffffffffffffffffffffffffffffffffffffffffffffffffff1916908160001a9053507f7800000000000000000000000000000000000000000000000000000000000000816001815181106138a2576138a1615aa4565b5b60200101907effffffffffffffffffffffffffffffffffffffffffffffffffffffffffffff1916908160001a905350600060018460026138e29190614aad565b6138ec919061520c565b90505b600181111561398c577f3031323334353637383961626364656600000000000000000000000000000000600f86166010811061392e5761392d615aa4565b5b1a60f81b82828151811061394557613944615aa4565b5b60200101907effffffffffffffffffffffffffffffffffffffffffffffffffffffffffffff1916908160001a905350600485901c94508061398590615ad3565b90506138ef565b50600084146139d0576040517f08c379a00000000000000000000000000000000000000000000000000000000081526004016139c790615b49565b60405180910390fd5b8091505092915050565b6040518060e00160405280600073ffffffffffffffffffffffffffffffffffffffff1681526020016000801916815260200160001515815260200160001515815260200160001515815260200160008152602001600081525090565b6040518060a0016040528060008152602001600015158152602001600015158152602001600073ffffffffffffffffffffffffffffffffffffffff168152602001600080191681525090565b5080546000825560040290600052602060002090810190613aa39190613bb9565b50565b828054613ab29061546c565b90600052602060002090601f016020900481019282613ad45760008555613b1b565b82601f10613aed57805160ff1916838001178555613b1b565b82800160010185558215613b1b579182015b82811115613b1a578251825591602001919060010190613aff565b5b509050613b289190613c23565b5090565b828054613b389061546c565b90600052602060002090601f016020900481019282613b5a5760008555613ba8565b82601f10613b6b5780548555613ba8565b82800160010185558215613ba857600052602060002091601f016020900482015b82811115613ba7578254825591600101919060010190613b8c565b5b509050613bb59190613c23565b5090565b5b80821115613c1f57600080820160006101000a81549073ffffffffffffffffffffffffffffffffffffffff02191690556001820160009055600282016000613c029190613c40565b6003820160006101000a81549060ff021916905550600401613bba565b5090565b5b80821115613c3c576000816000905550600101613c24565b5090565b508054613c4c9061546c565b6000825580601f10613c5e5750613c7d565b601f016020900490600052602060002090810190613c7c9190613c23565b5b50565b6000604051905090565b600080fd5b600080fd5b6000819050919050565b613ca781613c94565b8114613cb257600080fd5b50565b600081359050613cc481613c9e565b92915050565b600060208284031215613ce057613cdf613c8a565b5b6000613cee84828501613cb5565b91505092915050565b600073ffffffffffffffffffffffffffffffffffffffff82169050919050565b6000613d2282613cf7565b9050919050565b613d3281613d17565b82525050565b613d4181613c94565b82525050565b60008115159050919050565b613d5c81613d47565b82525050565b6000819050919050565b613d7581613d62565b82525050565b600060e082019050613d90600083018a613d29565b613d9d6020830189613d38565b613daa6040830188613d53565b613db76060830187613d53565b613dc46080830186613d53565b613dd160a0830185613d6c565b613dde60c0830184613d6c565b98975050505050505050565b60007fffffffff0000000000000000000000000000000000000000000000000000000082169050919050565b613e1f81613dea565b8114613e2a57600080fd5b50565b600081359050613e3c81613e16565b92915050565b600060208284031215613e5857613e57613c8a565b5b6000613e6684828501613e2d565b91505092915050565b6000602082019050613e846000830184613d53565b92915050565b6000602082019050613e9f6000830184613d6c565b92915050565b600063ffffffff82169050919050565b613ebe81613ea5565b82525050565b6000602082019050613ed96000830184613eb5565b92915050565b613ee881613d17565b8114613ef357600080fd5b50565b600081359050613f0581613edf565b92915050565b600080fd5b600080fd5b6000601f19601f8301169050919050565b7f4e487b7100000000000000000000000000000000000000000000000000000000600052604160045260246000fd5b613f5e82613f15565b810181811067ffffffffffffffff82111715613f7d57613f7c613f26565b5b80604052505050565b6000613f90613c80565b9050613f9c8282613f55565b919050565b600067ffffffffffffffff821115613fbc57613fbb613f26565b5b613fc582613f15565b9050602081019050919050565b82818337600083830152505050565b6000613ff4613fef84613fa1565b613f86565b9050828152602081018484840111156140105761400f613f10565b5b61401b848285613fd2565b509392505050565b600082601f83011261403857614037613f0b565b5b8135614048848260208601613fe1565b91505092915050565b60008060006060848603121561406a57614069613c8a565b5b600061407886828701613cb5565b935050602061408986828701613ef6565b925050604084013567ffffffffffffffff8111156140aa576140a9613c8f565b5b6140b686828701614023565b9150509250925092565b6140c981613d17565b82525050565b6140d881613c94565b82525050565b6140e781613d47565b82525050565b6140f681613d62565b82525050565b60e08201600082015161411260008501826140c0565b50602082015161412560208501826140cf565b50604082015161413860408501826140de565b50606082015161414b60608501826140de565b50608082015161415e60808501826140de565b5060a082015161417160a08501826140ed565b5060c082015161418460c08501826140ed565b50505050565b600060e08201905061419f60008301846140fc565b92915050565b60006020820190506141ba6000830184613d38565b92915050565b6141c981613d62565b81146141d457600080fd5b50565b6000813590506141e6816141c0565b92915050565b60006020828403121561420257614201613c8a565b5b6000614210848285016141d7565b91505092915050565b600080604083850312156142305761422f613c8a565b5b600061423e85828601613cb5565b925050602061424f85828601613ef6565b9150509250929050565b6000819050919050565b600061427e61427961427484613cf7565b614259565b613cf7565b9050919050565b600061429082614263565b9050919050565b60006142a282614285565b9050919050565b6142b281614297565b82525050565b60006020820190506142cd60008301846142a9565b92915050565b600080fd5b6142e181613d47565b81146142ec57600080fd5b50565b6000813590506142fe816142d8565b92915050565b600060e0828403121561431a576143196142d3565b5b61432460e0613f86565b9050600061433484828501613ef6565b600083015250602061434884828501613cb5565b602083015250604061435c848285016142ef565b6040830152506060614370848285016142ef565b6060830152506080614384848285016142ef565b60808301525060a0614398848285016141d7565b60a08301525060c06143ac848285016141d7565b60c08301525092915050565b60008061010083850312156143d0576143cf613c8a565b5b60006143de85828601614304565b92505060e06143ef85828601613cb5565b9150509250929050565b60a08201600082015161440f60008501826140ed565b50602082015161442260208501826140de565b50604082015161443560408501826140de565b50606082015161444860608501826140c0565b50608082015161445b60808501826140cf565b50505050565b600060a08201905061447660008301846143f9565b92915050565b60008060006060848603121561449557614494613c8a565b5b60006144a386828701613ef6565b93505060206144b486828701613ef6565b92505060406144c586828701613ef6565b9150509250925092565b600080604083850312156144e6576144e5613c8a565b5b60006144f485828601613cb5565b9250506020614505858286016141d7565b9150509250929050565b600081519050919050565b600082825260208201905092915050565b60005b8381101561454957808201518184015260208101905061452e565b83811115614558576000848401525b50505050565b60006145698261450f565b614573818561451a565b935061458381856020860161452b565b61458c81613f15565b840191505092915050565b60006080820190506145ac6000830187613d29565b6145b96020830186613d6c565b81810360408301526145cb818561455e565b90506145da6060830184613d53565b95945050505050565b60006145ee82614285565b9050919050565b6145fe816145e3565b82525050565b600060208201905061461960008301846145f5565b92915050565b600081519050919050565b600082825260208201905092915050565b6000819050602082019050919050565b600082825260208201905092915050565b60006146678261450f565b614671818561464b565b935061468181856020860161452b565b61468a81613f15565b840191505092915050565b60006080830160008301516146ad60008601826140c0565b5060208301516146c060208601826140ed565b50604083015184820360408601526146d8828261465c565b91505060608301516146ed60608601826140de565b508091505092915050565b60006147048383614695565b905092915050565b6000602082019050919050565b60006147248261461f565b61472e818561462a565b9350836020820285016147408561463b565b8060005b8581101561477c578484038952815161475d85826146f8565b94506147688361470c565b925060208a01995050600181019050614744565b50829750879550505050505092915050565b600060208201905081810360008301526147a88184614719565b905092915050565b600080604083850312156147c7576147c6613c8a565b5b60006147d585828601613ef6565b92505060206147e6858286016141d7565b9150509250929050565b600067ffffffffffffffff82111561480b5761480a613f26565b5b61481482613f15565b9050602081019050919050565b600061483461482f846147f0565b613f86565b9050828152602081018484840111156148505761484f613f10565b5b61485b848285613fd2565b509392505050565b600082601f83011261487857614877613f0b565b5b8135614888848260208601614821565b91505092915050565b600080600080608085870312156148ab576148aa613c8a565b5b60006148b987828801613cb5565b94505060206148ca87828801613cb5565b93505060406148db878288016142ef565b925050606085013567ffffffffffffffff8111156148fc576148fb613c8f565b5b61490887828801614863565b91505092959194509250565b7f70686f6e65207265636f7264206e6f7420666f756e6400000000000000000000600082015250565b600061494a60168361451a565b915061495582614914565b602082019050919050565b600060208201905081810360008301526149798161493d565b9050919050565b7f6e6f7420616c6c6f77656420746f20657865637574652066756e6374696f6e00600082015250565b60006149b6601f8361451a565b91506149c182614980565b602082019050919050565b600060208201905081810360008301526149e5816149a9565b9050919050565b7f416363657373436f6e74726f6c3a2063616e206f6e6c792072656e6f756e636560008201527f20726f6c657320666f722073656c660000000000000000000000000000000000602082015250565b6000614a48602f8361451a565b9150614a53826149ec565b604082019050919050565b60006020820190508181036000830152614a7781614a3b565b9050919050565b7f4e487b7100000000000000000000000000000000000000000000000000000000600052601160045260246000fd5b6000614ab882613d62565b9150614ac383613d62565b9250817fffffffffffffffffffffffffffffffffffffffffffffffffffffffffffffffff0483118215151615614afc57614afb614a7e565b5b828202905092915050565b7f4e487b7100000000000000000000000000000000000000000000000000000000600052601260045260246000fd5b6000614b4182613d62565b9150614b4c83613d62565b925082614b5c57614b5b614b07565b5b828204905092915050565b600081519050614b76816141c0565b92915050565b600081519050614b8b816142d8565b92915050565b600081519050614ba081613edf565b92915050565b600081519050614bb581613c9e565b92915050565b600060a08284031215614bd157614bd06142d3565b5b614bdb60a0613f86565b90506000614beb84828501614b67565b6000830152506020614bff84828501614b7c565b6020830152506040614c1384828501614b7c565b6040830152506060614c2784828501614b91565b6060830152506080614c3b84828501614ba6565b60808301525092915050565b600060a08284031215614c5d57614c5c613c8a565b5b6000614c6b84828501614bbb565b91505092915050565b7f63616c6c6572206973206e6f7420617574686f72697365640000000000000000600082015250565b6000614caa60188361451a565b9150614cb582614c74565b602082019050919050565b60006020820190508181036000830152614cd981614c9d565b9050919050565b7f70686f6e65207265636f72642068617320657870697265642c20706c6561736560008201527f2072656e65770000000000000000000000000000000000000000000000000000602082015250565b6000614d3c60268361451a565b9150614d4782614ce0565b604082019050919050565b60006020820190508181036000830152614d6b81614d2f565b9050919050565b7f63616e6e6f7420736574206f776e657220746f20746865207a65726f2061646460008201527f7265737300000000000000000000000000000000000000000000000000000000602082015250565b6000614dce60248361451a565b9150614dd982614d72565b604082019050919050565b60006020820190508181036000830152614dfd81614dc1565b9050919050565b7f63616e6e6f7420736574206f776e657220746f2074686520726567697374727960008201527f2061646472657373000000000000000000000000000000000000000000000000602082015250565b6000614e6060288361451a565b9150614e6b82614e04565b604082019050919050565b60006020820190508181036000830152614e8f81614e53565b9050919050565b6000819050919050565b614ea981614e96565b8114614eb457600080fd5b50565b600081519050614ec681614ea0565b92915050565b600060208284031215614ee257614ee1613c8a565b5b6000614ef084828501614eb7565b91505092915050565b6000614f0482614e96565b9150614f0f83614e96565b9250827f7fffffffffffffffffffffffffffffffffffffffffffffffffffffffffffffff0482116000841360008413161615614f4e57614f4d614a7e565b5b817f80000000000000000000000000000000000000000000000000000000000000000583126000841260008413161615614f8b57614f8a614a7e565b5b827f80000000000000000000000000000000000000000000000000000000000000000582126000841360008412161615614fc857614fc7614a7e565b5b827f7fffffffffffffffffffffffffffffffffffffffffffffffffffffffffffffff058212600084126000841216161561500557615004614a7e565b5b828202905092915050565b7f70686f6e6520657870697279207265636f7264206e6f7420666f756e64000000600082015250565b6000615046601d8361451a565b915061505182615010565b602082019050919050565b6000602082019050818103600083015261507581615039565b9050919050565b7f696e73756666696369656e742062616c616e6365000000000000000000000000600082015250565b60006150b260148361451a565b91506150bd8261507c565b602082019050919050565b600060208201905081810360008301526150e1816150a5565b9050919050565b7f6f6e6c7920616e206578697374696e672070686f6e65207265636f726420636160008201527f6e2062652072656e657765640000000000000000000000000000000000000000602082015250565b6000615144602c8361451a565b915061514f826150e8565b604082019050919050565b6000602082019050818103600083015261517381615137565b9050919050565b7f6f6e6c7920612070686f6e65207265636f72642063757272656e746c7920696e60008201527f20677261636520706572696f642063616e2062652072656e6577656400000000602082015250565b60006151d6603c8361451a565b91506151e18261517a565b604082019050919050565b60006020820190508181036000830152615205816151c9565b9050919050565b600061521782613d62565b915061522283613d62565b9250827fffffffffffffffffffffffffffffffffffffffffffffffffffffffffffffffff0382111561525757615256614a7e565b5b828201905092915050565b600061526d82613d62565b915061527883613d62565b92508282101561528b5761528a614a7e565b5b828203905092915050565b600081905092915050565b50565b60006152b1600083615296565b91506152bc826152a1565b600082019050919050565b60006152d2826152a4565b9150819050919050565b7f5472616e73666572206661696c65642e00000000000000000000000000000000600082015250565b600061531260108361451a565b915061531d826152dc565b602082019050919050565b6000602082019050818103600083015261534181615305565b9050919050565b7f496e697469616c697a61626c653a20636f6e747261637420697320616c72656160008201527f647920696e697469616c697a6564000000000000000000000000000000000000602082015250565b60006153a4602e8361451a565b91506153af82615348565b604082019050919050565b600060208201905081810360008301526153d381615397565b9050919050565b6000819050919050565b600060ff82169050919050565b600061540c615407615402846153da565b614259565b6153e4565b9050919050565b61541c816153f1565b82525050565b60006020820190506154376000830184615413565b92915050565b7f4e487b7100000000000000000000000000000000000000000000000000000000600052602260045260246000fd5b6000600282049050600182168061548457607f821691505b602082108114156154985761549761543d565b5b50919050565b7f726563697069656e7420616464726573732063616e6e6f74206265207a65726f60008201527f2061646472657373000000000000000000000000000000000000000000000000602082015250565b60006154fa60288361451a565b91506155058261549e565b604082019050919050565b60006020820190508181036000830152615529816154ed565b9050919050565b7f616d6f756e74206d7573742062652067726561746572207468616e207a65726f600082015250565b600061556660208361451a565b915061557182615530565b602082019050919050565b6000602082019050818103600083015261559581615559565b9050919050565b600081519050919050565b600082825260208201905092915050565b60006155c38261559c565b6155cd81856155a7565b93506155dd81856020860161452b565b6155e681613f15565b840191505092915050565b60006080820190506156066000830187613d38565b6156136020830186613d38565b6156206040830185613d53565b818103606083015261563281846155b8565b905095945050505050565b7f6f6e6c7920616e206578697374696e672070686f6e65207265636f726420636160008201527f6e20626520636c61696d65640000000000000000000000000000000000000000602082015250565b6000615699602c8361451a565b91506156a48261563d565b604082019050919050565b600060208201905081810360008301526156c88161568c565b9050919050565b7f6f6e6c7920616e20657870697265642070686f6e65207265636f72642063616e60008201527f20626520636c61696d6564000000000000000000000000000000000000000000602082015250565b600061572b602b8361451a565b9150615736826156cf565b604082019050919050565b6000602082019050818103600083015261575a8161571e565b9050919050565b7f70686f6e65207265636f7264206973206e6f7420766572696669656400000000600082015250565b6000615797601c8361451a565b91506157a282615761565b602082019050919050565b600060208201905081810360008301526157c68161578a565b9050919050565b7f63616c6c6572206973206e6f74207665726966696564206f776e657200000000600082015250565b6000615803601c8361451a565b915061580e826157cd565b602082019050919050565b60006020820190508181036000830152615832816157f6565b9050919050565b600081905092915050565b600061584f8261450f565b6158598185615839565b935061586981856020860161452b565b80840191505092915050565b60006158818284615844565b915081905092915050565b7f70686f6e65207265636f726420686173206265656e206372656174656420616e60008201527f64206c696e6b656420746f20612077616c6c657420616c726561647900000000602082015250565b60006158e8603c8361451a565b91506158f38261588c565b604082019050919050565b60006020820190508181036000830152615917816158db565b9050919050565b7f496e697469616c697a61626c653a20636f6e7472616374206973206e6f74206960008201527f6e697469616c697a696e67000000000000000000000000000000000000000000602082015250565b600061597a602b8361451a565b91506159858261591e565b604082019050919050565b600060208201905081810360008301526159a98161596d565b9050919050565b7f416363657373436f6e74726f6c3a206163636f756e7420000000000000000000600082015250565b60006159e6601783615839565b91506159f1826159b0565b601782019050919050565b7f206973206d697373696e6720726f6c6520000000000000000000000000000000600082015250565b6000615a32601183615839565b9150615a3d826159fc565b601182019050919050565b6000615a53826159d9565b9150615a5f8285615844565b9150615a6a82615a25565b9150615a768284615844565b91508190509392505050565b60006020820190508181036000830152615a9c818461455e565b905092915050565b7f4e487b7100000000000000000000000000000000000000000000000000000000600052603260045260246000fd5b6000615ade82613d62565b91506000821415615af257615af1614a7e565b5b600182039050919050565b7f537472696e67733a20686578206c656e67746820696e73756666696369656e74600082015250565b6000615b3360208361451a565b9150615b3e82615afd565b602082019050919050565b60006020820190508181036000830152615b6281615b26565b905091905056fea264697066735822122005cadf93654696f341729f03f22ac0e2f0f3e98990ffe6537041e0b852b9f96564736f6c63430008090033",
  "linkReferences": {},
  "deployedLinkReferences": {}
}