{
  "_format": "hh-sol-artifact-1",
  "contractName": "PNSRegistry",
  "sourceName": "contracts/PNSRegistry.sol",
  "abi": [
    {
      "anonymous": false,
      "inputs": [
        {
          "indexed": true,
          "internalType": "address",
          "name": "updater",
          "type": "address"
        },
        {
          "indexed": false,
          "internalType": "uint256",
          "name": "expiryTime",
          "type": "uint256"
        }
      ],
      "name": "ExpiryTimeUpdated",
      "type": "event"
    },
    {
      "anonymous": false,
      "inputs": [
        {
          "indexed": true,
          "internalType": "address",
          "name": "updater",
          "type": "address"
        },
        {
          "indexed": false,
          "internalType": "uint256",
          "name": "gracePeriod",
          "type": "uint256"
        }
      ],
      "name": "GracePeriodUpdated",
      "type": "event"
    },
    {
      "anonymous": false,
      "inputs": [
        {
          "indexed": false,
          "internalType": "uint8",
          "name": "version",
          "type": "uint8"
        }
      ],
      "name": "Initialized",
      "type": "event"
    },
    {
      "anonymous": false,
      "inputs": [
        {
          "indexed": true,
          "internalType": "bytes32",
          "name": "phoneHash",
          "type": "bytes32"
        },
        {
          "indexed": true,
          "internalType": "address",
          "name": "wallet",
          "type": "address"
        }
      ],
      "name": "PhoneLinked",
      "type": "event"
    },
    {
      "anonymous": false,
      "inputs": [
        {
          "indexed": true,
          "internalType": "bytes32",
          "name": "phoneHash",
          "type": "bytes32"
        },
        {
          "indexed": false,
          "internalType": "bool",
          "name": "status",
          "type": "bool"
        }
      ],
      "name": "PhoneNumberVerified",
      "type": "event"
    },
    {
      "anonymous": false,
      "inputs": [
        {
          "indexed": true,
          "internalType": "bytes32",
          "name": "phoneHash",
          "type": "bytes32"
        },
        {
          "indexed": true,
          "internalType": "address",
          "name": "wallet",
          "type": "address"
        },
        {
          "indexed": true,
          "internalType": "address",
          "name": "owner",
          "type": "address"
        }
      ],
      "name": "PhoneRecordCreated",
      "type": "event"
    },
    {
      "anonymous": false,
      "inputs": [
        {
          "indexed": true,
          "internalType": "bytes32",
          "name": "phoneHash",
          "type": "bytes32"
        }
      ],
      "name": "PhoneRecordEnteredGracePeriod",
      "type": "event"
    },
    {
      "anonymous": false,
      "inputs": [
        {
          "indexed": true,
          "internalType": "bytes32",
          "name": "phoneHash",
          "type": "bytes32"
        }
      ],
      "name": "PhoneRecordExpired",
      "type": "event"
    },
    {
      "anonymous": false,
      "inputs": [
        {
          "indexed": true,
          "internalType": "bytes32",
          "name": "phoneHash",
          "type": "bytes32"
        }
      ],
      "name": "PhoneRecordRenewed",
      "type": "event"
    },
    {
      "anonymous": false,
      "inputs": [
        {
          "indexed": true,
          "internalType": "bytes32",
          "name": "role",
          "type": "bytes32"
        },
        {
          "indexed": true,
          "internalType": "bytes32",
          "name": "previousAdminRole",
          "type": "bytes32"
        },
        {
          "indexed": true,
          "internalType": "bytes32",
          "name": "newAdminRole",
          "type": "bytes32"
        }
      ],
      "name": "RoleAdminChanged",
      "type": "event"
    },
    {
      "anonymous": false,
      "inputs": [
        {
          "indexed": true,
          "internalType": "bytes32",
          "name": "role",
          "type": "bytes32"
        },
        {
          "indexed": true,
          "internalType": "address",
          "name": "account",
          "type": "address"
        },
        {
          "indexed": true,
          "internalType": "address",
          "name": "sender",
          "type": "address"
        }
      ],
      "name": "RoleGranted",
      "type": "event"
    },
    {
      "anonymous": false,
      "inputs": [
        {
          "indexed": true,
          "internalType": "bytes32",
          "name": "role",
          "type": "bytes32"
        },
        {
          "indexed": true,
          "internalType": "address",
          "name": "account",
          "type": "address"
        },
        {
          "indexed": true,
          "internalType": "address",
          "name": "sender",
          "type": "address"
        }
      ],
      "name": "RoleRevoked",
      "type": "event"
    },
    {
      "anonymous": false,
      "inputs": [
        {
          "indexed": true,
          "internalType": "bytes32",
          "name": "phoneHash",
          "type": "bytes32"
        },
        {
          "indexed": true,
          "internalType": "address",
          "name": "owner",
          "type": "address"
        }
      ],
      "name": "Transfer",
      "type": "event"
    },
    {
      "anonymous": false,
      "inputs": [
        {
          "indexed": true,
          "internalType": "address",
          "name": "_recipient",
          "type": "address"
        },
        {
          "indexed": false,
          "internalType": "uint256",
          "name": "amount",
          "type": "uint256"
        }
      ],
      "name": "WithdrawalSuccessful",
      "type": "event"
    },
    {
      "stateMutability": "payable",
      "type": "fallback"
    },
    {
      "inputs": [],
      "name": "DEFAULT_ADMIN_ROLE",
      "outputs": [
        {
          "internalType": "bytes32",
          "name": "",
          "type": "bytes32"
        }
      ],
      "stateMutability": "view",
      "type": "function"
    },
    {
      "inputs": [],
      "name": "MAINTAINER_ROLE",
      "outputs": [
        {
          "internalType": "bytes32",
          "name": "",
          "type": "bytes32"
        }
      ],
      "stateMutability": "view",
      "type": "function"
    },
    {
      "inputs": [],
      "name": "VERIFIER_ROLE",
      "outputs": [
        {
          "internalType": "bytes32",
          "name": "",
          "type": "bytes32"
        }
      ],
      "stateMutability": "view",
      "type": "function"
    },
    {
      "inputs": [
        {
          "internalType": "bytes32",
          "name": "phoneHash",
          "type": "bytes32"
        },
        {
          "internalType": "address",
          "name": "resolver",
          "type": "address"
        },
        {
          "internalType": "string",
          "name": "label",
          "type": "string"
        }
      ],
      "name": "claimExpiredPhoneRecord",
      "outputs": [],
      "stateMutability": "payable",
      "type": "function"
    },
    {
      "inputs": [],
      "name": "expiryTime",
      "outputs": [
        {
          "internalType": "uint256",
          "name": "",
          "type": "uint256"
        }
      ],
      "stateMutability": "view",
      "type": "function"
    },
    {
      "inputs": [
        {
          "internalType": "uint256",
          "name": "usdAmount",
          "type": "uint256"
        }
      ],
      "name": "getAmountinETH",
      "outputs": [
        {
          "internalType": "uint256",
          "name": "",
          "type": "uint256"
        }
      ],
      "stateMutability": "view",
      "type": "function"
    },
    {
      "inputs": [],
      "name": "getExpiryTime",
      "outputs": [
        {
          "internalType": "uint256",
          "name": "",
          "type": "uint256"
        }
      ],
      "stateMutability": "view",
      "type": "function"
    },
    {
      "inputs": [],
      "name": "getGracePeriod",
      "outputs": [
        {
          "internalType": "uint256",
          "name": "",
          "type": "uint256"
        }
      ],
      "stateMutability": "view",
      "type": "function"
    },
    {
      "inputs": [
        {
          "internalType": "bytes32",
          "name": "phoneHash",
          "type": "bytes32"
        }
      ],
      "name": "getRecord",
      "outputs": [
        {
          "components": [
            {
              "internalType": "address",
              "name": "owner",
              "type": "address"
            },
            {
              "internalType": "bytes32",
              "name": "phoneHash",
              "type": "bytes32"
            },
            {
              "internalType": "bool",
              "name": "exists",
              "type": "bool"
            },
            {
              "internalType": "bool",
              "name": "isInGracePeriod",
              "type": "bool"
            },
            {
              "internalType": "bool",
              "name": "isExpired",
              "type": "bool"
            },
            {
              "internalType": "uint256",
              "name": "expirationTime",
              "type": "uint256"
            },
            {
              "internalType": "uint256",
              "name": "createdAt",
              "type": "uint256"
            }
          ],
          "internalType": "struct IPNSSchema.PhoneRecord",
          "name": "",
          "type": "tuple"
        }
      ],
      "stateMutability": "view",
      "type": "function"
    },
    {
      "inputs": [
        {
          "internalType": "bytes32",
          "name": "phoneHash",
          "type": "bytes32"
        }
      ],
      "name": "getRecordMapping",
      "outputs": [
        {
          "components": [
            {
              "internalType": "address",
              "name": "owner",
              "type": "address"
            },
            {
              "internalType": "bytes32",
              "name": "phoneHash",
              "type": "bytes32"
            },
            {
              "internalType": "bool",
              "name": "exists",
              "type": "bool"
            },
            {
              "internalType": "bool",
              "name": "isInGracePeriod",
              "type": "bool"
            },
            {
              "internalType": "bool",
              "name": "isExpired",
              "type": "bool"
            },
            {
              "internalType": "uint256",
              "name": "expirationTime",
              "type": "uint256"
            },
            {
              "internalType": "uint256",
              "name": "createdAt",
              "type": "uint256"
            }
          ],
          "internalType": "struct IPNSSchema.PhoneRecord",
          "name": "",
          "type": "tuple"
        }
      ],
      "stateMutability": "view",
      "type": "function"
    },
    {
      "inputs": [],
      "name": "getRegistryCost",
      "outputs": [
        {
          "internalType": "uint256",
          "name": "",
          "type": "uint256"
        }
      ],
      "stateMutability": "view",
      "type": "function"
    },
    {
      "inputs": [],
      "name": "getRegistryRenewCost",
      "outputs": [
        {
          "internalType": "uint256",
          "name": "",
          "type": "uint256"
        }
      ],
      "stateMutability": "view",
      "type": "function"
    },
    {
      "inputs": [
        {
          "internalType": "bytes32",
          "name": "phoneHash",
          "type": "bytes32"
        }
      ],
      "name": "getResolver",
      "outputs": [
        {
          "components": [
            {
              "internalType": "address",
              "name": "wallet",
              "type": "address"
            },
            {
              "internalType": "uint256",
              "name": "createdAt",
              "type": "uint256"
            },
            {
              "internalType": "string",
              "name": "label",
              "type": "string"
            },
            {
              "internalType": "bool",
              "name": "exists",
              "type": "bool"
            }
          ],
          "internalType": "struct IPNSSchema.ResolverRecord[]",
          "name": "",
          "type": "tuple[]"
        }
      ],
      "stateMutability": "view",
      "type": "function"
    },
    {
      "inputs": [
        {
          "internalType": "bytes32",
          "name": "role",
          "type": "bytes32"
        }
      ],
      "name": "getRoleAdmin",
      "outputs": [
        {
          "internalType": "bytes32",
          "name": "",
          "type": "bytes32"
        }
      ],
      "stateMutability": "view",
      "type": "function"
    },
    {
      "inputs": [
        {
          "internalType": "bytes32",
          "name": "phoneHash",
          "type": "bytes32"
        }
      ],
      "name": "getVerificationRecord",
      "outputs": [
        {
          "components": [
            {
              "internalType": "uint256",
              "name": "verifiedAt",
              "type": "uint256"
            },
            {
              "internalType": "bool",
              "name": "isVerified",
              "type": "bool"
            },
            {
              "internalType": "bool",
              "name": "exists",
              "type": "bool"
            },
            {
              "internalType": "address",
              "name": "owner",
              "type": "address"
            },
            {
              "internalType": "bytes32",
              "name": "phoneHash",
              "type": "bytes32"
            }
          ],
          "internalType": "struct IPNSSchema.VerificationRecord",
          "name": "",
          "type": "tuple"
        }
      ],
      "stateMutability": "view",
      "type": "function"
    },
    {
      "inputs": [],
      "name": "getVersion",
      "outputs": [
        {
          "internalType": "uint32",
          "name": "",
          "type": "uint32"
        }
      ],
      "stateMutability": "view",
      "type": "function"
    },
    {
      "inputs": [],
      "name": "gracePeriod",
      "outputs": [
        {
          "internalType": "uint256",
          "name": "",
          "type": "uint256"
        }
      ],
      "stateMutability": "view",
      "type": "function"
    },
    {
      "inputs": [
        {
          "internalType": "bytes32",
          "name": "role",
          "type": "bytes32"
        },
        {
          "internalType": "address",
          "name": "account",
          "type": "address"
        }
      ],
      "name": "grantRole",
      "outputs": [],
      "stateMutability": "nonpayable",
      "type": "function"
    },
    {
      "inputs": [
        {
          "internalType": "bytes32",
          "name": "role",
          "type": "bytes32"
        },
        {
          "internalType": "address",
          "name": "account",
          "type": "address"
        }
      ],
      "name": "hasRole",
      "outputs": [
        {
          "internalType": "bool",
          "name": "",
          "type": "bool"
        }
      ],
      "stateMutability": "view",
      "type": "function"
    },
    {
      "inputs": [
        {
          "internalType": "address",
          "name": "_pnsGuardianContract",
          "type": "address"
        },
        {
          "internalType": "address",
          "name": "_priceAggregator",
          "type": "address"
        },
        {
          "internalType": "address",
          "name": "_verifier",
          "type": "address"
        }
      ],
      "name": "initialize",
      "outputs": [],
      "stateMutability": "nonpayable",
      "type": "function"
    },
    {
      "inputs": [
        {
          "internalType": "bytes32",
          "name": "phoneHash",
          "type": "bytes32"
        }
      ],
      "name": "isRecordVerified",
      "outputs": [
        {
          "internalType": "bool",
          "name": "",
          "type": "bool"
        }
      ],
      "stateMutability": "view",
      "type": "function"
    },
    {
      "inputs": [
        {
          "internalType": "bytes32",
          "name": "phoneHash",
          "type": "bytes32"
        },
        {
          "internalType": "address",
          "name": "resolver",
          "type": "address"
        },
        {
          "internalType": "string",
          "name": "label",
          "type": "string"
        }
      ],
      "name": "linkPhoneToWallet",
      "outputs": [],
      "stateMutability": "nonpayable",
      "type": "function"
    },
    {
      "inputs": [],
      "name": "pnsGuardianContract",
      "outputs": [
        {
          "internalType": "contract IPNSGuardian",
          "name": "",
          "type": "address"
        }
      ],
      "stateMutability": "view",
      "type": "function"
    },
    {
      "inputs": [],
      "name": "priceFeedContract",
      "outputs": [
        {
          "internalType": "contract DummyPriceOracle",
          "name": "",
          "type": "address"
        }
      ],
      "stateMutability": "view",
      "type": "function"
    },
    {
      "inputs": [
        {
          "internalType": "bytes32",
          "name": "phoneHash",
          "type": "bytes32"
        }
      ],
      "name": "recordExists",
      "outputs": [
        {
          "internalType": "bool",
          "name": "",
          "type": "bool"
        }
      ],
      "stateMutability": "view",
      "type": "function"
    },
    {
      "inputs": [
        {
          "internalType": "bytes32",
          "name": "",
          "type": "bytes32"
        }
      ],
      "name": "records",
      "outputs": [
        {
          "internalType": "address",
          "name": "owner",
          "type": "address"
        },
        {
          "internalType": "bytes32",
          "name": "phoneHash",
          "type": "bytes32"
        },
        {
          "internalType": "bool",
          "name": "exists",
          "type": "bool"
        },
        {
          "internalType": "bool",
          "name": "isInGracePeriod",
          "type": "bool"
        },
        {
          "internalType": "bool",
          "name": "isExpired",
          "type": "bool"
        },
        {
          "internalType": "uint256",
          "name": "expirationTime",
          "type": "uint256"
        },
        {
          "internalType": "uint256",
          "name": "createdAt",
          "type": "uint256"
        }
      ],
      "stateMutability": "view",
      "type": "function"
    },
    {
      "inputs": [],
      "name": "registryCost",
      "outputs": [
        {
          "internalType": "uint256",
          "name": "",
          "type": "uint256"
        }
      ],
      "stateMutability": "view",
      "type": "function"
    },
    {
      "inputs": [],
      "name": "registryRenewCost",
      "outputs": [
        {
          "internalType": "uint256",
          "name": "",
          "type": "uint256"
        }
      ],
      "stateMutability": "view",
      "type": "function"
    },
    {
      "inputs": [
        {
          "internalType": "bytes32",
          "name": "phoneHash",
          "type": "bytes32"
        }
      ],
      "name": "renew",
      "outputs": [],
      "stateMutability": "payable",
      "type": "function"
    },
    {
      "inputs": [
        {
          "internalType": "bytes32",
          "name": "role",
          "type": "bytes32"
        },
        {
          "internalType": "address",
          "name": "account",
          "type": "address"
        }
      ],
      "name": "renounceRole",
      "outputs": [],
      "stateMutability": "nonpayable",
      "type": "function"
    },
    {
      "inputs": [
        {
          "internalType": "bytes32",
          "name": "",
          "type": "bytes32"
        },
        {
          "internalType": "uint256",
          "name": "",
          "type": "uint256"
        }
      ],
      "name": "resolverRecords",
      "outputs": [
        {
          "internalType": "address",
          "name": "wallet",
          "type": "address"
        },
        {
          "internalType": "uint256",
          "name": "createdAt",
          "type": "uint256"
        },
        {
          "internalType": "string",
          "name": "label",
          "type": "string"
        },
        {
          "internalType": "bool",
          "name": "exists",
          "type": "bool"
        }
      ],
      "stateMutability": "view",
      "type": "function"
    },
    {
      "inputs": [
        {
          "internalType": "bytes32",
          "name": "role",
          "type": "bytes32"
        },
        {
          "internalType": "address",
          "name": "account",
          "type": "address"
        }
      ],
      "name": "revokeRole",
      "outputs": [],
      "stateMutability": "nonpayable",
      "type": "function"
    },
    {
      "inputs": [
        {
          "internalType": "uint256",
          "name": "time",
          "type": "uint256"
        }
      ],
      "name": "setExpiryTime",
      "outputs": [],
      "stateMutability": "nonpayable",
      "type": "function"
    },
    {
      "inputs": [
        {
          "internalType": "uint256",
          "name": "time",
          "type": "uint256"
        }
      ],
      "name": "setGracePeriod",
      "outputs": [],
      "stateMutability": "nonpayable",
      "type": "function"
    },
    {
      "inputs": [
        {
          "internalType": "bytes32",
          "name": "phoneHash",
          "type": "bytes32"
        },
        {
          "internalType": "address",
          "name": "owner",
          "type": "address"
        }
      ],
      "name": "setOwner",
      "outputs": [],
      "stateMutability": "nonpayable",
      "type": "function"
    },
    {
      "inputs": [
        {
          "internalType": "bytes32",
          "name": "phoneHash",
          "type": "bytes32"
        },
        {
          "internalType": "address",
          "name": "resolver",
          "type": "address"
        },
        {
          "internalType": "string",
          "name": "label",
          "type": "string"
        }
      ],
      "name": "setPhoneRecord",
      "outputs": [],
      "stateMutability": "payable",
      "type": "function"
    },
    {
      "inputs": [
        {
          "components": [
            {
              "internalType": "address",
              "name": "owner",
              "type": "address"
            },
            {
              "internalType": "bytes32",
              "name": "phoneHash",
              "type": "bytes32"
            },
            {
              "internalType": "bool",
              "name": "exists",
              "type": "bool"
            },
            {
              "internalType": "bool",
              "name": "isInGracePeriod",
              "type": "bool"
            },
            {
              "internalType": "bool",
              "name": "isExpired",
              "type": "bool"
            },
            {
              "internalType": "uint256",
              "name": "expirationTime",
              "type": "uint256"
            },
            {
              "internalType": "uint256",
              "name": "createdAt",
              "type": "uint256"
            }
          ],
          "internalType": "struct IPNSSchema.PhoneRecord",
          "name": "recordData",
          "type": "tuple"
        },
        {
          "internalType": "bytes32",
          "name": "phoneHash",
          "type": "bytes32"
        }
      ],
      "name": "setPhoneRecordMapping",
      "outputs": [],
      "stateMutability": "nonpayable",
      "type": "function"
    },
    {
      "inputs": [
        {
          "internalType": "uint256",
          "name": "_registryCost",
          "type": "uint256"
        }
      ],
      "name": "setRegistryCost",
      "outputs": [],
      "stateMutability": "nonpayable",
      "type": "function"
    },
    {
      "inputs": [
        {
          "internalType": "uint256",
          "name": "_registryRenewCost",
          "type": "uint256"
        }
      ],
      "name": "setRegistryRenewCost",
      "outputs": [],
      "stateMutability": "nonpayable",
      "type": "function"
    },
    {
      "inputs": [
        {
          "internalType": "bytes4",
          "name": "interfaceId",
          "type": "bytes4"
        }
      ],
      "name": "supportsInterface",
      "outputs": [
        {
          "internalType": "bool",
          "name": "",
          "type": "bool"
        }
      ],
      "stateMutability": "view",
      "type": "function"
    },
    {
      "inputs": [
        {
          "internalType": "bytes32",
          "name": "phoneHash",
          "type": "bytes32"
        },
        {
          "internalType": "bytes32",
          "name": "hashedMessage",
          "type": "bytes32"
        },
        {
          "internalType": "bool",
          "name": "status",
          "type": "bool"
        },
        {
          "internalType": "bytes",
          "name": "signature",
          "type": "bytes"
        }
      ],
      "name": "verifyPhone",
      "outputs": [],
      "stateMutability": "nonpayable",
      "type": "function"
    },
    {
      "inputs": [
        {
          "internalType": "address",
          "name": "_recipient",
          "type": "address"
        },
        {
          "internalType": "uint256",
          "name": "amount",
          "type": "uint256"
        }
      ],
      "name": "withdraw",
      "outputs": [],
      "stateMutability": "nonpayable",
      "type": "function"
    },
    {
      "stateMutability": "payable",
      "type": "receive"
    }
  ],
  "bytecode": "0x608060405234801561001057600080fd5b50615b8580620000216000396000f3fe6080604052600436106102555760003560e01c806391d1485411610139578063da389f12116100b6578063f2f659601161007a578063f2f6596014610907578063f3fef3a314610930578063f56d7f1114610959578063f79fe53814610982578063f8742254146109bf578063fd3069d6146109ea5761025c565b8063da389f121461081e578063dbd1838814610849578063e7705db614610874578063ea6ec3de1461089f578063f219dbcd146108dc5761025c565b8063ab8a2df1116100fd578063ab8a2df114610738578063c0c53b8b14610761578063c4c839181461078a578063d26f3887146107ca578063d547741f146107f55761025c565b806391d148541461063d57806393210be41461067a57806399bc0aea146106b7578063a06db7dc146106e2578063a217fddf1461070d5761025c565b806330fc4cff116101d25780635b0fc9c3116101965780635b0fc9c31461053e5780636474eeab1461056757806375e39fab146105905780638108c044146105b95780638e32762d146105f65780638fafbb50146106125761025c565b806330fc4cff1461045957806336568abe14610482578063488dbfad146104ab5780634b6f6710146104e85780634cb00045146105135761025c565b8063213681cd11610219578063213681cd14610362578063248a9ca31461039f57806325cb5bc0146103dc5780632c1d0cfe146104075780632f2ff15d146104305761025c565b806301e647251461025e57806301ffc9a7146102a15780630d8e6e2c146102de578063130b7498146103095780631779fa18146103255761025c565b3661025c57005b005b34801561026a57600080fd5b5061028560048036038101906102809190613dc7565b610a06565b6040516102989796959493929190613e78565b60405180910390f35b3480156102ad57600080fd5b506102c860048036038101906102c39190613f3f565b610a8f565b6040516102d59190613f6c565b60405180910390f35b3480156102ea57600080fd5b506102f3610b09565b6040516103009190613fa6565b60405180910390f35b610323600480360381019061031e9190614133565b610b12565b005b34801561033157600080fd5b5061034c600480360381019061034791906141ce565b610b23565b60405161035991906141fb565b60405180910390f35b34801561036e57600080fd5b5061038960048036038101906103849190613dc7565b610b35565b60405161039691906142e0565b60405180910390f35b3480156103ab57600080fd5b506103c660048036038101906103c19190613dc7565b610cef565b6040516103d391906142fb565b60405180910390f35b3480156103e857600080fd5b506103f1610d0f565b6040516103fe91906141fb565b60405180910390f35b34801561041357600080fd5b5061042e600480360381019061042991906141ce565b610d19565b005b34801561043c57600080fd5b5061045760048036038101906104529190614316565b610da0565b005b34801561046557600080fd5b50610480600480360381019061047b91906141ce565b610dc1565b005b34801561048e57600080fd5b506104a960048036038101906104a49190614316565b610e96565b005b3480156104b757600080fd5b506104d260048036038101906104cd9190613dc7565b610f19565b6040516104df9190613f6c565b60405180910390f35b3480156104f457600080fd5b506104fd610fd6565b60405161050a91906143b5565b60405180910390f35b34801561051f57600080fd5b50610528610ffc565b60405161053591906141fb565b60405180910390f35b34801561054a57600080fd5b5061056560048036038101906105609190614316565b611002565b005b34801561057357600080fd5b5061058e60048036038101906105899190614133565b611372565b005b34801561059c57600080fd5b506105b760048036038101906105b291906144b5565b6115ba565b005b3480156105c557600080fd5b506105e060048036038101906105db9190613dc7565b6115c8565b6040516105ed919061455e565b60405180910390f35b610610600480360381019061060b9190613dc7565b611688565b005b34801561061e57600080fd5b50610627611aad565b60405161063491906141fb565b60405180910390f35b34801561064957600080fd5b50610664600480360381019061065f9190614316565b611ab3565b6040516106719190613f6c565b60405180910390f35b34801561068657600080fd5b506106a1600480360381019061069c9190613dc7565b611b1e565b6040516106ae91906142e0565b60405180910390f35b3480156106c357600080fd5b506106cc611c10565b6040516106d991906141fb565b60405180910390f35b3480156106ee57600080fd5b506106f7611c16565b60405161070491906141fb565b60405180910390f35b34801561071957600080fd5b50610722611c1c565b60405161072f91906142fb565b60405180910390f35b34801561074457600080fd5b5061075f600480360381019061075a91906141ce565b611c23565b005b34801561076d57600080fd5b5061078860048036038101906107839190614579565b611caa565b005b34801561079657600080fd5b506107b160048036038101906107ac91906145cc565b611eb9565b6040516107c19493929190614694565b60405180910390f35b3480156107d657600080fd5b506107df611fbb565b6040516107ec9190614701565b60405180910390f35b34801561080157600080fd5b5061081c60048036038101906108179190614316565b611fe1565b005b34801561082a57600080fd5b50610833612002565b60405161084091906141fb565b60405180910390f35b34801561085557600080fd5b5061085e61200c565b60405161086b91906141fb565b60405180910390f35b34801561088057600080fd5b50610889612016565b60405161089691906142fb565b60405180910390f35b3480156108ab57600080fd5b506108c660048036038101906108c19190613dc7565b61203a565b6040516108d3919061488b565b60405180910390f35b3480156108e857600080fd5b506108f16121b9565b6040516108fe91906141fb565b60405180910390f35b34801561091357600080fd5b5061092e600480360381019061092991906141ce565b6121c3565b005b34801561093c57600080fd5b50610957600480360381019061095291906148ad565b612298565b005b34801561096557600080fd5b50610980600480360381019061097b919061498e565b6124c7565b005b34801561098e57600080fd5b506109a960048036038101906109a49190613dc7565b612598565b6040516109b69190613f6c565b60405180910390f35b3480156109cb57600080fd5b506109d46125c5565b6040516109e191906142fb565b60405180910390f35b610a0460048036038101906109ff9190614133565b6125e9565b005b609e6020528060005260406000206000915090508060000160009054906101000a900473ffffffffffffffffffffffffffffffffffffffff16908060010154908060020160009054906101000a900460ff16908060020160019054906101000a900460ff16908060020160029054906101000a900460ff16908060030154908060040154905087565b60007f7965db0b000000000000000000000000000000000000000000000000000000007bffffffffffffffffffffffffffffffffffffffffffffffffffffffff1916827bffffffffffffffffffffffffffffffffffffffffffffffffffffffff19161480610b025750610b01826127bc565b5b9050919050565b60006001905090565b610b1e83338484612826565b505050565b6000610b2e8261300e565b9050919050565b610b3d613ad7565b6000609e60008481526020019081526020016000206040518060e00160405290816000820160009054906101000a900473ffffffffffffffffffffffffffffffffffffffff1673ffffffffffffffffffffffffffffffffffffffff1673ffffffffffffffffffffffffffffffffffffffff168152602001600182015481526020016002820160009054906101000a900460ff161515151581526020016002820160019054906101000a900460ff161515151581526020016002820160029054906101000a900460ff161515151581526020016003820154815260200160048201548152505090508060400151610c68576040517f08c379a0000000000000000000000000000000000000000000000000000000008152600401610c5f90614a5d565b60405180910390fd5b6000610c7384613035565b90506000610c80856130b2565b90506040518060e00160405280846000015173ffffffffffffffffffffffffffffffffffffffff16815260200184602001518152602001846040015115158152602001831515815260200182151581526020018460a0015181526020018460c001518152509350505050919050565b600060656000838152602001908152602001600020600101549050919050565b6000609754905090565b610d437f339759585899103d2ace64958e37e18ccb0504652c81d4a1b8aa80fe2126ab9533611ab3565b80610d575750610d566000801b33611ab3565b5b610d96576040517f08c379a0000000000000000000000000000000000000000000000000000000008152600401610d8d90614ac9565b60405180910390fd5b8060998190555050565b610da982610cef565b610db28161313c565b610dbc8383613150565b505050565b610deb7f339759585899103d2ace64958e37e18ccb0504652c81d4a1b8aa80fe2126ab9533611ab3565b80610dff5750610dfe6000801b33611ab3565b5b610e3e576040517f08c379a0000000000000000000000000000000000000000000000000000000008152600401610e3590614ac9565b60405180910390fd5b806097819055503373ffffffffffffffffffffffffffffffffffffffff167f9d85dc994c891eea203f3a6cc89736299931ac5325fd63b233339228970b99de82604051610e8b91906141fb565b60405180910390a250565b610e9e613231565b73ffffffffffffffffffffffffffffffffffffffff168173ffffffffffffffffffffffffffffffffffffffff1614610f0b576040517f08c379a0000000000000000000000000000000000000000000000000000000008152600401610f0290614b5b565b60405180910390fd5b610f158282613239565b5050565b600080609c60009054906101000a900473ffffffffffffffffffffffffffffffffffffffff1673ffffffffffffffffffffffffffffffffffffffff16638108c044846040518263ffffffff1660e01b8152600401610f7791906142fb565b60a06040518083038186803b158015610f8f57600080fd5b505afa158015610fa3573d6000803e3d6000fd5b505050506040513d601f19601f82011682018060405250810190610fc79190614c5b565b90508060200151915050919050565b609b60009054906101000a900473ffffffffffffffffffffffffffffffffffffffff1681565b60995481565b816000609e600083815260200190815260200160002060000160009054906101000a900473ffffffffffffffffffffffffffffffffffffffff1690503373ffffffffffffffffffffffffffffffffffffffff168173ffffffffffffffffffffffffffffffffffffffff16146110ac576040517f08c379a00000000000000000000000000000000000000000000000000000000081526004016110a390614cd4565b60405180910390fd5b8360006110b882613035565b90508015611123576000609e6000848152602001908152602001600020905060018160020160016101000a81548160ff021916908315150217905550827f03eb7537ed8ac874f6194d32434e70b659fe7409c8f693aa03e65cf50f2626e360405160405180910390a2505b85600061112f826130b2565b905080156111f0576000609e6000848152602001908152602001600020905060008160020160016101000a81548160ff02191690831515021790555060018160020160026101000a81548160ff021916908315150217905550827fb679d0c767903a8ba184d02a07326d998e08611b6dc812b61142ef5d9374a30960405160405180910390a26040517f08c379a00000000000000000000000000000000000000000000000000000000081526004016111e790614d66565b60405180910390fd5b600073ffffffffffffffffffffffffffffffffffffffff168773ffffffffffffffffffffffffffffffffffffffff161415611260576040517f08c379a000000000000000000000000000000000000000000000000000000000815260040161125790614df8565b60405180910390fd5b3073ffffffffffffffffffffffffffffffffffffffff168773ffffffffffffffffffffffffffffffffffffffff1614156112cf576040517f08c379a00000000000000000000000000000000000000000000000000000000081526004016112c690614e8a565b60405180910390fd5b86609e60008a815260200190815260200160002060000160006101000a81548173ffffffffffffffffffffffffffffffffffffffff021916908373ffffffffffffffffffffffffffffffffffffffff1602179055508673ffffffffffffffffffffffffffffffffffffffff16887fd4735d920b0f87494915f556dd9b54c8f309026070caea5c737245152564d26660405160405180910390a35050505050505050565b826000609e600083815260200190815260200160002060000160009054906101000a900473ffffffffffffffffffffffffffffffffffffffff1690503373ffffffffffffffffffffffffffffffffffffffff168173ffffffffffffffffffffffffffffffffffffffff161461141c576040517f08c379a000000000000000000000000000000000000000000000000000000000815260040161141390614cd4565b60405180910390fd5b84600061142882613035565b90508015611493576000609e6000848152602001908152602001600020905060018160020160016101000a81548160ff021916908315150217905550827f03eb7537ed8ac874f6194d32434e70b659fe7409c8f693aa03e65cf50f2626e360405160405180910390a2505b86600061149f826130b2565b90508015611560576000609e6000848152602001908152602001600020905060008160020160016101000a81548160ff02191690831515021790555060018160020160026101000a81548160ff021916908315150217905550827fb679d0c767903a8ba184d02a07326d998e08611b6dc812b61142ef5d9374a30960405160405180910390a26040517f08c379a000000000000000000000000000000000000000000000000000000000815260040161155790614d66565b60405180910390fd5b61156b89898961331b565b8773ffffffffffffffffffffffffffffffffffffffff16897f2fba9db5fd4b5b44ef46ec5170dba710636b886bf0dbf8c98ffb5e76e2e5516860405160405180910390a3505050505050505050565b6115c482826135df565b5050565b6115d0613b33565b6000609c60009054906101000a900473ffffffffffffffffffffffffffffffffffffffff1673ffffffffffffffffffffffffffffffffffffffff16638108c044846040518263ffffffff1660e01b815260040161162d91906142fb565b60a06040518083038186803b15801561164557600080fd5b505afa158015611659573d6000803e3d6000fd5b505050506040513d601f19601f8201168201806040525081019061167d9190614c5b565b905080915050919050565b806000609e600083815260200190815260200160002060000160009054906101000a900473ffffffffffffffffffffffffffffffffffffffff1690503373ffffffffffffffffffffffffffffffffffffffff168173ffffffffffffffffffffffffffffffffffffffff1614611732576040517f08c379a000000000000000000000000000000000000000000000000000000000815260040161172990614cd4565b60405180910390fd5b826000609e6000838152602001908152602001600020600301541161178c576040517f08c379a000000000000000000000000000000000000000000000000000000000815260040161178390614ef6565b60405180910390fd5b611797609a5461300e565b3410156117d9576040517f08c379a00000000000000000000000000000000000000000000000000000000081526004016117d090614f62565b60405180910390fd5b6000609e6000868152602001908152602001600020905060006117fb86613035565b90506000611808876130b2565b90508260020160009054906101000a900460ff1661185b576040517f08c379a000000000000000000000000000000000000000000000000000000000815260040161185290614ff4565b60405180910390fd5b818015611866575080155b6118a5576040517f08c379a000000000000000000000000000000000000000000000000000000000815260040161189c90615086565b60405180910390fd5b60008360020160016101000a81548160ff02191690831515021790555060008360020160026101000a81548160ff021916908315150217905550609754426118ed91906150d5565b836003018190555060003073ffffffffffffffffffffffffffffffffffffffff163460405161191b9061515c565b60006040518083038185875af1925050503d8060008114611958576040519150601f19603f3d011682016040523d82523d6000602084013e61195d565b606091505b50509050806119a1576040517f08c379a0000000000000000000000000000000000000000000000000000000008152600401611998906151bd565b60405180910390fd5b6119ac609a5461300e565b341115611a765760003373ffffffffffffffffffffffffffffffffffffffff166119d7609a5461300e565b346119e291906151dd565b6040516119ee9061515c565b60006040518083038185875af1925050503d8060008114611a2b576040519150601f19603f3d011682016040523d82523d6000602084013e611a30565b606091505b5050905080611a74576040517f08c379a0000000000000000000000000000000000000000000000000000000008152600401611a6b906151bd565b60405180910390fd5b505b877ffc18d31e0e0e3243c37bd753fa25eaeea8fae3f39c29c8e2b70b249d81d96abd60405160405180910390a25050505050505050565b609a5481565b60006065600084815260200190815260200160002060000160008373ffffffffffffffffffffffffffffffffffffffff1673ffffffffffffffffffffffffffffffffffffffff16815260200190815260200160002060009054906101000a900460ff16905092915050565b611b26613ad7565b609e60008381526020019081526020016000206040518060e00160405290816000820160009054906101000a900473ffffffffffffffffffffffffffffffffffffffff1673ffffffffffffffffffffffffffffffffffffffff1673ffffffffffffffffffffffffffffffffffffffff168152602001600182015481526020016002820160009054906101000a900460ff161515151581526020016002820160019054906101000a900460ff161515151581526020016002820160029054906101000a900460ff16151515158152602001600382015481526020016004820154815250509050919050565b60975481565b60985481565b6000801b81565b611c4d7f339759585899103d2ace64958e37e18ccb0504652c81d4a1b8aa80fe2126ab9533611ab3565b80611c615750611c606000801b33611ab3565b5b611ca0576040517f08c379a0000000000000000000000000000000000000000000000000000000008152600401611c9790614ac9565b60405180910390fd5b80609a8190555050565b60008060019054906101000a900460ff16159050808015611cdb5750600160008054906101000a900460ff1660ff16105b80611d085750611cea306136c9565b158015611d075750600160008054906101000a900460ff1660ff16145b5b611d47576040517f08c379a0000000000000000000000000000000000000000000000000000000008152600401611d3e90615283565b60405180910390fd5b60016000806101000a81548160ff021916908360ff1602179055508015611d84576001600060016101000a81548160ff0219169083151502179055505b611d8c6136ec565b6301e13380609781905550624f1a0060988190555082609b60006101000a81548173ffffffffffffffffffffffffffffffffffffffff021916908373ffffffffffffffffffffffffffffffffffffffff16021790555083609c60006101000a81548173ffffffffffffffffffffffffffffffffffffffff021916908373ffffffffffffffffffffffffffffffffffffffff160217905550611e306000801b33613150565b611e5a7f0ce23c3e399818cfee81a7ab0880f714e53d7672b08df0fa62f2843416e1ea0983613150565b8015611eb35760008060016101000a81548160ff0219169083151502179055507f7f26b83ff96e1f2b6a682f133852f6798a09c465da95921460cefb38474024986001604051611eaa91906152eb565b60405180910390a15b50505050565b609f6020528160005260406000208181548110611ed557600080fd5b9060005260206000209060040201600091509150508060000160009054906101000a900473ffffffffffffffffffffffffffffffffffffffff1690806001015490806002018054611f2590615335565b80601f0160208091040260200160405190810160405280929190818152602001828054611f5190615335565b8015611f9e5780601f10611f7357610100808354040283529160200191611f9e565b820191906000526020600020905b815481529060010190602001808311611f8157829003601f168201915b5050505050908060030160009054906101000a900460ff16905084565b609c60009054906101000a900473ffffffffffffffffffffffffffffffffffffffff1681565b611fea82610cef565b611ff38161313c565b611ffd8383613239565b505050565b6000609954905090565b6000609854905090565b7f0ce23c3e399818cfee81a7ab0880f714e53d7672b08df0fa62f2843416e1ea0981565b6060609f6000838152602001908152602001600020805480602002602001604051908101604052809291908181526020016000905b828210156121ae57838290600052602060002090600402016040518060800160405290816000820160009054906101000a900473ffffffffffffffffffffffffffffffffffffffff1673ffffffffffffffffffffffffffffffffffffffff1673ffffffffffffffffffffffffffffffffffffffff1681526020016001820154815260200160028201805461210290615335565b80601f016020809104026020016040519081016040528092919081815260200182805461212e90615335565b801561217b5780601f106121505761010080835404028352916020019161217b565b820191906000526020600020905b81548152906001019060200180831161215e57829003601f168201915b505050505081526020016003820160009054906101000a900460ff1615151515815250508152602001906001019061206f565b505050509050919050565b6000609a54905090565b6121ed7f339759585899103d2ace64958e37e18ccb0504652c81d4a1b8aa80fe2126ab9533611ab3565b8061220157506122006000801b33611ab3565b5b612240576040517f08c379a000000000000000000000000000000000000000000000000000000000815260040161223790614ac9565b60405180910390fd5b806098819055503373ffffffffffffffffffffffffffffffffffffffff167f2f09768ccdcd5c73d8da21f3662ec67c7a580278f579e047e118a9ef5865e50d8260405161228d91906141fb565b60405180910390a250565b6122c27f339759585899103d2ace64958e37e18ccb0504652c81d4a1b8aa80fe2126ab9533611ab3565b806122d657506122d56000801b33611ab3565b5b612315576040517f08c379a000000000000000000000000000000000000000000000000000000000815260040161230c90614ac9565b60405180910390fd5b600073ffffffffffffffffffffffffffffffffffffffff168273ffffffffffffffffffffffffffffffffffffffff161415612385576040517f08c379a000000000000000000000000000000000000000000000000000000000815260040161237c906153d9565b60405180910390fd5b600081116123c8576040517f08c379a00000000000000000000000000000000000000000000000000000000081526004016123bf90615445565b60405180910390fd5b60008273ffffffffffffffffffffffffffffffffffffffff16826040516123ee9061515c565b60006040518083038185875af1925050503d806000811461242b576040519150601f19603f3d011682016040523d82523d6000602084013e612430565b606091505b5050905080612474576040517f08c379a000000000000000000000000000000000000000000000000000000000815260040161246b906151bd565b60405180910390fd5b8273ffffffffffffffffffffffffffffffffffffffff167ff4f855c53853d0277a9ff688aadbfe4cb795ca1d5af41704b62cb539f89939ec836040516124ba91906141fb565b60405180910390a2505050565b609c60009054906101000a900473ffffffffffffffffffffffffffffffffffffffff1673ffffffffffffffffffffffffffffffffffffffff1663c256cdae858585856040518563ffffffff1660e01b815260040161252894939291906154ba565b600060405180830381600087803b15801561254257600080fd5b505af1158015612556573d6000803e3d6000fd5b50505050837faa50ef67735e4ca4cb60e096249d4aa16358cd00b9767cc0985da8b72565c73c8360405161258a9190613f6c565b60405180910390a250505050565b6000609e600083815260200190815260200160002060020160009054906101000a900460ff169050919050565b7f339759585899103d2ace64958e37e18ccb0504652c81d4a1b8aa80fe2126ab9581565b826000609e60008381526020019081526020016000206003015411612643576040517f08c379a000000000000000000000000000000000000000000000000000000000815260040161263a90614ef6565b60405180910390fd5b6000609e600086815260200190815260200160002090506000612665866130b2565b90508160020160009054906101000a900460ff166126b8576040517f08c379a00000000000000000000000000000000000000000000000000000000081526004016126af90615578565b60405180910390fd5b806126f8576040517f08c379a00000000000000000000000000000000000000000000000000000000081526004016126ef9061560a565b60405180910390fd5b609e6000878152602001908152602001600020600080820160006101000a81549073ffffffffffffffffffffffffffffffffffffffff021916905560018201600090556002820160006101000a81549060ff02191690556002820160016101000a81549060ff02191690556002820160026101000a81549060ff0219169055600382016000905560048201600090555050609f600087815260200190815260200160002060006127a89190613b7f565b6127b486338787612826565b505050505050565b60007f01ffc9a7000000000000000000000000000000000000000000000000000000007bffffffffffffffffffffffffffffffffffffffffffffffffffffffff1916827bffffffffffffffffffffffffffffffffffffffffffffffffffffffff1916149050919050565b836000609c60009054906101000a900473ffffffffffffffffffffffffffffffffffffffff1673ffffffffffffffffffffffffffffffffffffffff16638108c044836040518263ffffffff1660e01b815260040161288491906142fb565b60a06040518083038186803b15801561289c57600080fd5b505afa1580156128b0573d6000803e3d6000fd5b505050506040513d601f19601f820116820180604052508101906128d49190614c5b565b9050806020015161291a576040517f08c379a000000000000000000000000000000000000000000000000000000000815260040161291190615676565b60405180910390fd5b856000609c60009054906101000a900473ffffffffffffffffffffffffffffffffffffffff1673ffffffffffffffffffffffffffffffffffffffff16638108c044836040518263ffffffff1660e01b815260040161297891906142fb565b60a06040518083038186803b15801561299057600080fd5b505afa1580156129a4573d6000803e3d6000fd5b505050506040513d601f19601f820116820180604052508101906129c89190614c5b565b90503373ffffffffffffffffffffffffffffffffffffffff16816060015173ffffffffffffffffffffffffffffffffffffffff1614612a3c576040517f08c379a0000000000000000000000000000000000000000000000000000000008152600401612a33906156e2565b60405180910390fd5b612a4760995461300e565b341015612a89576040517f08c379a0000000000000000000000000000000000000000000000000000000008152600401612a8090614f62565b60405180910390fd5b6000609e60008a815260200190815260200160002090506000609d60008b815260200190815260200160002090508087604051612ac6919061573e565b908152602001604051809103902060030160009054906101000a900460ff1615612b25576040517f08c379a0000000000000000000000000000000000000000000000000000000008152600401612b1c906157c7565b60405180910390fd5b8087604051612b34919061573e565b908152602001604051809103902060030160009054906101000a900460ff16612d6357868188604051612b67919061573e565b90815260200160405180910390206002019080519060200190612b8b929190613ba3565b50428188604051612b9c919061573e565b908152602001604051809103902060010181905550878188604051612bc1919061573e565b908152602001604051809103902060000160006101000a81548173ffffffffffffffffffffffffffffffffffffffff021916908373ffffffffffffffffffffffffffffffffffffffff16021790555060018188604051612c21919061573e565b908152602001604051809103902060030160006101000a81548160ff021916908315150217905550609f60008b81526020019081526020016000208188604051612c6b919061573e565b908152602001604051809103902090806001815401808255809150506001900390600052602060002090600402016000909190919091506000820160009054906101000a900473ffffffffffffffffffffffffffffffffffffffff168160000160006101000a81548173ffffffffffffffffffffffffffffffffffffffff021916908373ffffffffffffffffffffffffffffffffffffffff160217905550600182015481600101556002820181600201908054612d2790615335565b612d32929190613c29565b506003820160009054906101000a900460ff168160030160006101000a81548160ff02191690831515021790555050505b898260010181905550888260000160006101000a81548173ffffffffffffffffffffffffffffffffffffffff021916908373ffffffffffffffffffffffffffffffffffffffff16021790555042826004018190555060018260020160006101000a81548160ff02191690831515021790555060008260020160016101000a81548160ff02191690831515021790555060008260020160026101000a81548160ff02191690831515021790555060975442612e1d91906150d5565b826003018190555060003073ffffffffffffffffffffffffffffffffffffffff1634604051612e4b9061515c565b60006040518083038185875af1925050503d8060008114612e88576040519150601f19603f3d011682016040523d82523d6000602084013e612e8d565b606091505b5050905080612ed1576040517f08c379a0000000000000000000000000000000000000000000000000000000008152600401612ec8906151bd565b60405180910390fd5b612edc60995461300e565b341115612fa65760003373ffffffffffffffffffffffffffffffffffffffff16612f0760995461300e565b34612f1291906151dd565b604051612f1e9061515c565b60006040518083038185875af1925050503d8060008114612f5b576040519150601f19603f3d011682016040523d82523d6000602084013e612f60565b606091505b5050905080612fa4576040517f08c379a0000000000000000000000000000000000000000000000000000000008152600401612f9b906151bd565b60405180910390fd5b505b8973ffffffffffffffffffffffffffffffffffffffff168973ffffffffffffffffffffffffffffffffffffffff168c7f09e63897cecdb290ea9107823707eaff21c470ccde4e25697135681b86873bc560405160405180910390a45050505050505050505050565b60008061301961373d565b9050600081846130299190615816565b90508092505050919050565b6000816000609e60008381526020019081526020016000206003015411613091576040517f08c379a000000000000000000000000000000000000000000000000000000000815260040161308890614ef6565b60405180910390fd5b609e6000848152602001908152602001600020600301544211915050919050565b6000816000609e6000838152602001908152602001600020600301541161310e576040517f08c379a000000000000000000000000000000000000000000000000000000000815260040161310590614ef6565b60405180910390fd5b609854609e60008581526020019081526020016000206003015461313291906150d5565b4211915050919050565b61314d81613148613231565b6137e9565b50565b61315a8282611ab3565b61322d5760016065600084815260200190815260200160002060000160008373ffffffffffffffffffffffffffffffffffffffff1673ffffffffffffffffffffffffffffffffffffffff16815260200190815260200160002060006101000a81548160ff0219169083151502179055506131d2613231565b73ffffffffffffffffffffffffffffffffffffffff168173ffffffffffffffffffffffffffffffffffffffff16837f2f8788117e7eff1d82e926ec794901d17c78024a50270940304540a733656f0d60405160405180910390a45b5050565b600033905090565b6132438282611ab3565b156133175760006065600084815260200190815260200160002060000160008373ffffffffffffffffffffffffffffffffffffffff1673ffffffffffffffffffffffffffffffffffffffff16815260200190815260200160002060006101000a81548160ff0219169083151502179055506132bc613231565b73ffffffffffffffffffffffffffffffffffffffff168173ffffffffffffffffffffffffffffffffffffffff16837ff6391f5c32d9c69d2a47ea670b442974b53935d1edc7fd64eb21e047a839171b60405160405180910390a45b5050565b6000609d600085815260200190815260200160002090506000609e600086815260200190815260200160002090508060020160009054906101000a900460ff1661339a576040517f08c379a000000000000000000000000000000000000000000000000000000000815260040161339190614a5d565b60405180910390fd5b81836040516133a9919061573e565b908152602001604051809103902060030160009054906101000a900460ff166135d8578282846040516133dc919061573e565b90815260200160405180910390206002019080519060200190613400929190613ba3565b50428284604051613411919061573e565b908152602001604051809103902060010181905550838284604051613436919061573e565b908152602001604051809103902060000160006101000a81548173ffffffffffffffffffffffffffffffffffffffff021916908373ffffffffffffffffffffffffffffffffffffffff16021790555060018284604051613496919061573e565b908152602001604051809103902060030160006101000a81548160ff021916908315150217905550609f600086815260200190815260200160002082846040516134e0919061573e565b908152602001604051809103902090806001815401808255809150506001900390600052602060002090600402016000909190919091506000820160009054906101000a900473ffffffffffffffffffffffffffffffffffffffff168160000160006101000a81548173ffffffffffffffffffffffffffffffffffffffff021916908373ffffffffffffffffffffffffffffffffffffffff16021790555060018201548160010155600282018160020190805461359c90615335565b6135a7929190613c29565b506003820160009054906101000a900460ff168160030160006101000a81548160ff02191690831515021790555050505b5050505050565b6000609e600083815260200190815260200160002090508260c00151816004018190555082600001518160000160006101000a81548173ffffffffffffffffffffffffffffffffffffffff021916908373ffffffffffffffffffffffffffffffffffffffff16021790555082604001518160020160006101000a81548160ff0219169083151502179055508260200151816001018190555082606001518160020160016101000a81548160ff02191690831515021790555082608001518160020160026101000a81548160ff0219169083151502179055508260a001518160030181905550505050565b6000808273ffffffffffffffffffffffffffffffffffffffff163b119050919050565b600060019054906101000a900460ff1661373b576040517f08c379a0000000000000000000000000000000000000000000000000000000008152600401613732906158b9565b60405180910390fd5b565b600080609b60009054906101000a900473ffffffffffffffffffffffffffffffffffffffff1673ffffffffffffffffffffffffffffffffffffffff1663feaf968c6040518163ffffffff1660e01b815260040160206040518083038186803b1580156137a857600080fd5b505afa1580156137bc573d6000803e3d6000fd5b505050506040513d601f19601f820116820180604052508101906137e0919061590f565b90508091505090565b6137f38282611ab3565b61386a576138008161386e565b61380e8360001c602061389b565b60405160200161381f9291906159d4565b6040516020818303038152906040526040517f08c379a00000000000000000000000000000000000000000000000000000000081526004016138619190615a0e565b60405180910390fd5b5050565b60606138948273ffffffffffffffffffffffffffffffffffffffff16601460ff1661389b565b9050919050565b6060600060028360026138ae9190615a30565b6138b891906150d5565b67ffffffffffffffff8111156138d1576138d0614008565b5b6040519080825280601f01601f1916602001820160405280156139035781602001600182028036833780820191505090505b5090507f30000000000000000000000000000000000000000000000000000000000000008160008151811061393b5761393a615a8a565b5b60200101907effffffffffffffffffffffffffffffffffffffffffffffffffffffffffffff1916908160001a9053507f78000000000000000000000000000000000000000000000000000000000000008160018151811061399f5761399e615a8a565b5b60200101907effffffffffffffffffffffffffffffffffffffffffffffffffffffffffffff1916908160001a905350600060018460026139df9190615a30565b6139e991906150d5565b90505b6001811115613a89577f3031323334353637383961626364656600000000000000000000000000000000600f861660108110613a2b57613a2a615a8a565b5b1a60f81b828281518110613a4257613a41615a8a565b5b60200101907effffffffffffffffffffffffffffffffffffffffffffffffffffffffffffff1916908160001a905350600485901c945080613a8290615ab9565b90506139ec565b5060008414613acd576040517f08c379a0000000000000000000000000000000000000000000000000000000008152600401613ac490615b2f565b60405180910390fd5b8091505092915050565b6040518060e00160405280600073ffffffffffffffffffffffffffffffffffffffff1681526020016000801916815260200160001515815260200160001515815260200160001515815260200160008152602001600081525090565b6040518060a0016040528060008152602001600015158152602001600015158152602001600073ffffffffffffffffffffffffffffffffffffffff168152602001600080191681525090565b5080546000825560040290600052602060002090810190613ba09190613cb6565b50565b828054613baf90615335565b90600052602060002090601f016020900481019282613bd15760008555613c18565b82601f10613bea57805160ff1916838001178555613c18565b82800160010185558215613c18579182015b82811115613c17578251825591602001919060010190613bfc565b5b509050613c259190613d20565b5090565b828054613c3590615335565b90600052602060002090601f016020900481019282613c575760008555613ca5565b82601f10613c685780548555613ca5565b82800160010185558215613ca557600052602060002091601f016020900482015b82811115613ca4578254825591600101919060010190613c89565b5b509050613cb29190613d20565b5090565b5b80821115613d1c57600080820160006101000a81549073ffffffffffffffffffffffffffffffffffffffff02191690556001820160009055600282016000613cff9190613d3d565b6003820160006101000a81549060ff021916905550600401613cb7565b5090565b5b80821115613d39576000816000905550600101613d21565b5090565b508054613d4990615335565b6000825580601f10613d5b5750613d7a565b601f016020900490600052602060002090810190613d799190613d20565b5b50565b6000604051905090565b600080fd5b600080fd5b6000819050919050565b613da481613d91565b8114613daf57600080fd5b50565b600081359050613dc181613d9b565b92915050565b600060208284031215613ddd57613ddc613d87565b5b6000613deb84828501613db2565b91505092915050565b600073ffffffffffffffffffffffffffffffffffffffff82169050919050565b6000613e1f82613df4565b9050919050565b613e2f81613e14565b82525050565b613e3e81613d91565b82525050565b60008115159050919050565b613e5981613e44565b82525050565b6000819050919050565b613e7281613e5f565b82525050565b600060e082019050613e8d600083018a613e26565b613e9a6020830189613e35565b613ea76040830188613e50565b613eb46060830187613e50565b613ec16080830186613e50565b613ece60a0830185613e69565b613edb60c0830184613e69565b98975050505050505050565b60007fffffffff0000000000000000000000000000000000000000000000000000000082169050919050565b613f1c81613ee7565b8114613f2757600080fd5b50565b600081359050613f3981613f13565b92915050565b600060208284031215613f5557613f54613d87565b5b6000613f6384828501613f2a565b91505092915050565b6000602082019050613f816000830184613e50565b92915050565b600063ffffffff82169050919050565b613fa081613f87565b82525050565b6000602082019050613fbb6000830184613f97565b92915050565b613fca81613e14565b8114613fd557600080fd5b50565b600081359050613fe781613fc1565b92915050565b600080fd5b600080fd5b6000601f19601f8301169050919050565b7f4e487b7100000000000000000000000000000000000000000000000000000000600052604160045260246000fd5b61404082613ff7565b810181811067ffffffffffffffff8211171561405f5761405e614008565b5b80604052505050565b6000614072613d7d565b905061407e8282614037565b919050565b600067ffffffffffffffff82111561409e5761409d614008565b5b6140a782613ff7565b9050602081019050919050565b82818337600083830152505050565b60006140d66140d184614083565b614068565b9050828152602081018484840111156140f2576140f1613ff2565b5b6140fd8482856140b4565b509392505050565b600082601f83011261411a57614119613fed565b5b813561412a8482602086016140c3565b91505092915050565b60008060006060848603121561414c5761414b613d87565b5b600061415a86828701613db2565b935050602061416b86828701613fd8565b925050604084013567ffffffffffffffff81111561418c5761418b613d8c565b5b61419886828701614105565b9150509250925092565b6141ab81613e5f565b81146141b657600080fd5b50565b6000813590506141c8816141a2565b92915050565b6000602082840312156141e4576141e3613d87565b5b60006141f2848285016141b9565b91505092915050565b60006020820190506142106000830184613e69565b92915050565b61421f81613e14565b82525050565b61422e81613d91565b82525050565b61423d81613e44565b82525050565b61424c81613e5f565b82525050565b60e0820160008201516142686000850182614216565b50602082015161427b6020850182614225565b50604082015161428e6040850182614234565b5060608201516142a16060850182614234565b5060808201516142b46080850182614234565b5060a08201516142c760a0850182614243565b5060c08201516142da60c0850182614243565b50505050565b600060e0820190506142f56000830184614252565b92915050565b60006020820190506143106000830184613e35565b92915050565b6000806040838503121561432d5761432c613d87565b5b600061433b85828601613db2565b925050602061434c85828601613fd8565b9150509250929050565b6000819050919050565b600061437b61437661437184613df4565b614356565b613df4565b9050919050565b600061438d82614360565b9050919050565b600061439f82614382565b9050919050565b6143af81614394565b82525050565b60006020820190506143ca60008301846143a6565b92915050565b600080fd5b6143de81613e44565b81146143e957600080fd5b50565b6000813590506143fb816143d5565b92915050565b600060e08284031215614417576144166143d0565b5b61442160e0614068565b9050600061443184828501613fd8565b600083015250602061444584828501613db2565b6020830152506040614459848285016143ec565b604083015250606061446d848285016143ec565b6060830152506080614481848285016143ec565b60808301525060a0614495848285016141b9565b60a08301525060c06144a9848285016141b9565b60c08301525092915050565b60008061010083850312156144cd576144cc613d87565b5b60006144db85828601614401565b92505060e06144ec85828601613db2565b9150509250929050565b60a08201600082015161450c6000850182614243565b50602082015161451f6020850182614234565b5060408201516145326040850182614234565b5060608201516145456060850182614216565b5060808201516145586080850182614225565b50505050565b600060a08201905061457360008301846144f6565b92915050565b60008060006060848603121561459257614591613d87565b5b60006145a086828701613fd8565b93505060206145b186828701613fd8565b92505060406145c286828701613fd8565b9150509250925092565b600080604083850312156145e3576145e2613d87565b5b60006145f185828601613db2565b9250506020614602858286016141b9565b9150509250929050565b600081519050919050565b600082825260208201905092915050565b60005b8381101561464657808201518184015260208101905061462b565b83811115614655576000848401525b50505050565b60006146668261460c565b6146708185614617565b9350614680818560208601614628565b61468981613ff7565b840191505092915050565b60006080820190506146a96000830187613e26565b6146b66020830186613e69565b81810360408301526146c8818561465b565b90506146d76060830184613e50565b95945050505050565b60006146eb82614382565b9050919050565b6146fb816146e0565b82525050565b600060208201905061471660008301846146f2565b92915050565b600081519050919050565b600082825260208201905092915050565b6000819050602082019050919050565b600082825260208201905092915050565b60006147648261460c565b61476e8185614748565b935061477e818560208601614628565b61478781613ff7565b840191505092915050565b60006080830160008301516147aa6000860182614216565b5060208301516147bd6020860182614243565b50604083015184820360408601526147d58282614759565b91505060608301516147ea6060860182614234565b508091505092915050565b60006148018383614792565b905092915050565b6000602082019050919050565b60006148218261471c565b61482b8185614727565b93508360208202850161483d85614738565b8060005b85811015614879578484038952815161485a85826147f5565b945061486583614809565b925060208a01995050600181019050614841565b50829750879550505050505092915050565b600060208201905081810360008301526148a58184614816565b905092915050565b600080604083850312156148c4576148c3613d87565b5b60006148d285828601613fd8565b92505060206148e3858286016141b9565b9150509250929050565b600067ffffffffffffffff82111561490857614907614008565b5b61491182613ff7565b9050602081019050919050565b600061493161492c846148ed565b614068565b90508281526020810184848401111561494d5761494c613ff2565b5b6149588482856140b4565b509392505050565b600082601f83011261497557614974613fed565b5b813561498584826020860161491e565b91505092915050565b600080600080608085870312156149a8576149a7613d87565b5b60006149b687828801613db2565b94505060206149c787828801613db2565b93505060406149d8878288016143ec565b925050606085013567ffffffffffffffff8111156149f9576149f8613d8c565b5b614a0587828801614960565b91505092959194509250565b7f70686f6e65207265636f7264206e6f7420666f756e6400000000000000000000600082015250565b6000614a47601683614617565b9150614a5282614a11565b602082019050919050565b60006020820190508181036000830152614a7681614a3a565b9050919050565b7f6e6f7420616c6c6f77656420746f20657865637574652066756e6374696f6e00600082015250565b6000614ab3601f83614617565b9150614abe82614a7d565b602082019050919050565b60006020820190508181036000830152614ae281614aa6565b9050919050565b7f416363657373436f6e74726f6c3a2063616e206f6e6c792072656e6f756e636560008201527f20726f6c657320666f722073656c660000000000000000000000000000000000602082015250565b6000614b45602f83614617565b9150614b5082614ae9565b604082019050919050565b60006020820190508181036000830152614b7481614b38565b9050919050565b600081519050614b8a816141a2565b92915050565b600081519050614b9f816143d5565b92915050565b600081519050614bb481613fc1565b92915050565b600081519050614bc981613d9b565b92915050565b600060a08284031215614be557614be46143d0565b5b614bef60a0614068565b90506000614bff84828501614b7b565b6000830152506020614c1384828501614b90565b6020830152506040614c2784828501614b90565b6040830152506060614c3b84828501614ba5565b6060830152506080614c4f84828501614bba565b60808301525092915050565b600060a08284031215614c7157614c70613d87565b5b6000614c7f84828501614bcf565b91505092915050565b7f63616c6c6572206973206e6f7420617574686f72697365640000000000000000600082015250565b6000614cbe601883614617565b9150614cc982614c88565b602082019050919050565b60006020820190508181036000830152614ced81614cb1565b9050919050565b7f70686f6e65207265636f72642068617320657870697265642c20706c6561736560008201527f2072656e65770000000000000000000000000000000000000000000000000000602082015250565b6000614d50602683614617565b9150614d5b82614cf4565b604082019050919050565b60006020820190508181036000830152614d7f81614d43565b9050919050565b7f63616e6e6f7420736574206f776e657220746f20746865207a65726f2061646460008201527f7265737300000000000000000000000000000000000000000000000000000000602082015250565b6000614de2602483614617565b9150614ded82614d86565b604082019050919050565b60006020820190508181036000830152614e1181614dd5565b9050919050565b7f63616e6e6f7420736574206f776e657220746f2074686520726567697374727960008201527f2061646472657373000000000000000000000000000000000000000000000000602082015250565b6000614e74602883614617565b9150614e7f82614e18565b604082019050919050565b60006020820190508181036000830152614ea381614e67565b9050919050565b7f70686f6e6520657870697279207265636f7264206e6f7420666f756e64000000600082015250565b6000614ee0601d83614617565b9150614eeb82614eaa565b602082019050919050565b60006020820190508181036000830152614f0f81614ed3565b9050919050565b7f696e73756666696369656e742062616c616e6365000000000000000000000000600082015250565b6000614f4c601483614617565b9150614f5782614f16565b602082019050919050565b60006020820190508181036000830152614f7b81614f3f565b9050919050565b7f6f6e6c7920616e206578697374696e672070686f6e65207265636f726420636160008201527f6e2062652072656e657765640000000000000000000000000000000000000000602082015250565b6000614fde602c83614617565b9150614fe982614f82565b604082019050919050565b6000602082019050818103600083015261500d81614fd1565b9050919050565b7f6f6e6c7920612070686f6e65207265636f72642063757272656e746c7920696e60008201527f20677261636520706572696f642063616e2062652072656e6577656400000000602082015250565b6000615070603c83614617565b915061507b82615014565b604082019050919050565b6000602082019050818103600083015261509f81615063565b9050919050565b7f4e487b7100000000000000000000000000000000000000000000000000000000600052601160045260246000fd5b60006150e082613e5f565b91506150eb83613e5f565b9250827fffffffffffffffffffffffffffffffffffffffffffffffffffffffffffffffff038211156151205761511f6150a6565b5b828201905092915050565b600081905092915050565b50565b600061514660008361512b565b915061515182615136565b600082019050919050565b600061516782615139565b9150819050919050565b7f5472616e73666572206661696c65642e00000000000000000000000000000000600082015250565b60006151a7601083614617565b91506151b282615171565b602082019050919050565b600060208201905081810360008301526151d68161519a565b9050919050565b60006151e882613e5f565b91506151f383613e5f565b925082821015615206576152056150a6565b5b828203905092915050565b7f496e697469616c697a61626c653a20636f6e747261637420697320616c72656160008201527f647920696e697469616c697a6564000000000000000000000000000000000000602082015250565b600061526d602e83614617565b915061527882615211565b604082019050919050565b6000602082019050818103600083015261529c81615260565b9050919050565b6000819050919050565b600060ff82169050919050565b60006152d56152d06152cb846152a3565b614356565b6152ad565b9050919050565b6152e5816152ba565b82525050565b600060208201905061530060008301846152dc565b92915050565b7f4e487b7100000000000000000000000000000000000000000000000000000000600052602260045260246000fd5b6000600282049050600182168061534d57607f821691505b6020821081141561536157615360615306565b5b50919050565b7f726563697069656e7420616464726573732063616e6e6f74206265207a65726f60008201527f2061646472657373000000000000000000000000000000000000000000000000602082015250565b60006153c3602883614617565b91506153ce82615367565b604082019050919050565b600060208201905081810360008301526153f2816153b6565b9050919050565b7f616d6f756e74206d7573742062652067726561746572207468616e207a65726f600082015250565b600061542f602083614617565b915061543a826153f9565b602082019050919050565b6000602082019050818103600083015261545e81615422565b9050919050565b600081519050919050565b600082825260208201905092915050565b600061548c82615465565b6154968185615470565b93506154a6818560208601614628565b6154af81613ff7565b840191505092915050565b60006080820190506154cf6000830187613e35565b6154dc6020830186613e35565b6154e96040830185613e50565b81810360608301526154fb8184615481565b905095945050505050565b7f6f6e6c7920616e206578697374696e672070686f6e65207265636f726420636160008201527f6e20626520636c61696d65640000000000000000000000000000000000000000602082015250565b6000615562602c83614617565b915061556d82615506565b604082019050919050565b6000602082019050818103600083015261559181615555565b9050919050565b7f6f6e6c7920616e20657870697265642070686f6e65207265636f72642063616e60008201527f20626520636c61696d6564000000000000000000000000000000000000000000602082015250565b60006155f4602b83614617565b91506155ff82615598565b604082019050919050565b60006020820190508181036000830152615623816155e7565b9050919050565b7f70686f6e65207265636f7264206973206e6f7420766572696669656400000000600082015250565b6000615660601c83614617565b915061566b8261562a565b602082019050919050565b6000602082019050818103600083015261568f81615653565b9050919050565b7f63616c6c6572206973206e6f74207665726966696564206f776e657200000000600082015250565b60006156cc601c83614617565b91506156d782615696565b602082019050919050565b600060208201905081810360008301526156fb816156bf565b9050919050565b600081905092915050565b60006157188261460c565b6157228185615702565b9350615732818560208601614628565b80840191505092915050565b600061574a828461570d565b915081905092915050565b7f70686f6e65207265636f726420686173206265656e206372656174656420616e60008201527f64206c696e6b656420746f20612077616c6c657420616c726561647900000000602082015250565b60006157b1603c83614617565b91506157bc82615755565b604082019050919050565b600060208201905081810360008301526157e0816157a4565b9050919050565b7f4e487b7100000000000000000000000000000000000000000000000000000000600052601260045260246000fd5b600061582182613e5f565b915061582c83613e5f565b92508261583c5761583b6157e7565b5b828204905092915050565b7f496e697469616c697a61626c653a20636f6e7472616374206973206e6f74206960008201527f6e697469616c697a696e67000000000000000000000000000000000000000000602082015250565b60006158a3602b83614617565b91506158ae82615847565b604082019050919050565b600060208201905081810360008301526158d281615896565b9050919050565b6000819050919050565b6158ec816158d9565b81146158f757600080fd5b50565b600081519050615909816158e3565b92915050565b60006020828403121561592557615924613d87565b5b6000615933848285016158fa565b91505092915050565b7f416363657373436f6e74726f6c3a206163636f756e7420000000000000000000600082015250565b6000615972601783615702565b915061597d8261593c565b601782019050919050565b7f206973206d697373696e6720726f6c6520000000000000000000000000000000600082015250565b60006159be601183615702565b91506159c982615988565b601182019050919050565b60006159df82615965565b91506159eb828561570d565b91506159f6826159b1565b9150615a02828461570d565b91508190509392505050565b60006020820190508181036000830152615a28818461465b565b905092915050565b6000615a3b82613e5f565b9150615a4683613e5f565b9250817fffffffffffffffffffffffffffffffffffffffffffffffffffffffffffffffff0483118215151615615a7f57615a7e6150a6565b5b828202905092915050565b7f4e487b7100000000000000000000000000000000000000000000000000000000600052603260045260246000fd5b6000615ac482613e5f565b91506000821415615ad857615ad76150a6565b5b600182039050919050565b7f537472696e67733a20686578206c656e67746820696e73756666696369656e74600082015250565b6000615b19602083614617565b9150615b2482615ae3565b602082019050919050565b60006020820190508181036000830152615b4881615b0c565b905091905056fea2646970667358221220b69ff010eda16d7161bb539cb1685db60fca459f18f0aed68f326c8ddb0f801764736f6c63430008090033",
  "linkReferences": {},
  "deployedLinkReferences": {}
}