{
  "_format": "hh-sol-artifact-1",
  "contractName": "PNSRegistry",
  "sourceName": "contracts/PNSRegistry.sol",
  "abi": [
    {
      "anonymous": false,
      "inputs": [
        {
          "indexed": true,
          "internalType": "address",
          "name": "updater",
          "type": "address"
        },
        {
          "indexed": false,
          "internalType": "uint256",
          "name": "expiryTime",
          "type": "uint256"
        }
      ],
      "name": "ExpiryTimeUpdated",
      "type": "event"
    },
    {
      "anonymous": false,
      "inputs": [
        {
          "indexed": true,
          "internalType": "address",
          "name": "updater",
          "type": "address"
        },
        {
          "indexed": false,
          "internalType": "uint256",
          "name": "gracePeriod",
          "type": "uint256"
        }
      ],
      "name": "GracePeriodUpdated",
      "type": "event"
    },
    {
      "anonymous": false,
      "inputs": [
        {
          "indexed": false,
          "internalType": "uint8",
          "name": "version",
          "type": "uint8"
        }
      ],
      "name": "Initialized",
      "type": "event"
    },
    {
      "anonymous": false,
      "inputs": [
        {
          "indexed": true,
          "internalType": "bytes32",
          "name": "phoneHash",
          "type": "bytes32"
        },
        {
          "indexed": true,
          "internalType": "address",
          "name": "wallet",
          "type": "address"
        }
      ],
      "name": "PhoneLinked",
      "type": "event"
    },
    {
      "anonymous": false,
      "inputs": [
        {
          "indexed": true,
          "internalType": "bytes32",
          "name": "phoneHash",
          "type": "bytes32"
        },
        {
          "indexed": false,
          "internalType": "bool",
          "name": "status",
          "type": "bool"
        }
      ],
      "name": "PhoneNumberVerified",
      "type": "event"
    },
    {
      "anonymous": false,
      "inputs": [
        {
          "indexed": true,
          "internalType": "bytes32",
          "name": "phoneHash",
          "type": "bytes32"
        },
        {
          "indexed": true,
          "internalType": "address",
          "name": "wallet",
          "type": "address"
        },
        {
          "indexed": true,
          "internalType": "address",
          "name": "owner",
          "type": "address"
        }
      ],
      "name": "PhoneRecordCreated",
      "type": "event"
    },
    {
      "anonymous": false,
      "inputs": [
        {
          "indexed": true,
          "internalType": "bytes32",
          "name": "phoneHash",
          "type": "bytes32"
        }
      ],
      "name": "PhoneRecordEnteredGracePeriod",
      "type": "event"
    },
    {
      "anonymous": false,
      "inputs": [
        {
          "indexed": true,
          "internalType": "bytes32",
          "name": "phoneHash",
          "type": "bytes32"
        }
      ],
      "name": "PhoneRecordExpired",
      "type": "event"
    },
    {
      "anonymous": false,
      "inputs": [
        {
          "indexed": true,
          "internalType": "bytes32",
          "name": "phoneHash",
          "type": "bytes32"
        }
      ],
      "name": "PhoneRecordRenewed",
      "type": "event"
    },
    {
      "anonymous": false,
      "inputs": [
        {
          "indexed": true,
          "internalType": "bytes32",
          "name": "role",
          "type": "bytes32"
        },
        {
          "indexed": true,
          "internalType": "bytes32",
          "name": "previousAdminRole",
          "type": "bytes32"
        },
        {
          "indexed": true,
          "internalType": "bytes32",
          "name": "newAdminRole",
          "type": "bytes32"
        }
      ],
      "name": "RoleAdminChanged",
      "type": "event"
    },
    {
      "anonymous": false,
      "inputs": [
        {
          "indexed": true,
          "internalType": "bytes32",
          "name": "role",
          "type": "bytes32"
        },
        {
          "indexed": true,
          "internalType": "address",
          "name": "account",
          "type": "address"
        },
        {
          "indexed": true,
          "internalType": "address",
          "name": "sender",
          "type": "address"
        }
      ],
      "name": "RoleGranted",
      "type": "event"
    },
    {
      "anonymous": false,
      "inputs": [
        {
          "indexed": true,
          "internalType": "bytes32",
          "name": "role",
          "type": "bytes32"
        },
        {
          "indexed": true,
          "internalType": "address",
          "name": "account",
          "type": "address"
        },
        {
          "indexed": true,
          "internalType": "address",
          "name": "sender",
          "type": "address"
        }
      ],
      "name": "RoleRevoked",
      "type": "event"
    },
    {
      "anonymous": false,
      "inputs": [
        {
          "indexed": true,
          "internalType": "bytes32",
          "name": "phoneHash",
          "type": "bytes32"
        },
        {
          "indexed": true,
          "internalType": "address",
          "name": "owner",
          "type": "address"
        }
      ],
      "name": "Transfer",
      "type": "event"
    },
    {
      "anonymous": false,
      "inputs": [
        {
          "indexed": true,
          "internalType": "address",
          "name": "_recipient",
          "type": "address"
        },
        {
          "indexed": false,
          "internalType": "uint256",
          "name": "amount",
          "type": "uint256"
        }
      ],
      "name": "WithdrawalSuccessful",
      "type": "event"
    },
    {
      "stateMutability": "payable",
      "type": "fallback"
    },
    {
      "inputs": [],
      "name": "DEFAULT_ADMIN_ROLE",
      "outputs": [
        {
          "internalType": "bytes32",
          "name": "",
          "type": "bytes32"
        }
      ],
      "stateMutability": "view",
      "type": "function"
    },
    {
      "inputs": [],
      "name": "MAINTAINER_ROLE",
      "outputs": [
        {
          "internalType": "bytes32",
          "name": "",
          "type": "bytes32"
        }
      ],
      "stateMutability": "view",
      "type": "function"
    },
    {
      "inputs": [],
      "name": "VERIFIER_ROLE",
      "outputs": [
        {
          "internalType": "bytes32",
          "name": "",
          "type": "bytes32"
        }
      ],
      "stateMutability": "view",
      "type": "function"
    },
    {
      "inputs": [
        {
          "internalType": "bytes32",
          "name": "phoneHash",
          "type": "bytes32"
        },
        {
          "internalType": "address",
          "name": "resolver",
          "type": "address"
        },
        {
          "internalType": "string",
          "name": "label",
          "type": "string"
        }
      ],
      "name": "claimExpiredPhoneRecord",
      "outputs": [],
      "stateMutability": "payable",
      "type": "function"
    },
    {
      "inputs": [],
      "name": "expiryTime",
      "outputs": [
        {
          "internalType": "uint256",
          "name": "",
          "type": "uint256"
        }
      ],
      "stateMutability": "view",
      "type": "function"
    },
    {
      "inputs": [
        {
          "internalType": "uint256",
          "name": "usdAmount",
          "type": "uint256"
        }
      ],
      "name": "getAmountinETH",
      "outputs": [
        {
          "internalType": "uint256",
          "name": "",
          "type": "uint256"
        }
      ],
      "stateMutability": "view",
      "type": "function"
    },
    {
      "inputs": [],
      "name": "getExpiryTime",
      "outputs": [
        {
          "internalType": "uint256",
          "name": "",
          "type": "uint256"
        }
      ],
      "stateMutability": "view",
      "type": "function"
    },
    {
      "inputs": [],
      "name": "getGracePeriod",
      "outputs": [
        {
          "internalType": "uint256",
          "name": "",
          "type": "uint256"
        }
      ],
      "stateMutability": "view",
      "type": "function"
    },
    {
      "inputs": [
        {
          "internalType": "bytes32",
          "name": "phoneHash",
          "type": "bytes32"
        }
      ],
      "name": "getRecord",
      "outputs": [
        {
          "components": [
            {
              "internalType": "address",
              "name": "owner",
              "type": "address"
            },
            {
              "internalType": "bytes32",
              "name": "phoneHash",
              "type": "bytes32"
            },
            {
              "internalType": "bool",
              "name": "exists",
              "type": "bool"
            },
            {
              "internalType": "bool",
              "name": "isInGracePeriod",
              "type": "bool"
            },
            {
              "internalType": "bool",
              "name": "isExpired",
              "type": "bool"
            },
            {
              "internalType": "uint256",
              "name": "expirationTime",
              "type": "uint256"
            },
            {
              "internalType": "uint256",
              "name": "createdAt",
              "type": "uint256"
            }
          ],
          "internalType": "struct IPNSSchema.PhoneRecord",
          "name": "",
          "type": "tuple"
        }
      ],
      "stateMutability": "view",
      "type": "function"
    },
    {
      "inputs": [
        {
          "internalType": "bytes32",
          "name": "phoneHash",
          "type": "bytes32"
        }
      ],
      "name": "getRecordMapping",
      "outputs": [
        {
          "components": [
            {
              "internalType": "address",
              "name": "owner",
              "type": "address"
            },
            {
              "internalType": "bytes32",
              "name": "phoneHash",
              "type": "bytes32"
            },
            {
              "internalType": "bool",
              "name": "exists",
              "type": "bool"
            },
            {
              "internalType": "bool",
              "name": "isInGracePeriod",
              "type": "bool"
            },
            {
              "internalType": "bool",
              "name": "isExpired",
              "type": "bool"
            },
            {
              "internalType": "uint256",
              "name": "expirationTime",
              "type": "uint256"
            },
            {
              "internalType": "uint256",
              "name": "createdAt",
              "type": "uint256"
            }
          ],
          "internalType": "struct IPNSSchema.PhoneRecord",
          "name": "",
          "type": "tuple"
        }
      ],
      "stateMutability": "view",
      "type": "function"
    },
    {
      "inputs": [
        {
          "internalType": "bytes32",
          "name": "phoneHash",
          "type": "bytes32"
        }
      ],
      "name": "getResolver",
      "outputs": [
        {
          "components": [
            {
              "internalType": "address",
              "name": "wallet",
              "type": "address"
            },
            {
              "internalType": "uint256",
              "name": "createdAt",
              "type": "uint256"
            },
            {
              "internalType": "string",
              "name": "label",
              "type": "string"
            },
            {
              "internalType": "bool",
              "name": "exists",
              "type": "bool"
            }
          ],
          "internalType": "struct IPNSSchema.ResolverRecord[]",
          "name": "",
          "type": "tuple[]"
        }
      ],
      "stateMutability": "view",
      "type": "function"
    },
    {
      "inputs": [
        {
          "internalType": "bytes32",
          "name": "role",
          "type": "bytes32"
        }
      ],
      "name": "getRoleAdmin",
      "outputs": [
        {
          "internalType": "bytes32",
          "name": "",
          "type": "bytes32"
        }
      ],
      "stateMutability": "view",
      "type": "function"
    },
    {
      "inputs": [
        {
          "internalType": "bytes32",
          "name": "phoneHash",
          "type": "bytes32"
        }
      ],
      "name": "getVerificationRecord",
      "outputs": [
        {
          "components": [
            {
              "internalType": "uint256",
              "name": "verifiedAt",
              "type": "uint256"
            },
            {
              "internalType": "bool",
              "name": "isVerified",
              "type": "bool"
            },
            {
              "internalType": "bool",
              "name": "exists",
              "type": "bool"
            },
            {
              "internalType": "address",
              "name": "owner",
              "type": "address"
            },
            {
              "internalType": "bytes32",
              "name": "phoneHash",
              "type": "bytes32"
            }
          ],
          "internalType": "struct IPNSSchema.VerificationRecord",
          "name": "",
          "type": "tuple"
        }
      ],
      "stateMutability": "view",
      "type": "function"
    },
    {
      "inputs": [],
      "name": "getVersion",
      "outputs": [
        {
          "internalType": "uint32",
          "name": "",
          "type": "uint32"
        }
      ],
      "stateMutability": "view",
      "type": "function"
    },
    {
      "inputs": [],
      "name": "gracePeriod",
      "outputs": [
        {
          "internalType": "uint256",
          "name": "",
          "type": "uint256"
        }
      ],
      "stateMutability": "view",
      "type": "function"
    },
    {
      "inputs": [
        {
          "internalType": "bytes32",
          "name": "role",
          "type": "bytes32"
        },
        {
          "internalType": "address",
          "name": "account",
          "type": "address"
        }
      ],
      "name": "grantRole",
      "outputs": [],
      "stateMutability": "nonpayable",
      "type": "function"
    },
    {
      "inputs": [
        {
          "internalType": "bytes32",
          "name": "role",
          "type": "bytes32"
        },
        {
          "internalType": "address",
          "name": "account",
          "type": "address"
        }
      ],
      "name": "hasRole",
      "outputs": [
        {
          "internalType": "bool",
          "name": "",
          "type": "bool"
        }
      ],
      "stateMutability": "view",
      "type": "function"
    },
    {
      "inputs": [
        {
          "internalType": "address",
          "name": "_pnsGuardianContract",
          "type": "address"
        },
        {
          "internalType": "address",
          "name": "_priceAggregator",
          "type": "address"
        },
        {
          "internalType": "address",
          "name": "_verifier",
          "type": "address"
        }
      ],
      "name": "initialize",
      "outputs": [],
      "stateMutability": "nonpayable",
      "type": "function"
    },
    {
      "inputs": [
        {
          "internalType": "bytes32",
          "name": "phoneHash",
          "type": "bytes32"
        }
      ],
      "name": "isRecordVerified",
      "outputs": [
        {
          "internalType": "bool",
          "name": "",
          "type": "bool"
        }
      ],
      "stateMutability": "view",
      "type": "function"
    },
    {
      "inputs": [
        {
          "internalType": "bytes32",
          "name": "phoneHash",
          "type": "bytes32"
        },
        {
          "internalType": "address",
          "name": "resolver",
          "type": "address"
        },
        {
          "internalType": "string",
          "name": "label",
          "type": "string"
        }
      ],
      "name": "linkPhoneToWallet",
      "outputs": [],
      "stateMutability": "nonpayable",
      "type": "function"
    },
    {
      "inputs": [],
      "name": "pnsGuardianContract",
      "outputs": [
        {
          "internalType": "contract IPNSGuardian",
          "name": "",
          "type": "address"
        }
      ],
      "stateMutability": "view",
      "type": "function"
    },
    {
      "inputs": [],
      "name": "priceFeedContract",
      "outputs": [
        {
          "internalType": "contract DummyPriceOracle",
          "name": "",
          "type": "address"
        }
      ],
      "stateMutability": "view",
      "type": "function"
    },
    {
      "inputs": [
        {
          "internalType": "bytes32",
          "name": "phoneHash",
          "type": "bytes32"
        }
      ],
      "name": "recordExists",
      "outputs": [
        {
          "internalType": "bool",
          "name": "",
          "type": "bool"
        }
      ],
      "stateMutability": "view",
      "type": "function"
    },
    {
      "inputs": [
        {
          "internalType": "bytes32",
          "name": "",
          "type": "bytes32"
        }
      ],
      "name": "records",
      "outputs": [
        {
          "internalType": "address",
          "name": "owner",
          "type": "address"
        },
        {
          "internalType": "bytes32",
          "name": "phoneHash",
          "type": "bytes32"
        },
        {
          "internalType": "bool",
          "name": "exists",
          "type": "bool"
        },
        {
          "internalType": "bool",
          "name": "isInGracePeriod",
          "type": "bool"
        },
        {
          "internalType": "bool",
          "name": "isExpired",
          "type": "bool"
        },
        {
          "internalType": "uint256",
          "name": "expirationTime",
          "type": "uint256"
        },
        {
          "internalType": "uint256",
          "name": "createdAt",
          "type": "uint256"
        }
      ],
      "stateMutability": "view",
      "type": "function"
    },
    {
      "inputs": [],
      "name": "registryCost",
      "outputs": [
        {
          "internalType": "uint256",
          "name": "",
          "type": "uint256"
        }
      ],
      "stateMutability": "view",
      "type": "function"
    },
    {
      "inputs": [],
      "name": "registryRenewCost",
      "outputs": [
        {
          "internalType": "uint256",
          "name": "",
          "type": "uint256"
        }
      ],
      "stateMutability": "view",
      "type": "function"
    },
    {
      "inputs": [
        {
          "internalType": "bytes32",
          "name": "phoneHash",
          "type": "bytes32"
        }
      ],
      "name": "renew",
      "outputs": [],
      "stateMutability": "payable",
      "type": "function"
    },
    {
      "inputs": [
        {
          "internalType": "bytes32",
          "name": "role",
          "type": "bytes32"
        },
        {
          "internalType": "address",
          "name": "account",
          "type": "address"
        }
      ],
      "name": "renounceRole",
      "outputs": [],
      "stateMutability": "nonpayable",
      "type": "function"
    },
    {
      "inputs": [
        {
          "internalType": "bytes32",
          "name": "",
          "type": "bytes32"
        },
        {
          "internalType": "uint256",
          "name": "",
          "type": "uint256"
        }
      ],
      "name": "resolverRecords",
      "outputs": [
        {
          "internalType": "address",
          "name": "wallet",
          "type": "address"
        },
        {
          "internalType": "uint256",
          "name": "createdAt",
          "type": "uint256"
        },
        {
          "internalType": "string",
          "name": "label",
          "type": "string"
        },
        {
          "internalType": "bool",
          "name": "exists",
          "type": "bool"
        }
      ],
      "stateMutability": "view",
      "type": "function"
    },
    {
      "inputs": [
        {
          "internalType": "bytes32",
          "name": "role",
          "type": "bytes32"
        },
        {
          "internalType": "address",
          "name": "account",
          "type": "address"
        }
      ],
      "name": "revokeRole",
      "outputs": [],
      "stateMutability": "nonpayable",
      "type": "function"
    },
    {
      "inputs": [
        {
          "internalType": "uint256",
          "name": "time",
          "type": "uint256"
        }
      ],
      "name": "setExpiryTime",
      "outputs": [],
      "stateMutability": "nonpayable",
      "type": "function"
    },
    {
      "inputs": [
        {
          "internalType": "uint256",
          "name": "time",
          "type": "uint256"
        }
      ],
      "name": "setGracePeriod",
      "outputs": [],
      "stateMutability": "nonpayable",
      "type": "function"
    },
    {
      "inputs": [
        {
          "internalType": "bytes32",
          "name": "phoneHash",
          "type": "bytes32"
        },
        {
          "internalType": "address",
          "name": "owner",
          "type": "address"
        }
      ],
      "name": "setOwner",
      "outputs": [],
      "stateMutability": "nonpayable",
      "type": "function"
    },
    {
      "inputs": [
        {
          "internalType": "bytes32",
          "name": "phoneHash",
          "type": "bytes32"
        },
        {
          "internalType": "address",
          "name": "resolver",
          "type": "address"
        },
        {
          "internalType": "string",
          "name": "label",
          "type": "string"
        }
      ],
      "name": "setPhoneRecord",
      "outputs": [],
      "stateMutability": "payable",
      "type": "function"
    },
    {
      "inputs": [
        {
          "components": [
            {
              "internalType": "address",
              "name": "owner",
              "type": "address"
            },
            {
              "internalType": "bytes32",
              "name": "phoneHash",
              "type": "bytes32"
            },
            {
              "internalType": "bool",
              "name": "exists",
              "type": "bool"
            },
            {
              "internalType": "bool",
              "name": "isInGracePeriod",
              "type": "bool"
            },
            {
              "internalType": "bool",
              "name": "isExpired",
              "type": "bool"
            },
            {
              "internalType": "uint256",
              "name": "expirationTime",
              "type": "uint256"
            },
            {
              "internalType": "uint256",
              "name": "createdAt",
              "type": "uint256"
            }
          ],
          "internalType": "struct IPNSSchema.PhoneRecord",
          "name": "recordData",
          "type": "tuple"
        },
        {
          "internalType": "bytes32",
          "name": "phoneHash",
          "type": "bytes32"
        }
      ],
      "name": "setPhoneRecordMapping",
      "outputs": [],
      "stateMutability": "nonpayable",
      "type": "function"
    },
    {
      "inputs": [
        {
          "internalType": "uint256",
          "name": "_registryCost",
          "type": "uint256"
        }
      ],
      "name": "setRegistryCost",
      "outputs": [],
      "stateMutability": "nonpayable",
      "type": "function"
    },
    {
      "inputs": [
        {
          "internalType": "uint256",
          "name": "_registryRenewCost",
          "type": "uint256"
        }
      ],
      "name": "setRegistryRenewCost",
      "outputs": [],
      "stateMutability": "nonpayable",
      "type": "function"
    },
    {
      "inputs": [
        {
          "internalType": "bytes4",
          "name": "interfaceId",
          "type": "bytes4"
        }
      ],
      "name": "supportsInterface",
      "outputs": [
        {
          "internalType": "bool",
          "name": "",
          "type": "bool"
        }
      ],
      "stateMutability": "view",
      "type": "function"
    },
    {
      "inputs": [
        {
          "internalType": "bytes32",
          "name": "phoneHash",
          "type": "bytes32"
        },
        {
          "internalType": "bytes32",
          "name": "hashedMessage",
          "type": "bytes32"
        },
        {
          "internalType": "bool",
          "name": "status",
          "type": "bool"
        },
        {
          "internalType": "bytes",
          "name": "signature",
          "type": "bytes"
        }
      ],
      "name": "verifyPhone",
      "outputs": [],
      "stateMutability": "nonpayable",
      "type": "function"
    },
    {
      "inputs": [
        {
          "internalType": "address",
          "name": "_recipient",
          "type": "address"
        },
        {
          "internalType": "uint256",
          "name": "amount",
          "type": "uint256"
        }
      ],
      "name": "withdraw",
      "outputs": [],
      "stateMutability": "nonpayable",
      "type": "function"
    },
    {
      "stateMutability": "payable",
      "type": "receive"
    }
  ],
  "bytecode": "0x608060405234801561001057600080fd5b50615cfb80620000216000396000f3fe60806040526004361061023f5760003560e01c80638fafbb501161012e578063d547741f116100ab578063f3fef3a31161006f578063f3fef3a3146108c4578063f56d7f11146108ed578063f79fe53814610916578063f874225414610953578063fd3069d61461097e57610246565b8063d547741f146107df578063dbd1838814610808578063e7705db614610833578063ea6ec3de1461085e578063f2f659601461089b57610246565b8063a217fddf116100f2578063a217fddf146106f7578063ab8a2df114610722578063c0c53b8b1461074b578063c4c8391814610774578063d26f3887146107b457610246565b80638fafbb50146105fc57806391d148541461062757806393210be41461066457806399bc0aea146106a1578063a06db7dc146106cc57610246565b806330fc4cff116101bc5780635b0fc9c3116101805780635b0fc9c3146105285780636474eeab1461055157806375e39fab1461057a5780638108c044146105a35780638e32762d146105e057610246565b806330fc4cff1461044357806336568abe1461046c578063488dbfad146104955780634b6f6710146104d25780634cb00045146104fd57610246565b8063213681cd11610203578063213681cd1461034c578063248a9ca31461038957806325cb5bc0146103c65780632c1d0cfe146103f15780632f2ff15d1461041a57610246565b806301e647251461024857806301ffc9a71461028b5780630d8e6e2c146102c8578063130b7498146102f35780631779fa181461030f57610246565b3661024657005b005b34801561025457600080fd5b5061026f600480360381019061026a9190613ed1565b61099a565b6040516102829796959493929190613f82565b60405180910390f35b34801561029757600080fd5b506102b260048036038101906102ad9190614049565b610a23565b6040516102bf9190614076565b60405180910390f35b3480156102d457600080fd5b506102dd610a9d565b6040516102ea91906140b0565b60405180910390f35b61030d6004803603810190610308919061423d565b610aa6565b005b34801561031b57600080fd5b50610336600480360381019061033191906142d8565b610ab7565b6040516103439190614305565b60405180910390f35b34801561035857600080fd5b50610373600480360381019061036e9190613ed1565b610ac9565b60405161038091906143ea565b60405180910390f35b34801561039557600080fd5b506103b060048036038101906103ab9190613ed1565b610c83565b6040516103bd9190614405565b60405180910390f35b3480156103d257600080fd5b506103db610ca3565b6040516103e89190614305565b60405180910390f35b3480156103fd57600080fd5b50610418600480360381019061041391906142d8565b610cad565b005b34801561042657600080fd5b50610441600480360381019061043c9190614420565b610d34565b005b34801561044f57600080fd5b5061046a600480360381019061046591906142d8565b610d55565b005b34801561047857600080fd5b50610493600480360381019061048e9190614420565b610e2a565b005b3480156104a157600080fd5b506104bc60048036038101906104b79190613ed1565b610ead565b6040516104c99190614076565b60405180910390f35b3480156104de57600080fd5b506104e7610f6a565b6040516104f491906144bf565b60405180910390f35b34801561050957600080fd5b50610512610f90565b60405161051f9190614305565b60405180910390f35b34801561053457600080fd5b5061054f600480360381019061054a9190614420565b610f96565b005b34801561055d57600080fd5b506105786004803603810190610573919061423d565b611306565b005b34801561058657600080fd5b506105a1600480360381019061059c91906145bf565b61154e565b005b3480156105af57600080fd5b506105ca60048036038101906105c59190613ed1565b61155c565b6040516105d79190614668565b60405180910390f35b6105fa60048036038101906105f59190613ed1565b61161c565b005b34801561060857600080fd5b50610611611b1b565b60405161061e9190614305565b60405180910390f35b34801561063357600080fd5b5061064e60048036038101906106499190614420565b611b21565b60405161065b9190614076565b60405180910390f35b34801561067057600080fd5b5061068b60048036038101906106869190613ed1565b611b8c565b60405161069891906143ea565b60405180910390f35b3480156106ad57600080fd5b506106b6611c7e565b6040516106c39190614305565b60405180910390f35b3480156106d857600080fd5b506106e1611c84565b6040516106ee9190614305565b60405180910390f35b34801561070357600080fd5b5061070c611c8a565b6040516107199190614405565b60405180910390f35b34801561072e57600080fd5b50610749600480360381019061074491906142d8565b611c91565b005b34801561075757600080fd5b50610772600480360381019061076d9190614683565b611d18565b005b34801561078057600080fd5b5061079b600480360381019061079691906146d6565b611f27565b6040516107ab949392919061479e565b60405180910390f35b3480156107c057600080fd5b506107c9612029565b6040516107d6919061480b565b60405180910390f35b3480156107eb57600080fd5b5061080660048036038101906108019190614420565b61204f565b005b34801561081457600080fd5b5061081d612070565b60405161082a9190614305565b60405180910390f35b34801561083f57600080fd5b5061084861207a565b6040516108559190614405565b60405180910390f35b34801561086a57600080fd5b5061088560048036038101906108809190613ed1565b61209e565b6040516108929190614995565b60405180910390f35b3480156108a757600080fd5b506108c260048036038101906108bd91906142d8565b61221d565b005b3480156108d057600080fd5b506108eb60048036038101906108e691906149b7565b6122f2565b005b3480156108f957600080fd5b50610914600480360381019061090f9190614a98565b612521565b005b34801561092257600080fd5b5061093d60048036038101906109389190613ed1565b6125f2565b60405161094a9190614076565b60405180910390f35b34801561095f57600080fd5b5061096861261f565b6040516109759190614405565b60405180910390f35b6109986004803603810190610993919061423d565b612643565b005b609e6020528060005260406000206000915090508060000160009054906101000a900473ffffffffffffffffffffffffffffffffffffffff16908060010154908060020160009054906101000a900460ff16908060020160019054906101000a900460ff16908060020160029054906101000a900460ff16908060030154908060040154905087565b60007f7965db0b000000000000000000000000000000000000000000000000000000007bffffffffffffffffffffffffffffffffffffffffffffffffffffffff1916827bffffffffffffffffffffffffffffffffffffffffffffffffffffffff19161480610a965750610a9582612816565b5b9050919050565b60006001905090565b610ab283338484612880565b505050565b6000610ac282613089565b9050919050565b610ad1613be1565b6000609e60008481526020019081526020016000206040518060e00160405290816000820160009054906101000a900473ffffffffffffffffffffffffffffffffffffffff1673ffffffffffffffffffffffffffffffffffffffff1673ffffffffffffffffffffffffffffffffffffffff168152602001600182015481526020016002820160009054906101000a900460ff161515151581526020016002820160019054906101000a900460ff161515151581526020016002820160029054906101000a900460ff161515151581526020016003820154815260200160048201548152505090508060400151610bfc576040517f08c379a0000000000000000000000000000000000000000000000000000000008152600401610bf390614b67565b60405180910390fd5b6000610c07846130b0565b90506000610c148561312d565b90506040518060e00160405280846000015173ffffffffffffffffffffffffffffffffffffffff16815260200184602001518152602001846040015115158152602001831515815260200182151581526020018460a0015181526020018460c001518152509350505050919050565b600060656000838152602001908152602001600020600101549050919050565b6000609754905090565b610cd77f339759585899103d2ace64958e37e18ccb0504652c81d4a1b8aa80fe2126ab9533611b21565b80610ceb5750610cea6000801b33611b21565b5b610d2a576040517f08c379a0000000000000000000000000000000000000000000000000000000008152600401610d2190614bd3565b60405180910390fd5b8060998190555050565b610d3d82610c83565b610d46816131b7565b610d5083836131cb565b505050565b610d7f7f339759585899103d2ace64958e37e18ccb0504652c81d4a1b8aa80fe2126ab9533611b21565b80610d935750610d926000801b33611b21565b5b610dd2576040517f08c379a0000000000000000000000000000000000000000000000000000000008152600401610dc990614bd3565b60405180910390fd5b806097819055503373ffffffffffffffffffffffffffffffffffffffff167f9d85dc994c891eea203f3a6cc89736299931ac5325fd63b233339228970b99de82604051610e1f9190614305565b60405180910390a250565b610e326132ac565b73ffffffffffffffffffffffffffffffffffffffff168173ffffffffffffffffffffffffffffffffffffffff1614610e9f576040517f08c379a0000000000000000000000000000000000000000000000000000000008152600401610e9690614c65565b60405180910390fd5b610ea982826132b4565b5050565b600080609c60009054906101000a900473ffffffffffffffffffffffffffffffffffffffff1673ffffffffffffffffffffffffffffffffffffffff16638108c044846040518263ffffffff1660e01b8152600401610f0b9190614405565b60a06040518083038186803b158015610f2357600080fd5b505afa158015610f37573d6000803e3d6000fd5b505050506040513d601f19601f82011682018060405250810190610f5b9190614d65565b90508060200151915050919050565b609b60009054906101000a900473ffffffffffffffffffffffffffffffffffffffff1681565b60995481565b816000609e600083815260200190815260200160002060000160009054906101000a900473ffffffffffffffffffffffffffffffffffffffff1690503373ffffffffffffffffffffffffffffffffffffffff168173ffffffffffffffffffffffffffffffffffffffff1614611040576040517f08c379a000000000000000000000000000000000000000000000000000000000815260040161103790614dde565b60405180910390fd5b83600061104c826130b0565b905080156110b7576000609e6000848152602001908152602001600020905060018160020160016101000a81548160ff021916908315150217905550827f03eb7537ed8ac874f6194d32434e70b659fe7409c8f693aa03e65cf50f2626e360405160405180910390a2505b8560006110c38261312d565b90508015611184576000609e6000848152602001908152602001600020905060008160020160016101000a81548160ff02191690831515021790555060018160020160026101000a81548160ff021916908315150217905550827fb679d0c767903a8ba184d02a07326d998e08611b6dc812b61142ef5d9374a30960405160405180910390a26040517f08c379a000000000000000000000000000000000000000000000000000000000815260040161117b90614e70565b60405180910390fd5b600073ffffffffffffffffffffffffffffffffffffffff168773ffffffffffffffffffffffffffffffffffffffff1614156111f4576040517f08c379a00000000000000000000000000000000000000000000000000000000081526004016111eb90614f02565b60405180910390fd5b3073ffffffffffffffffffffffffffffffffffffffff168773ffffffffffffffffffffffffffffffffffffffff161415611263576040517f08c379a000000000000000000000000000000000000000000000000000000000815260040161125a90614f94565b60405180910390fd5b86609e60008a815260200190815260200160002060000160006101000a81548173ffffffffffffffffffffffffffffffffffffffff021916908373ffffffffffffffffffffffffffffffffffffffff1602179055508673ffffffffffffffffffffffffffffffffffffffff16887fd4735d920b0f87494915f556dd9b54c8f309026070caea5c737245152564d26660405160405180910390a35050505050505050565b826000609e600083815260200190815260200160002060000160009054906101000a900473ffffffffffffffffffffffffffffffffffffffff1690503373ffffffffffffffffffffffffffffffffffffffff168173ffffffffffffffffffffffffffffffffffffffff16146113b0576040517f08c379a00000000000000000000000000000000000000000000000000000000081526004016113a790614dde565b60405180910390fd5b8460006113bc826130b0565b90508015611427576000609e6000848152602001908152602001600020905060018160020160016101000a81548160ff021916908315150217905550827f03eb7537ed8ac874f6194d32434e70b659fe7409c8f693aa03e65cf50f2626e360405160405180910390a2505b8660006114338261312d565b905080156114f4576000609e6000848152602001908152602001600020905060008160020160016101000a81548160ff02191690831515021790555060018160020160026101000a81548160ff021916908315150217905550827fb679d0c767903a8ba184d02a07326d998e08611b6dc812b61142ef5d9374a30960405160405180910390a26040517f08c379a00000000000000000000000000000000000000000000000000000000081526004016114eb90614e70565b60405180910390fd5b6114ff898989613396565b8773ffffffffffffffffffffffffffffffffffffffff16897f2fba9db5fd4b5b44ef46ec5170dba710636b886bf0dbf8c98ffb5e76e2e5516860405160405180910390a3505050505050505050565b61155882826136e9565b5050565b611564613c3d565b6000609c60009054906101000a900473ffffffffffffffffffffffffffffffffffffffff1673ffffffffffffffffffffffffffffffffffffffff16638108c044846040518263ffffffff1660e01b81526004016115c19190614405565b60a06040518083038186803b1580156115d957600080fd5b505afa1580156115ed573d6000803e3d6000fd5b505050506040513d601f19601f820116820180604052508101906116119190614d65565b905080915050919050565b806000609e600083815260200190815260200160002060000160009054906101000a900473ffffffffffffffffffffffffffffffffffffffff1690503373ffffffffffffffffffffffffffffffffffffffff168173ffffffffffffffffffffffffffffffffffffffff16146116c6576040517f08c379a00000000000000000000000000000000000000000000000000000000081526004016116bd90614dde565b60405180910390fd5b826000609e60008381526020019081526020016000206003015411611720576040517f08c379a000000000000000000000000000000000000000000000000000000000815260040161171790615000565b60405180910390fd5b61172b609a54613089565b34101561176d576040517f08c379a00000000000000000000000000000000000000000000000000000000081526004016117649061506c565b60405180910390fd5b6000609e60008681526020019081526020016000209050600061178f866130b0565b9050600061179c8761312d565b90508260020160009054906101000a900460ff166117ef576040517f08c379a00000000000000000000000000000000000000000000000000000000081526004016117e6906150fe565b60405180910390fd5b8180156117fa575080155b611839576040517f08c379a000000000000000000000000000000000000000000000000000000000815260040161183090615190565b60405180910390fd5b60008360020160016101000a81548160ff02191690831515021790555060008360020160026101000a81548160ff0219169083151502179055506097544261188191906151df565b836003018190555060003073ffffffffffffffffffffffffffffffffffffffff16346040516118af90615266565b60006040518083038185875af1925050503d80600081146118ec576040519150601f19603f3d011682016040523d82523d6000602084013e6118f1565b606091505b5050905080611935576040517f08c379a000000000000000000000000000000000000000000000000000000000815260040161192c906152c7565b60405180910390fd5b611940609a54613089565b341115611a0a5760003373ffffffffffffffffffffffffffffffffffffffff1661196b609a54613089565b3461197691906152e7565b60405161198290615266565b60006040518083038185875af1925050503d80600081146119bf576040519150601f19603f3d011682016040523d82523d6000602084013e6119c4565b606091505b5050905080611a08576040517f08c379a00000000000000000000000000000000000000000000000000000000081526004016119ff906152c7565b60405180910390fd5b505b611ae4846040518060e00160405290816000820160009054906101000a900473ffffffffffffffffffffffffffffffffffffffff1673ffffffffffffffffffffffffffffffffffffffff1673ffffffffffffffffffffffffffffffffffffffff168152602001600182015481526020016002820160009054906101000a900460ff161515151581526020016002820160019054906101000a900460ff161515151581526020016002820160029054906101000a900460ff1615151515815260200160038201548152602001600482015481525050896136e9565b877ffc18d31e0e0e3243c37bd753fa25eaeea8fae3f39c29c8e2b70b249d81d96abd60405160405180910390a25050505050505050565b609a5481565b60006065600084815260200190815260200160002060000160008373ffffffffffffffffffffffffffffffffffffffff1673ffffffffffffffffffffffffffffffffffffffff16815260200190815260200160002060009054906101000a900460ff16905092915050565b611b94613be1565b609e60008381526020019081526020016000206040518060e00160405290816000820160009054906101000a900473ffffffffffffffffffffffffffffffffffffffff1673ffffffffffffffffffffffffffffffffffffffff1673ffffffffffffffffffffffffffffffffffffffff168152602001600182015481526020016002820160009054906101000a900460ff161515151581526020016002820160019054906101000a900460ff161515151581526020016002820160029054906101000a900460ff16151515158152602001600382015481526020016004820154815250509050919050565b60975481565b60985481565b6000801b81565b611cbb7f339759585899103d2ace64958e37e18ccb0504652c81d4a1b8aa80fe2126ab9533611b21565b80611ccf5750611cce6000801b33611b21565b5b611d0e576040517f08c379a0000000000000000000000000000000000000000000000000000000008152600401611d0590614bd3565b60405180910390fd5b80609a8190555050565b60008060019054906101000a900460ff16159050808015611d495750600160008054906101000a900460ff1660ff16105b80611d765750611d58306137d3565b158015611d755750600160008054906101000a900460ff1660ff16145b5b611db5576040517f08c379a0000000000000000000000000000000000000000000000000000000008152600401611dac9061538d565b60405180910390fd5b60016000806101000a81548160ff021916908360ff1602179055508015611df2576001600060016101000a81548160ff0219169083151502179055505b611dfa6137f6565b6301e13380609781905550624f1a0060988190555082609b60006101000a81548173ffffffffffffffffffffffffffffffffffffffff021916908373ffffffffffffffffffffffffffffffffffffffff16021790555083609c60006101000a81548173ffffffffffffffffffffffffffffffffffffffff021916908373ffffffffffffffffffffffffffffffffffffffff160217905550611e9e6000801b336131cb565b611ec87f0ce23c3e399818cfee81a7ab0880f714e53d7672b08df0fa62f2843416e1ea09836131cb565b8015611f215760008060016101000a81548160ff0219169083151502179055507f7f26b83ff96e1f2b6a682f133852f6798a09c465da95921460cefb38474024986001604051611f1891906153f5565b60405180910390a15b50505050565b609f6020528160005260406000208181548110611f4357600080fd5b9060005260206000209060040201600091509150508060000160009054906101000a900473ffffffffffffffffffffffffffffffffffffffff1690806001015490806002018054611f939061543f565b80601f0160208091040260200160405190810160405280929190818152602001828054611fbf9061543f565b801561200c5780601f10611fe15761010080835404028352916020019161200c565b820191906000526020600020905b815481529060010190602001808311611fef57829003601f168201915b5050505050908060030160009054906101000a900460ff16905084565b609c60009054906101000a900473ffffffffffffffffffffffffffffffffffffffff1681565b61205882610c83565b612061816131b7565b61206b83836132b4565b505050565b6000609854905090565b7f0ce23c3e399818cfee81a7ab0880f714e53d7672b08df0fa62f2843416e1ea0981565b6060609f6000838152602001908152602001600020805480602002602001604051908101604052809291908181526020016000905b8282101561221257838290600052602060002090600402016040518060800160405290816000820160009054906101000a900473ffffffffffffffffffffffffffffffffffffffff1673ffffffffffffffffffffffffffffffffffffffff1673ffffffffffffffffffffffffffffffffffffffff168152602001600182015481526020016002820180546121669061543f565b80601f01602080910402602001604051908101604052809291908181526020018280546121929061543f565b80156121df5780601f106121b4576101008083540402835291602001916121df565b820191906000526020600020905b8154815290600101906020018083116121c257829003601f168201915b505050505081526020016003820160009054906101000a900460ff161515151581525050815260200190600101906120d3565b505050509050919050565b6122477f339759585899103d2ace64958e37e18ccb0504652c81d4a1b8aa80fe2126ab9533611b21565b8061225b575061225a6000801b33611b21565b5b61229a576040517f08c379a000000000000000000000000000000000000000000000000000000000815260040161229190614bd3565b60405180910390fd5b806098819055503373ffffffffffffffffffffffffffffffffffffffff167f2f09768ccdcd5c73d8da21f3662ec67c7a580278f579e047e118a9ef5865e50d826040516122e79190614305565b60405180910390a250565b61231c7f339759585899103d2ace64958e37e18ccb0504652c81d4a1b8aa80fe2126ab9533611b21565b80612330575061232f6000801b33611b21565b5b61236f576040517f08c379a000000000000000000000000000000000000000000000000000000000815260040161236690614bd3565b60405180910390fd5b600073ffffffffffffffffffffffffffffffffffffffff168273ffffffffffffffffffffffffffffffffffffffff1614156123df576040517f08c379a00000000000000000000000000000000000000000000000000000000081526004016123d6906154e3565b60405180910390fd5b60008111612422576040517f08c379a00000000000000000000000000000000000000000000000000000000081526004016124199061554f565b60405180910390fd5b60008273ffffffffffffffffffffffffffffffffffffffff168260405161244890615266565b60006040518083038185875af1925050503d8060008114612485576040519150601f19603f3d011682016040523d82523d6000602084013e61248a565b606091505b50509050806124ce576040517f08c379a00000000000000000000000000000000000000000000000000000000081526004016124c5906152c7565b60405180910390fd5b8273ffffffffffffffffffffffffffffffffffffffff167ff4f855c53853d0277a9ff688aadbfe4cb795ca1d5af41704b62cb539f89939ec836040516125149190614305565b60405180910390a2505050565b609c60009054906101000a900473ffffffffffffffffffffffffffffffffffffffff1673ffffffffffffffffffffffffffffffffffffffff1663c256cdae858585856040518563ffffffff1660e01b815260040161258294939291906155c4565b600060405180830381600087803b15801561259c57600080fd5b505af11580156125b0573d6000803e3d6000fd5b50505050837faa50ef67735e4ca4cb60e096249d4aa16358cd00b9767cc0985da8b72565c73c836040516125e49190614076565b60405180910390a250505050565b6000609e600083815260200190815260200160002060020160009054906101000a900460ff169050919050565b7f339759585899103d2ace64958e37e18ccb0504652c81d4a1b8aa80fe2126ab9581565b826000609e6000838152602001908152602001600020600301541161269d576040517f08c379a000000000000000000000000000000000000000000000000000000000815260040161269490615000565b60405180910390fd5b6000609e6000868152602001908152602001600020905060006126bf8661312d565b90508160020160009054906101000a900460ff16612712576040517f08c379a000000000000000000000000000000000000000000000000000000000815260040161270990615682565b60405180910390fd5b80612752576040517f08c379a000000000000000000000000000000000000000000000000000000000815260040161274990615714565b60405180910390fd5b609e6000878152602001908152602001600020600080820160006101000a81549073ffffffffffffffffffffffffffffffffffffffff021916905560018201600090556002820160006101000a81549060ff02191690556002820160016101000a81549060ff02191690556002820160026101000a81549060ff0219169055600382016000905560048201600090555050609f600087815260200190815260200160002060006128029190613c89565b61280e86338787612880565b505050505050565b60007f01ffc9a7000000000000000000000000000000000000000000000000000000007bffffffffffffffffffffffffffffffffffffffffffffffffffffffff1916827bffffffffffffffffffffffffffffffffffffffffffffffffffffffff1916149050919050565b836000609c60009054906101000a900473ffffffffffffffffffffffffffffffffffffffff1673ffffffffffffffffffffffffffffffffffffffff16638108c044836040518263ffffffff1660e01b81526004016128de9190614405565b60a06040518083038186803b1580156128f657600080fd5b505afa15801561290a573d6000803e3d6000fd5b505050506040513d601f19601f8201168201806040525081019061292e9190614d65565b90508060200151612974576040517f08c379a000000000000000000000000000000000000000000000000000000000815260040161296b90615780565b60405180910390fd5b856000609c60009054906101000a900473ffffffffffffffffffffffffffffffffffffffff1673ffffffffffffffffffffffffffffffffffffffff16638108c044836040518263ffffffff1660e01b81526004016129d29190614405565b60a06040518083038186803b1580156129ea57600080fd5b505afa1580156129fe573d6000803e3d6000fd5b505050506040513d601f19601f82011682018060405250810190612a229190614d65565b90503373ffffffffffffffffffffffffffffffffffffffff16816060015173ffffffffffffffffffffffffffffffffffffffff1614612a96576040517f08c379a0000000000000000000000000000000000000000000000000000000008152600401612a8d906157ec565b60405180910390fd5b612aa1609954613089565b341015612ae3576040517f08c379a0000000000000000000000000000000000000000000000000000000008152600401612ada9061506c565b60405180910390fd5b6000609e60008a815260200190815260200160002090506000609d87604051612b0c9190615848565b908152602001604051809103902090508060030160009054906101000a900460ff1615612b6e576040517f08c379a0000000000000000000000000000000000000000000000000000000008152600401612b65906158d1565b60405180910390fd5b8060030160009054906101000a900460ff16612d045786816002019080519060200190612b9c929190613cad565b50428160010181905550878160000160006101000a81548173ffffffffffffffffffffffffffffffffffffffff021916908373ffffffffffffffffffffffffffffffffffffffff16021790555060018160030160006101000a81548160ff021916908315150217905550609f60008b81526020019081526020016000208190806001815401808255809150506001900390600052602060002090600402016000909190919091506000820160009054906101000a900473ffffffffffffffffffffffffffffffffffffffff168160000160006101000a81548173ffffffffffffffffffffffffffffffffffffffff021916908373ffffffffffffffffffffffffffffffffffffffff160217905550600182015481600101556002820181600201908054612cc89061543f565b612cd3929190613d33565b506003820160009054906101000a900460ff168160030160006101000a81548160ff02191690831515021790555050505b898260010181905550888260000160006101000a81548173ffffffffffffffffffffffffffffffffffffffff021916908373ffffffffffffffffffffffffffffffffffffffff16021790555042826004018190555060018260020160006101000a81548160ff02191690831515021790555060008260020160016101000a81548160ff02191690831515021790555060008260020160026101000a81548160ff02191690831515021790555060975442612dbe91906151df565b8260030181905550612ea0826040518060e00160405290816000820160009054906101000a900473ffffffffffffffffffffffffffffffffffffffff1673ffffffffffffffffffffffffffffffffffffffff1673ffffffffffffffffffffffffffffffffffffffff168152602001600182015481526020016002820160009054906101000a900460ff161515151581526020016002820160019054906101000a900460ff161515151581526020016002820160029054906101000a900460ff16151515158152602001600382015481526020016004820154815250508b6136e9565b60003073ffffffffffffffffffffffffffffffffffffffff1634604051612ec690615266565b60006040518083038185875af1925050503d8060008114612f03576040519150601f19603f3d011682016040523d82523d6000602084013e612f08565b606091505b5050905080612f4c576040517f08c379a0000000000000000000000000000000000000000000000000000000008152600401612f43906152c7565b60405180910390fd5b612f57609954613089565b3411156130215760003373ffffffffffffffffffffffffffffffffffffffff16612f82609954613089565b34612f8d91906152e7565b604051612f9990615266565b60006040518083038185875af1925050503d8060008114612fd6576040519150601f19603f3d011682016040523d82523d6000602084013e612fdb565b606091505b505090508061301f576040517f08c379a0000000000000000000000000000000000000000000000000000000008152600401613016906152c7565b60405180910390fd5b505b8973ffffffffffffffffffffffffffffffffffffffff168973ffffffffffffffffffffffffffffffffffffffff168c7f09e63897cecdb290ea9107823707eaff21c470ccde4e25697135681b86873bc560405160405180910390a45050505050505050505050565b600080613094613847565b9050600081846130a49190615920565b90508092505050919050565b6000816000609e6000838152602001908152602001600020600301541161310c576040517f08c379a000000000000000000000000000000000000000000000000000000000815260040161310390615000565b60405180910390fd5b609e6000848152602001908152602001600020600301544211915050919050565b6000816000609e60008381526020019081526020016000206003015411613189576040517f08c379a000000000000000000000000000000000000000000000000000000000815260040161318090615000565b60405180910390fd5b609854609e6000858152602001908152602001600020600301546131ad91906151df565b4211915050919050565b6131c8816131c36132ac565b6138f3565b50565b6131d58282611b21565b6132a85760016065600084815260200190815260200160002060000160008373ffffffffffffffffffffffffffffffffffffffff1673ffffffffffffffffffffffffffffffffffffffff16815260200190815260200160002060006101000a81548160ff02191690831515021790555061324d6132ac565b73ffffffffffffffffffffffffffffffffffffffff168173ffffffffffffffffffffffffffffffffffffffff16837f2f8788117e7eff1d82e926ec794901d17c78024a50270940304540a733656f0d60405160405180910390a45b5050565b600033905090565b6132be8282611b21565b156133925760006065600084815260200190815260200160002060000160008373ffffffffffffffffffffffffffffffffffffffff1673ffffffffffffffffffffffffffffffffffffffff16815260200190815260200160002060006101000a81548160ff0219169083151502179055506133376132ac565b73ffffffffffffffffffffffffffffffffffffffff168173ffffffffffffffffffffffffffffffffffffffff16837ff6391f5c32d9c69d2a47ea670b442974b53935d1edc7fd64eb21e047a839171b60405160405180910390a45b5050565b6000609d826040516133a89190615848565b908152602001604051809103902090506000609e600086815260200190815260200160002090508060020160009054906101000a900460ff16613420576040517f08c379a000000000000000000000000000000000000000000000000000000000815260040161341790614b67565b60405180910390fd5b8160030160009054906101000a900460ff1615613472576040517f08c379a00000000000000000000000000000000000000000000000000000000081526004016134699061599d565b60405180910390fd5b8160030160009054906101000a900460ff1661360857828260020190805190602001906134a0929190613cad565b50428260010181905550838260000160006101000a81548173ffffffffffffffffffffffffffffffffffffffff021916908373ffffffffffffffffffffffffffffffffffffffff16021790555060018260030160006101000a81548160ff021916908315150217905550609f60008681526020019081526020016000208290806001815401808255809150506001900390600052602060002090600402016000909190919091506000820160009054906101000a900473ffffffffffffffffffffffffffffffffffffffff168160000160006101000a81548173ffffffffffffffffffffffffffffffffffffffff021916908373ffffffffffffffffffffffffffffffffffffffff1602179055506001820154816001015560028201816002019080546135cc9061543f565b6135d7929190613d33565b506003820160009054906101000a900460ff168160030160006101000a81548160ff02191690831515021790555050505b6136e2816040518060e00160405290816000820160009054906101000a900473ffffffffffffffffffffffffffffffffffffffff1673ffffffffffffffffffffffffffffffffffffffff1673ffffffffffffffffffffffffffffffffffffffff168152602001600182015481526020016002820160009054906101000a900460ff161515151581526020016002820160019054906101000a900460ff161515151581526020016002820160029054906101000a900460ff1615151515815260200160038201548152602001600482015481525050866136e9565b5050505050565b6000609e600083815260200190815260200160002090508260c00151816004018190555082600001518160000160006101000a81548173ffffffffffffffffffffffffffffffffffffffff021916908373ffffffffffffffffffffffffffffffffffffffff16021790555082604001518160020160006101000a81548160ff0219169083151502179055508260200151816001018190555082606001518160020160016101000a81548160ff02191690831515021790555082608001518160020160026101000a81548160ff0219169083151502179055508260a001518160030181905550505050565b6000808273ffffffffffffffffffffffffffffffffffffffff163b119050919050565b600060019054906101000a900460ff16613845576040517f08c379a000000000000000000000000000000000000000000000000000000000815260040161383c90615a2f565b60405180910390fd5b565b600080609b60009054906101000a900473ffffffffffffffffffffffffffffffffffffffff1673ffffffffffffffffffffffffffffffffffffffff1663feaf968c6040518163ffffffff1660e01b815260040160206040518083038186803b1580156138b257600080fd5b505afa1580156138c6573d6000803e3d6000fd5b505050506040513d601f19601f820116820180604052508101906138ea9190615a85565b90508091505090565b6138fd8282611b21565b6139745761390a81613978565b6139188360001c60206139a5565b604051602001613929929190615b4a565b6040516020818303038152906040526040517f08c379a000000000000000000000000000000000000000000000000000000000815260040161396b9190615b84565b60405180910390fd5b5050565b606061399e8273ffffffffffffffffffffffffffffffffffffffff16601460ff166139a5565b9050919050565b6060600060028360026139b89190615ba6565b6139c291906151df565b67ffffffffffffffff8111156139db576139da614112565b5b6040519080825280601f01601f191660200182016040528015613a0d5781602001600182028036833780820191505090505b5090507f300000000000000000000000000000000000000000000000000000000000000081600081518110613a4557613a44615c00565b5b60200101907effffffffffffffffffffffffffffffffffffffffffffffffffffffffffffff1916908160001a9053507f780000000000000000000000000000000000000000000000000000000000000081600181518110613aa957613aa8615c00565b5b60200101907effffffffffffffffffffffffffffffffffffffffffffffffffffffffffffff1916908160001a90535060006001846002613ae99190615ba6565b613af391906151df565b90505b6001811115613b93577f3031323334353637383961626364656600000000000000000000000000000000600f861660108110613b3557613b34615c00565b5b1a60f81b828281518110613b4c57613b4b615c00565b5b60200101907effffffffffffffffffffffffffffffffffffffffffffffffffffffffffffff1916908160001a905350600485901c945080613b8c90615c2f565b9050613af6565b5060008414613bd7576040517f08c379a0000000000000000000000000000000000000000000000000000000008152600401613bce90615ca5565b60405180910390fd5b8091505092915050565b6040518060e00160405280600073ffffffffffffffffffffffffffffffffffffffff1681526020016000801916815260200160001515815260200160001515815260200160001515815260200160008152602001600081525090565b6040518060a0016040528060008152602001600015158152602001600015158152602001600073ffffffffffffffffffffffffffffffffffffffff168152602001600080191681525090565b5080546000825560040290600052602060002090810190613caa9190613dc0565b50565b828054613cb99061543f565b90600052602060002090601f016020900481019282613cdb5760008555613d22565b82601f10613cf457805160ff1916838001178555613d22565b82800160010185558215613d22579182015b82811115613d21578251825591602001919060010190613d06565b5b509050613d2f9190613e2a565b5090565b828054613d3f9061543f565b90600052602060002090601f016020900481019282613d615760008555613daf565b82601f10613d725780548555613daf565b82800160010185558215613daf57600052602060002091601f016020900482015b82811115613dae578254825591600101919060010190613d93565b5b509050613dbc9190613e2a565b5090565b5b80821115613e2657600080820160006101000a81549073ffffffffffffffffffffffffffffffffffffffff02191690556001820160009055600282016000613e099190613e47565b6003820160006101000a81549060ff021916905550600401613dc1565b5090565b5b80821115613e43576000816000905550600101613e2b565b5090565b508054613e539061543f565b6000825580601f10613e655750613e84565b601f016020900490600052602060002090810190613e839190613e2a565b5b50565b6000604051905090565b600080fd5b600080fd5b6000819050919050565b613eae81613e9b565b8114613eb957600080fd5b50565b600081359050613ecb81613ea5565b92915050565b600060208284031215613ee757613ee6613e91565b5b6000613ef584828501613ebc565b91505092915050565b600073ffffffffffffffffffffffffffffffffffffffff82169050919050565b6000613f2982613efe565b9050919050565b613f3981613f1e565b82525050565b613f4881613e9b565b82525050565b60008115159050919050565b613f6381613f4e565b82525050565b6000819050919050565b613f7c81613f69565b82525050565b600060e082019050613f97600083018a613f30565b613fa46020830189613f3f565b613fb16040830188613f5a565b613fbe6060830187613f5a565b613fcb6080830186613f5a565b613fd860a0830185613f73565b613fe560c0830184613f73565b98975050505050505050565b60007fffffffff0000000000000000000000000000000000000000000000000000000082169050919050565b61402681613ff1565b811461403157600080fd5b50565b6000813590506140438161401d565b92915050565b60006020828403121561405f5761405e613e91565b5b600061406d84828501614034565b91505092915050565b600060208201905061408b6000830184613f5a565b92915050565b600063ffffffff82169050919050565b6140aa81614091565b82525050565b60006020820190506140c560008301846140a1565b92915050565b6140d481613f1e565b81146140df57600080fd5b50565b6000813590506140f1816140cb565b92915050565b600080fd5b600080fd5b6000601f19601f8301169050919050565b7f4e487b7100000000000000000000000000000000000000000000000000000000600052604160045260246000fd5b61414a82614101565b810181811067ffffffffffffffff8211171561416957614168614112565b5b80604052505050565b600061417c613e87565b90506141888282614141565b919050565b600067ffffffffffffffff8211156141a8576141a7614112565b5b6141b182614101565b9050602081019050919050565b82818337600083830152505050565b60006141e06141db8461418d565b614172565b9050828152602081018484840111156141fc576141fb6140fc565b5b6142078482856141be565b509392505050565b600082601f830112614224576142236140f7565b5b81356142348482602086016141cd565b91505092915050565b60008060006060848603121561425657614255613e91565b5b600061426486828701613ebc565b9350506020614275868287016140e2565b925050604084013567ffffffffffffffff81111561429657614295613e96565b5b6142a28682870161420f565b9150509250925092565b6142b581613f69565b81146142c057600080fd5b50565b6000813590506142d2816142ac565b92915050565b6000602082840312156142ee576142ed613e91565b5b60006142fc848285016142c3565b91505092915050565b600060208201905061431a6000830184613f73565b92915050565b61432981613f1e565b82525050565b61433881613e9b565b82525050565b61434781613f4e565b82525050565b61435681613f69565b82525050565b60e0820160008201516143726000850182614320565b506020820151614385602085018261432f565b506040820151614398604085018261433e565b5060608201516143ab606085018261433e565b5060808201516143be608085018261433e565b5060a08201516143d160a085018261434d565b5060c08201516143e460c085018261434d565b50505050565b600060e0820190506143ff600083018461435c565b92915050565b600060208201905061441a6000830184613f3f565b92915050565b6000806040838503121561443757614436613e91565b5b600061444585828601613ebc565b9250506020614456858286016140e2565b9150509250929050565b6000819050919050565b600061448561448061447b84613efe565b614460565b613efe565b9050919050565b60006144978261446a565b9050919050565b60006144a98261448c565b9050919050565b6144b98161449e565b82525050565b60006020820190506144d460008301846144b0565b92915050565b600080fd5b6144e881613f4e565b81146144f357600080fd5b50565b600081359050614505816144df565b92915050565b600060e08284031215614521576145206144da565b5b61452b60e0614172565b9050600061453b848285016140e2565b600083015250602061454f84828501613ebc565b6020830152506040614563848285016144f6565b6040830152506060614577848285016144f6565b606083015250608061458b848285016144f6565b60808301525060a061459f848285016142c3565b60a08301525060c06145b3848285016142c3565b60c08301525092915050565b60008061010083850312156145d7576145d6613e91565b5b60006145e58582860161450b565b92505060e06145f685828601613ebc565b9150509250929050565b60a082016000820151614616600085018261434d565b506020820151614629602085018261433e565b50604082015161463c604085018261433e565b50606082015161464f6060850182614320565b506080820151614662608085018261432f565b50505050565b600060a08201905061467d6000830184614600565b92915050565b60008060006060848603121561469c5761469b613e91565b5b60006146aa868287016140e2565b93505060206146bb868287016140e2565b92505060406146cc868287016140e2565b9150509250925092565b600080604083850312156146ed576146ec613e91565b5b60006146fb85828601613ebc565b925050602061470c858286016142c3565b9150509250929050565b600081519050919050565b600082825260208201905092915050565b60005b83811015614750578082015181840152602081019050614735565b8381111561475f576000848401525b50505050565b600061477082614716565b61477a8185614721565b935061478a818560208601614732565b61479381614101565b840191505092915050565b60006080820190506147b36000830187613f30565b6147c06020830186613f73565b81810360408301526147d28185614765565b90506147e16060830184613f5a565b95945050505050565b60006147f58261448c565b9050919050565b614805816147ea565b82525050565b600060208201905061482060008301846147fc565b92915050565b600081519050919050565b600082825260208201905092915050565b6000819050602082019050919050565b600082825260208201905092915050565b600061486e82614716565b6148788185614852565b9350614888818560208601614732565b61489181614101565b840191505092915050565b60006080830160008301516148b46000860182614320565b5060208301516148c7602086018261434d565b50604083015184820360408601526148df8282614863565b91505060608301516148f4606086018261433e565b508091505092915050565b600061490b838361489c565b905092915050565b6000602082019050919050565b600061492b82614826565b6149358185614831565b93508360208202850161494785614842565b8060005b85811015614983578484038952815161496485826148ff565b945061496f83614913565b925060208a0199505060018101905061494b565b50829750879550505050505092915050565b600060208201905081810360008301526149af8184614920565b905092915050565b600080604083850312156149ce576149cd613e91565b5b60006149dc858286016140e2565b92505060206149ed858286016142c3565b9150509250929050565b600067ffffffffffffffff821115614a1257614a11614112565b5b614a1b82614101565b9050602081019050919050565b6000614a3b614a36846149f7565b614172565b905082815260208101848484011115614a5757614a566140fc565b5b614a628482856141be565b509392505050565b600082601f830112614a7f57614a7e6140f7565b5b8135614a8f848260208601614a28565b91505092915050565b60008060008060808587031215614ab257614ab1613e91565b5b6000614ac087828801613ebc565b9450506020614ad187828801613ebc565b9350506040614ae2878288016144f6565b925050606085013567ffffffffffffffff811115614b0357614b02613e96565b5b614b0f87828801614a6a565b91505092959194509250565b7f70686f6e65207265636f7264206e6f7420666f756e6400000000000000000000600082015250565b6000614b51601683614721565b9150614b5c82614b1b565b602082019050919050565b60006020820190508181036000830152614b8081614b44565b9050919050565b7f6e6f7420616c6c6f77656420746f20657865637574652066756e6374696f6e00600082015250565b6000614bbd601f83614721565b9150614bc882614b87565b602082019050919050565b60006020820190508181036000830152614bec81614bb0565b9050919050565b7f416363657373436f6e74726f6c3a2063616e206f6e6c792072656e6f756e636560008201527f20726f6c657320666f722073656c660000000000000000000000000000000000602082015250565b6000614c4f602f83614721565b9150614c5a82614bf3565b604082019050919050565b60006020820190508181036000830152614c7e81614c42565b9050919050565b600081519050614c94816142ac565b92915050565b600081519050614ca9816144df565b92915050565b600081519050614cbe816140cb565b92915050565b600081519050614cd381613ea5565b92915050565b600060a08284031215614cef57614cee6144da565b5b614cf960a0614172565b90506000614d0984828501614c85565b6000830152506020614d1d84828501614c9a565b6020830152506040614d3184828501614c9a565b6040830152506060614d4584828501614caf565b6060830152506080614d5984828501614cc4565b60808301525092915050565b600060a08284031215614d7b57614d7a613e91565b5b6000614d8984828501614cd9565b91505092915050565b7f63616c6c6572206973206e6f7420617574686f72697365640000000000000000600082015250565b6000614dc8601883614721565b9150614dd382614d92565b602082019050919050565b60006020820190508181036000830152614df781614dbb565b9050919050565b7f70686f6e65207265636f72642068617320657870697265642c20706c6561736560008201527f2072656e65770000000000000000000000000000000000000000000000000000602082015250565b6000614e5a602683614721565b9150614e6582614dfe565b604082019050919050565b60006020820190508181036000830152614e8981614e4d565b9050919050565b7f63616e6e6f7420736574206f776e657220746f20746865207a65726f2061646460008201527f7265737300000000000000000000000000000000000000000000000000000000602082015250565b6000614eec602483614721565b9150614ef782614e90565b604082019050919050565b60006020820190508181036000830152614f1b81614edf565b9050919050565b7f63616e6e6f7420736574206f776e657220746f2074686520726567697374727960008201527f2061646472657373000000000000000000000000000000000000000000000000602082015250565b6000614f7e602883614721565b9150614f8982614f22565b604082019050919050565b60006020820190508181036000830152614fad81614f71565b9050919050565b7f70686f6e6520657870697279207265636f7264206e6f7420666f756e64000000600082015250565b6000614fea601d83614721565b9150614ff582614fb4565b602082019050919050565b6000602082019050818103600083015261501981614fdd565b9050919050565b7f696e73756666696369656e742062616c616e6365000000000000000000000000600082015250565b6000615056601483614721565b915061506182615020565b602082019050919050565b6000602082019050818103600083015261508581615049565b9050919050565b7f6f6e6c7920616e206578697374696e672070686f6e65207265636f726420636160008201527f6e2062652072656e657765640000000000000000000000000000000000000000602082015250565b60006150e8602c83614721565b91506150f38261508c565b604082019050919050565b60006020820190508181036000830152615117816150db565b9050919050565b7f6f6e6c7920612070686f6e65207265636f72642063757272656e746c7920696e60008201527f20677261636520706572696f642063616e2062652072656e6577656400000000602082015250565b600061517a603c83614721565b91506151858261511e565b604082019050919050565b600060208201905081810360008301526151a98161516d565b9050919050565b7f4e487b7100000000000000000000000000000000000000000000000000000000600052601160045260246000fd5b60006151ea82613f69565b91506151f583613f69565b9250827fffffffffffffffffffffffffffffffffffffffffffffffffffffffffffffffff0382111561522a576152296151b0565b5b828201905092915050565b600081905092915050565b50565b6000615250600083615235565b915061525b82615240565b600082019050919050565b600061527182615243565b9150819050919050565b7f5472616e73666572206661696c65642e00000000000000000000000000000000600082015250565b60006152b1601083614721565b91506152bc8261527b565b602082019050919050565b600060208201905081810360008301526152e0816152a4565b9050919050565b60006152f282613f69565b91506152fd83613f69565b9250828210156153105761530f6151b0565b5b828203905092915050565b7f496e697469616c697a61626c653a20636f6e747261637420697320616c72656160008201527f647920696e697469616c697a6564000000000000000000000000000000000000602082015250565b6000615377602e83614721565b91506153828261531b565b604082019050919050565b600060208201905081810360008301526153a68161536a565b9050919050565b6000819050919050565b600060ff82169050919050565b60006153df6153da6153d5846153ad565b614460565b6153b7565b9050919050565b6153ef816153c4565b82525050565b600060208201905061540a60008301846153e6565b92915050565b7f4e487b7100000000000000000000000000000000000000000000000000000000600052602260045260246000fd5b6000600282049050600182168061545757607f821691505b6020821081141561546b5761546a615410565b5b50919050565b7f726563697069656e7420616464726573732063616e6e6f74206265207a65726f60008201527f2061646472657373000000000000000000000000000000000000000000000000602082015250565b60006154cd602883614721565b91506154d882615471565b604082019050919050565b600060208201905081810360008301526154fc816154c0565b9050919050565b7f616d6f756e74206d7573742062652067726561746572207468616e207a65726f600082015250565b6000615539602083614721565b915061554482615503565b602082019050919050565b600060208201905081810360008301526155688161552c565b9050919050565b600081519050919050565b600082825260208201905092915050565b60006155968261556f565b6155a0818561557a565b93506155b0818560208601614732565b6155b981614101565b840191505092915050565b60006080820190506155d96000830187613f3f565b6155e66020830186613f3f565b6155f36040830185613f5a565b8181036060830152615605818461558b565b905095945050505050565b7f6f6e6c7920616e206578697374696e672070686f6e65207265636f726420636160008201527f6e20626520636c61696d65640000000000000000000000000000000000000000602082015250565b600061566c602c83614721565b915061567782615610565b604082019050919050565b6000602082019050818103600083015261569b8161565f565b9050919050565b7f6f6e6c7920616e20657870697265642070686f6e65207265636f72642063616e60008201527f20626520636c61696d6564000000000000000000000000000000000000000000602082015250565b60006156fe602b83614721565b9150615709826156a2565b604082019050919050565b6000602082019050818103600083015261572d816156f1565b9050919050565b7f70686f6e65207265636f7264206973206e6f7420766572696669656400000000600082015250565b600061576a601c83614721565b915061577582615734565b602082019050919050565b600060208201905081810360008301526157998161575d565b9050919050565b7f63616c6c6572206973206e6f74207665726966696564206f776e657200000000600082015250565b60006157d6601c83614721565b91506157e1826157a0565b602082019050919050565b60006020820190508181036000830152615805816157c9565b9050919050565b600081905092915050565b600061582282614716565b61582c818561580c565b935061583c818560208601614732565b80840191505092915050565b60006158548284615817565b915081905092915050565b7f70686f6e65207265636f726420686173206265656e206372656174656420616e60008201527f64206c696e6b656420746f20612077616c6c657420616c726561647900000000602082015250565b60006158bb603c83614721565b91506158c68261585f565b604082019050919050565b600060208201905081810360008301526158ea816158ae565b9050919050565b7f4e487b7100000000000000000000000000000000000000000000000000000000600052601260045260246000fd5b600061592b82613f69565b915061593683613f69565b925082615946576159456158f1565b5b828204905092915050565b7f7265736f6c766572206c6162656c20616c726561647920657869737400000000600082015250565b6000615987601c83614721565b915061599282615951565b602082019050919050565b600060208201905081810360008301526159b68161597a565b9050919050565b7f496e697469616c697a61626c653a20636f6e7472616374206973206e6f74206960008201527f6e697469616c697a696e67000000000000000000000000000000000000000000602082015250565b6000615a19602b83614721565b9150615a24826159bd565b604082019050919050565b60006020820190508181036000830152615a4881615a0c565b9050919050565b6000819050919050565b615a6281615a4f565b8114615a6d57600080fd5b50565b600081519050615a7f81615a59565b92915050565b600060208284031215615a9b57615a9a613e91565b5b6000615aa984828501615a70565b91505092915050565b7f416363657373436f6e74726f6c3a206163636f756e7420000000000000000000600082015250565b6000615ae860178361580c565b9150615af382615ab2565b601782019050919050565b7f206973206d697373696e6720726f6c6520000000000000000000000000000000600082015250565b6000615b3460118361580c565b9150615b3f82615afe565b601182019050919050565b6000615b5582615adb565b9150615b618285615817565b9150615b6c82615b27565b9150615b788284615817565b91508190509392505050565b60006020820190508181036000830152615b9e8184614765565b905092915050565b6000615bb182613f69565b9150615bbc83613f69565b9250817fffffffffffffffffffffffffffffffffffffffffffffffffffffffffffffffff0483118215151615615bf557615bf46151b0565b5b828202905092915050565b7f4e487b7100000000000000000000000000000000000000000000000000000000600052603260045260246000fd5b6000615c3a82613f69565b91506000821415615c4e57615c4d6151b0565b5b600182039050919050565b7f537472696e67733a20686578206c656e67746820696e73756666696369656e74600082015250565b6000615c8f602083614721565b9150615c9a82615c59565b602082019050919050565b60006020820190508181036000830152615cbe81615c82565b905091905056fea2646970667358221220d3c950e6e3385e06efc9ac503eefd7d1f1ffc7e6f10133f4848ecdc74d27156964736f6c63430008090033",
  "linkReferences": {},
  "deployedLinkReferences": {}
}