{
  "_format": "hh-sol-artifact-1",
  "contractName": "PNSResolver",
  "sourceName": "contracts/PNSResolver.sol",
  "abi": [
    {
      "anonymous": false,
      "inputs": [
        {
          "indexed": false,
          "internalType": "uint8",
          "name": "version",
          "type": "uint8"
        }
      ],
      "name": "Initialized",
      "type": "event"
    },
    {
      "inputs": [],
      "name": "PNSRegistry",
      "outputs": [
        {
          "internalType": "contract IPNSRegistry",
          "name": "",
          "type": "address"
        }
      ],
      "stateMutability": "view",
      "type": "function"
    },
    {
      "inputs": [
        {
          "internalType": "bytes32",
          "name": "phoneHash",
          "type": "bytes32"
        }
      ],
      "name": "getOwner",
      "outputs": [
        {
          "internalType": "address",
          "name": "",
          "type": "address"
        }
      ],
      "stateMutability": "view",
      "type": "function"
    },
    {
      "inputs": [
        {
          "internalType": "bytes32",
          "name": "phoneHash",
          "type": "bytes32"
        }
      ],
      "name": "getResolverDetails",
      "outputs": [
        {
          "components": [
            {
              "internalType": "address",
              "name": "wallet",
              "type": "address"
            },
            {
              "internalType": "uint256",
              "name": "createdAt",
              "type": "uint256"
            },
            {
              "internalType": "string",
              "name": "label",
              "type": "string"
            },
            {
              "internalType": "bool",
              "name": "exists",
              "type": "bool"
            }
          ],
          "internalType": "struct IPNSSchema.ResolverRecord[]",
          "name": "",
          "type": "tuple[]"
        }
      ],
      "stateMutability": "view",
      "type": "function"
    },
    {
      "inputs": [],
      "name": "getVersion",
      "outputs": [
        {
          "internalType": "uint32",
          "name": "",
          "type": "uint32"
        }
      ],
      "stateMutability": "view",
      "type": "function"
    },
    {
      "inputs": [
        {
          "internalType": "contract IPNSRegistry",
          "name": "_PNSRegistry",
          "type": "address"
        }
      ],
      "name": "initialize",
      "outputs": [],
      "stateMutability": "nonpayable",
      "type": "function"
    }
  ],
  "bytecode": "0x608060405234801561001057600080fd5b50610eef806100206000396000f3fe608060405234801561001057600080fd5b50600436106100575760003560e01c80630d8e6e2c1461005c5780633db13e5d1461007a5780635df583df146100aa578063c4d66de8146100c8578063deb931a2146100e4575b600080fd5b610064610114565b60405161007191906104f9565b60405180910390f35b610094600480360381019061008f919061055e565b61011d565b6040516100a191906107be565b60405180910390f35b6100b26101d6565b6040516100bf919061083f565b60405180910390f35b6100e260048036038101906100dd9190610898565b6101fc565b005b6100fe60048036038101906100f9919061055e565b610374565b60405161010b91906108d4565b60405180910390f35b60006001905090565b6060600060029054906101000a900473ffffffffffffffffffffffffffffffffffffffff1673ffffffffffffffffffffffffffffffffffffffff1663ea6ec3de836040518263ffffffff1660e01b815260040161017a91906108fe565b60006040518083038186803b15801561019257600080fd5b505afa1580156101a6573d6000803e3d6000fd5b505050506040513d6000823e3d601f19601f820116820180604052508101906101cf9190610c47565b9050919050565b600060029054906101000a900473ffffffffffffffffffffffffffffffffffffffff1681565b60008060019054906101000a900460ff1615905080801561022d5750600160008054906101000a900460ff1660ff16105b8061025a575061023c3061038f565b1580156102595750600160008054906101000a900460ff1660ff16145b5b610299576040517f08c379a000000000000000000000000000000000000000000000000000000000815260040161029090610d13565b60405180910390fd5b60016000806101000a81548160ff021916908360ff16021790555080156102d6576001600060016101000a81548160ff0219169083151502179055505b81600060026101000a81548173ffffffffffffffffffffffffffffffffffffffff021916908373ffffffffffffffffffffffffffffffffffffffff16021790555080156103705760008060016101000a81548160ff0219169083151502179055507f7f26b83ff96e1f2b6a682f133852f6798a09c465da95921460cefb384740249860016040516103679190610d7b565b60405180910390a15b5050565b600080610380836103b2565b90508060000151915050919050565b6000808273ffffffffffffffffffffffffffffffffffffffff163b119050919050565b6103ba61046d565b600060029054906101000a900473ffffffffffffffffffffffffffffffffffffffff1673ffffffffffffffffffffffffffffffffffffffff1663213681cd836040518263ffffffff1660e01b815260040161041591906108fe565b6101206040518083038186803b15801561042e57600080fd5b505afa158015610442573d6000803e3d6000fd5b505050506040513d601f19601f820116820180604052508101906104669190610e8b565b9050919050565b604051806101200160405280600073ffffffffffffffffffffffffffffffffffffffff168152602001600080191681526020016000151581526020016000151581526020016000151581526020016000151581526020016000815260200160008152602001600081525090565b600063ffffffff82169050919050565b6104f3816104da565b82525050565b600060208201905061050e60008301846104ea565b92915050565b6000604051905090565b600080fd5b600080fd5b6000819050919050565b61053b81610528565b811461054657600080fd5b50565b60008135905061055881610532565b92915050565b6000602082840312156105745761057361051e565b5b600061058284828501610549565b91505092915050565b600081519050919050565b600082825260208201905092915050565b6000819050602082019050919050565b600073ffffffffffffffffffffffffffffffffffffffff82169050919050565b60006105e2826105b7565b9050919050565b6105f2816105d7565b82525050565b6000819050919050565b61060b816105f8565b82525050565b600081519050919050565b600082825260208201905092915050565b60005b8381101561064b578082015181840152602081019050610630565b8381111561065a576000848401525b50505050565b6000601f19601f8301169050919050565b600061067c82610611565b610686818561061c565b935061069681856020860161062d565b61069f81610660565b840191505092915050565b60008115159050919050565b6106bf816106aa565b82525050565b60006080830160008301516106dd60008601826105e9565b5060208301516106f06020860182610602565b50604083015184820360408601526107088282610671565b915050606083015161071d60608601826106b6565b508091505092915050565b600061073483836106c5565b905092915050565b6000602082019050919050565b60006107548261058b565b61075e8185610596565b935083602082028501610770856105a7565b8060005b858110156107ac578484038952815161078d8582610728565b94506107988361073c565b925060208a01995050600181019050610774565b50829750879550505050505092915050565b600060208201905081810360008301526107d88184610749565b905092915050565b6000819050919050565b60006108056108006107fb846105b7565b6107e0565b6105b7565b9050919050565b6000610817826107ea565b9050919050565b60006108298261080c565b9050919050565b6108398161081e565b82525050565b60006020820190506108546000830184610830565b92915050565b6000610865826105d7565b9050919050565b6108758161085a565b811461088057600080fd5b50565b6000813590506108928161086c565b92915050565b6000602082840312156108ae576108ad61051e565b5b60006108bc84828501610883565b91505092915050565b6108ce816105d7565b82525050565b60006020820190506108e960008301846108c5565b92915050565b6108f881610528565b82525050565b600060208201905061091360008301846108ef565b92915050565b600080fd5b7f4e487b7100000000000000000000000000000000000000000000000000000000600052604160045260246000fd5b61095682610660565b810181811067ffffffffffffffff821117156109755761097461091e565b5b80604052505050565b6000610988610514565b9050610994828261094d565b919050565b600067ffffffffffffffff8211156109b4576109b361091e565b5b602082029050602081019050919050565b600080fd5b600080fd5b600080fd5b6109dd816105d7565b81146109e857600080fd5b50565b6000815190506109fa816109d4565b92915050565b610a09816105f8565b8114610a1457600080fd5b50565b600081519050610a2681610a00565b92915050565b600080fd5b600067ffffffffffffffff821115610a4c57610a4b61091e565b5b610a5582610660565b9050602081019050919050565b6000610a75610a7084610a31565b61097e565b905082815260208101848484011115610a9157610a90610a2c565b5b610a9c84828561062d565b509392505050565b600082601f830112610ab957610ab8610919565b5b8151610ac9848260208601610a62565b91505092915050565b610adb816106aa565b8114610ae657600080fd5b50565b600081519050610af881610ad2565b92915050565b600060808284031215610b1457610b136109ca565b5b610b1e608061097e565b90506000610b2e848285016109eb565b6000830152506020610b4284828501610a17565b602083015250604082015167ffffffffffffffff811115610b6657610b656109cf565b5b610b7284828501610aa4565b6040830152506060610b8684828501610ae9565b60608301525092915050565b6000610ba5610ba084610999565b61097e565b90508083825260208201905060208402830185811115610bc857610bc76109c5565b5b835b81811015610c0f57805167ffffffffffffffff811115610bed57610bec610919565b5b808601610bfa8982610afe565b85526020850194505050602081019050610bca565b5050509392505050565b600082601f830112610c2e57610c2d610919565b5b8151610c3e848260208601610b92565b91505092915050565b600060208284031215610c5d57610c5c61051e565b5b600082015167ffffffffffffffff811115610c7b57610c7a610523565b5b610c8784828501610c19565b91505092915050565b600082825260208201905092915050565b7f496e697469616c697a61626c653a20636f6e747261637420697320616c72656160008201527f647920696e697469616c697a6564000000000000000000000000000000000000602082015250565b6000610cfd602e83610c90565b9150610d0882610ca1565b604082019050919050565b60006020820190508181036000830152610d2c81610cf0565b9050919050565b6000819050919050565b600060ff82169050919050565b6000610d65610d60610d5b84610d33565b6107e0565b610d3d565b9050919050565b610d7581610d4a565b82525050565b6000602082019050610d906000830184610d6c565b92915050565b600081519050610da581610532565b92915050565b60006101208284031215610dc257610dc16109ca565b5b610dcd61012061097e565b90506000610ddd848285016109eb565b6000830152506020610df184828501610d96565b6020830152506040610e0584828501610ae9565b6040830152506060610e1984828501610ae9565b6060830152506080610e2d84828501610ae9565b60808301525060a0610e4184828501610ae9565b60a08301525060c0610e5584828501610a17565b60c08301525060e0610e6984828501610a17565b60e083015250610100610e7e84828501610a17565b6101008301525092915050565b60006101208284031215610ea257610ea161051e565b5b6000610eb084828501610dab565b9150509291505056fea2646970667358221220e83fb0e2081be649df2e16a635f9e0806379a66c49009c7fa3f63bdd740934b864736f6c63430008090033",
  "linkReferences": {},
  "deployedLinkReferences": {}
}