{
  "_format": "hh-sol-artifact-1",
  "contractName": "PNSRegistry",
  "sourceName": "contracts/PNSRegistry.sol",
  "abi": [
    {
      "anonymous": false,
      "inputs": [
        {
          "indexed": true,
          "internalType": "address",
          "name": "updater",
          "type": "address"
        },
        {
          "indexed": false,
          "internalType": "uint256",
          "name": "expiryTime",
          "type": "uint256"
        }
      ],
      "name": "ExpiryTimeUpdated",
      "type": "event"
    },
    {
      "anonymous": false,
      "inputs": [
        {
          "indexed": true,
          "internalType": "address",
          "name": "updater",
          "type": "address"
        },
        {
          "indexed": false,
          "internalType": "uint256",
          "name": "gracePeriod",
          "type": "uint256"
        }
      ],
      "name": "GracePeriodUpdated",
      "type": "event"
    },
    {
      "anonymous": false,
      "inputs": [
        {
          "indexed": false,
          "internalType": "uint8",
          "name": "version",
          "type": "uint8"
        }
      ],
      "name": "Initialized",
      "type": "event"
    },
    {
      "anonymous": false,
      "inputs": [
        {
          "indexed": true,
          "internalType": "bytes32",
          "name": "phoneHash",
          "type": "bytes32"
        },
        {
          "indexed": true,
          "internalType": "address",
          "name": "wallet",
          "type": "address"
        }
      ],
      "name": "PhoneLinked",
      "type": "event"
    },
    {
      "anonymous": false,
      "inputs": [
        {
          "indexed": true,
          "internalType": "bytes32",
          "name": "phoneHash",
          "type": "bytes32"
        },
        {
          "indexed": false,
          "internalType": "bool",
          "name": "status",
          "type": "bool"
        }
      ],
      "name": "PhoneNumberVerified",
      "type": "event"
    },
    {
      "anonymous": false,
      "inputs": [
        {
          "indexed": true,
          "internalType": "bytes32",
          "name": "phoneHash",
          "type": "bytes32"
        },
        {
          "indexed": true,
          "internalType": "address",
          "name": "wallet",
          "type": "address"
        },
        {
          "indexed": true,
          "internalType": "address",
          "name": "owner",
          "type": "address"
        }
      ],
      "name": "PhoneRecordCreated",
      "type": "event"
    },
    {
      "anonymous": false,
      "inputs": [
        {
          "indexed": true,
          "internalType": "bytes32",
          "name": "phoneHash",
          "type": "bytes32"
        }
      ],
      "name": "PhoneRecordEnteredGracePeriod",
      "type": "event"
    },
    {
      "anonymous": false,
      "inputs": [
        {
          "indexed": true,
          "internalType": "bytes32",
          "name": "phoneHash",
          "type": "bytes32"
        }
      ],
      "name": "PhoneRecordExpired",
      "type": "event"
    },
    {
      "anonymous": false,
      "inputs": [
        {
          "indexed": true,
          "internalType": "bytes32",
          "name": "phoneHash",
          "type": "bytes32"
        }
      ],
      "name": "PhoneRecordRenewed",
      "type": "event"
    },
    {
      "anonymous": false,
      "inputs": [
        {
          "indexed": true,
          "internalType": "bytes32",
          "name": "role",
          "type": "bytes32"
        },
        {
          "indexed": true,
          "internalType": "bytes32",
          "name": "previousAdminRole",
          "type": "bytes32"
        },
        {
          "indexed": true,
          "internalType": "bytes32",
          "name": "newAdminRole",
          "type": "bytes32"
        }
      ],
      "name": "RoleAdminChanged",
      "type": "event"
    },
    {
      "anonymous": false,
      "inputs": [
        {
          "indexed": true,
          "internalType": "bytes32",
          "name": "role",
          "type": "bytes32"
        },
        {
          "indexed": true,
          "internalType": "address",
          "name": "account",
          "type": "address"
        },
        {
          "indexed": true,
          "internalType": "address",
          "name": "sender",
          "type": "address"
        }
      ],
      "name": "RoleGranted",
      "type": "event"
    },
    {
      "anonymous": false,
      "inputs": [
        {
          "indexed": true,
          "internalType": "bytes32",
          "name": "role",
          "type": "bytes32"
        },
        {
          "indexed": true,
          "internalType": "address",
          "name": "account",
          "type": "address"
        },
        {
          "indexed": true,
          "internalType": "address",
          "name": "sender",
          "type": "address"
        }
      ],
      "name": "RoleRevoked",
      "type": "event"
    },
    {
      "anonymous": false,
      "inputs": [
        {
          "indexed": true,
          "internalType": "bytes32",
          "name": "phoneHash",
          "type": "bytes32"
        },
        {
          "indexed": true,
          "internalType": "address",
          "name": "owner",
          "type": "address"
        }
      ],
      "name": "Transfer",
      "type": "event"
    },
    {
      "anonymous": false,
      "inputs": [
        {
          "indexed": true,
          "internalType": "address",
          "name": "_recipient",
          "type": "address"
        },
        {
          "indexed": false,
          "internalType": "uint256",
          "name": "amount",
          "type": "uint256"
        }
      ],
      "name": "WithdrawalSuccessful",
      "type": "event"
    },
    {
      "stateMutability": "payable",
      "type": "fallback"
    },
    {
      "inputs": [],
      "name": "DEFAULT_ADMIN_ROLE",
      "outputs": [
        {
          "internalType": "bytes32",
          "name": "",
          "type": "bytes32"
        }
      ],
      "stateMutability": "view",
      "type": "function"
    },
    {
      "inputs": [],
      "name": "MAINTAINER_ROLE",
      "outputs": [
        {
          "internalType": "bytes32",
          "name": "",
          "type": "bytes32"
        }
      ],
      "stateMutability": "view",
      "type": "function"
    },
    {
      "inputs": [],
      "name": "VERIFIER_ROLE",
      "outputs": [
        {
          "internalType": "bytes32",
          "name": "",
          "type": "bytes32"
        }
      ],
      "stateMutability": "view",
      "type": "function"
    },
    {
      "inputs": [
        {
          "internalType": "bytes32",
          "name": "phoneHash",
          "type": "bytes32"
        },
        {
          "internalType": "address",
          "name": "resolver",
          "type": "address"
        },
        {
          "internalType": "string",
          "name": "label",
          "type": "string"
        }
      ],
      "name": "claimExpiredPhoneRecord",
      "outputs": [],
      "stateMutability": "payable",
      "type": "function"
    },
    {
      "inputs": [],
      "name": "expiryTime",
      "outputs": [
        {
          "internalType": "uint256",
          "name": "",
          "type": "uint256"
        }
      ],
      "stateMutability": "view",
      "type": "function"
    },
    {
      "inputs": [
        {
          "internalType": "uint256",
          "name": "usdAmount",
          "type": "uint256"
        }
      ],
      "name": "getAmountinETH",
      "outputs": [
        {
          "internalType": "uint256",
          "name": "",
          "type": "uint256"
        }
      ],
      "stateMutability": "view",
      "type": "function"
    },
    {
      "inputs": [],
      "name": "getExpiryTime",
      "outputs": [
        {
          "internalType": "uint256",
          "name": "",
          "type": "uint256"
        }
      ],
      "stateMutability": "view",
      "type": "function"
    },
    {
      "inputs": [],
      "name": "getGracePeriod",
      "outputs": [
        {
          "internalType": "uint256",
          "name": "",
          "type": "uint256"
        }
      ],
      "stateMutability": "view",
      "type": "function"
    },
    {
      "inputs": [
        {
          "internalType": "bytes32",
          "name": "phoneHash",
          "type": "bytes32"
        }
      ],
      "name": "getRecord",
      "outputs": [
        {
          "components": [
            {
              "internalType": "address",
              "name": "owner",
              "type": "address"
            },
            {
              "internalType": "bytes32",
              "name": "phoneHash",
              "type": "bytes32"
            },
            {
              "internalType": "bool",
              "name": "exists",
              "type": "bool"
            },
            {
              "internalType": "bool",
              "name": "isInGracePeriod",
              "type": "bool"
            },
            {
              "internalType": "bool",
              "name": "isExpired",
              "type": "bool"
            },
            {
              "internalType": "bool",
              "name": "isVerified",
              "type": "bool"
            },
            {
              "internalType": "uint256",
              "name": "expirationTime",
              "type": "uint256"
            },
            {
              "internalType": "uint256",
              "name": "verifiedAt",
              "type": "uint256"
            },
            {
              "internalType": "uint256",
              "name": "createdAt",
              "type": "uint256"
            }
          ],
          "internalType": "struct IPNSSchema.PhoneRecord",
          "name": "",
          "type": "tuple"
        }
      ],
      "stateMutability": "view",
      "type": "function"
    },
    {
      "inputs": [
        {
          "internalType": "bytes32",
          "name": "phoneHash",
          "type": "bytes32"
        }
      ],
      "name": "getRecordMapping",
      "outputs": [
        {
          "components": [
            {
              "internalType": "address",
              "name": "owner",
              "type": "address"
            },
            {
              "internalType": "bytes32",
              "name": "phoneHash",
              "type": "bytes32"
            },
            {
              "internalType": "bool",
              "name": "exists",
              "type": "bool"
            },
            {
              "internalType": "bool",
              "name": "isInGracePeriod",
              "type": "bool"
            },
            {
              "internalType": "bool",
              "name": "isExpired",
              "type": "bool"
            },
            {
              "internalType": "bool",
              "name": "isVerified",
              "type": "bool"
            },
            {
              "internalType": "uint256",
              "name": "expirationTime",
              "type": "uint256"
            },
            {
              "internalType": "uint256",
              "name": "verifiedAt",
              "type": "uint256"
            },
            {
              "internalType": "uint256",
              "name": "createdAt",
              "type": "uint256"
            }
          ],
          "internalType": "struct IPNSSchema.PhoneRecord",
          "name": "",
          "type": "tuple"
        }
      ],
      "stateMutability": "view",
      "type": "function"
    },
    {
      "inputs": [
        {
          "internalType": "bytes32",
          "name": "phoneHash",
          "type": "bytes32"
        }
      ],
      "name": "getResolver",
      "outputs": [
        {
          "components": [
            {
              "internalType": "address",
              "name": "wallet",
              "type": "address"
            },
            {
              "internalType": "uint256",
              "name": "createdAt",
              "type": "uint256"
            },
            {
              "internalType": "string",
              "name": "label",
              "type": "string"
            },
            {
              "internalType": "bool",
              "name": "exists",
              "type": "bool"
            }
          ],
          "internalType": "struct IPNSSchema.ResolverRecord[]",
          "name": "",
          "type": "tuple[]"
        }
      ],
      "stateMutability": "view",
      "type": "function"
    },
    {
      "inputs": [
        {
          "internalType": "bytes32",
          "name": "role",
          "type": "bytes32"
        }
      ],
      "name": "getRoleAdmin",
      "outputs": [
        {
          "internalType": "bytes32",
          "name": "",
          "type": "bytes32"
        }
      ],
      "stateMutability": "view",
      "type": "function"
    },
    {
      "inputs": [],
      "name": "getVersion",
      "outputs": [
        {
          "internalType": "uint32",
          "name": "",
          "type": "uint32"
        }
      ],
      "stateMutability": "view",
      "type": "function"
    },
    {
      "inputs": [],
      "name": "gracePeriod",
      "outputs": [
        {
          "internalType": "uint256",
          "name": "",
          "type": "uint256"
        }
      ],
      "stateMutability": "view",
      "type": "function"
    },
    {
      "inputs": [
        {
          "internalType": "bytes32",
          "name": "role",
          "type": "bytes32"
        },
        {
          "internalType": "address",
          "name": "account",
          "type": "address"
        }
      ],
      "name": "grantRole",
      "outputs": [],
      "stateMutability": "nonpayable",
      "type": "function"
    },
    {
      "inputs": [
        {
          "internalType": "bytes32",
          "name": "role",
          "type": "bytes32"
        },
        {
          "internalType": "address",
          "name": "account",
          "type": "address"
        }
      ],
      "name": "hasRole",
      "outputs": [
        {
          "internalType": "bool",
          "name": "",
          "type": "bool"
        }
      ],
      "stateMutability": "view",
      "type": "function"
    },
    {
      "inputs": [
        {
          "internalType": "address",
          "name": "_pnsGuardianContract",
          "type": "address"
        },
        {
          "internalType": "address",
          "name": "_priceAggregator",
          "type": "address"
        },
        {
          "internalType": "address",
          "name": "_verifier",
          "type": "address"
        }
      ],
      "name": "initialize",
      "outputs": [],
      "stateMutability": "nonpayable",
      "type": "function"
    },
    {
      "inputs": [
        {
          "internalType": "bytes32",
          "name": "phoneHash",
          "type": "bytes32"
        }
      ],
      "name": "isRecordVerified",
      "outputs": [
        {
          "internalType": "bool",
          "name": "",
          "type": "bool"
        }
      ],
      "stateMutability": "view",
      "type": "function"
    },
    {
      "inputs": [
        {
          "internalType": "bytes32",
          "name": "phoneHash",
          "type": "bytes32"
        },
        {
          "internalType": "address",
          "name": "resolver",
          "type": "address"
        },
        {
          "internalType": "string",
          "name": "label",
          "type": "string"
        }
      ],
      "name": "linkPhoneToWallet",
      "outputs": [],
      "stateMutability": "nonpayable",
      "type": "function"
    },
    {
      "inputs": [],
      "name": "pnsGuardianContract",
      "outputs": [
        {
          "internalType": "contract IPNSGuardian",
          "name": "",
          "type": "address"
        }
      ],
      "stateMutability": "view",
      "type": "function"
    },
    {
      "inputs": [],
      "name": "priceFeedContract",
      "outputs": [
        {
          "internalType": "contract DummyPriceOracle",
          "name": "",
          "type": "address"
        }
      ],
      "stateMutability": "view",
      "type": "function"
    },
    {
      "inputs": [
        {
          "internalType": "bytes32",
          "name": "phoneHash",
          "type": "bytes32"
        }
      ],
      "name": "recordExists",
      "outputs": [
        {
          "internalType": "bool",
          "name": "",
          "type": "bool"
        }
      ],
      "stateMutability": "view",
      "type": "function"
    },
    {
      "inputs": [
        {
          "internalType": "bytes32",
          "name": "",
          "type": "bytes32"
        }
      ],
      "name": "records",
      "outputs": [
        {
          "internalType": "address",
          "name": "owner",
          "type": "address"
        },
        {
          "internalType": "bytes32",
          "name": "phoneHash",
          "type": "bytes32"
        },
        {
          "internalType": "bool",
          "name": "exists",
          "type": "bool"
        },
        {
          "internalType": "bool",
          "name": "isInGracePeriod",
          "type": "bool"
        },
        {
          "internalType": "bool",
          "name": "isExpired",
          "type": "bool"
        },
        {
          "internalType": "bool",
          "name": "isVerified",
          "type": "bool"
        },
        {
          "internalType": "uint256",
          "name": "expirationTime",
          "type": "uint256"
        },
        {
          "internalType": "uint256",
          "name": "verifiedAt",
          "type": "uint256"
        },
        {
          "internalType": "uint256",
          "name": "createdAt",
          "type": "uint256"
        }
      ],
      "stateMutability": "view",
      "type": "function"
    },
    {
      "inputs": [],
      "name": "registryCost",
      "outputs": [
        {
          "internalType": "uint256",
          "name": "",
          "type": "uint256"
        }
      ],
      "stateMutability": "view",
      "type": "function"
    },
    {
      "inputs": [],
      "name": "registryRenewCost",
      "outputs": [
        {
          "internalType": "uint256",
          "name": "",
          "type": "uint256"
        }
      ],
      "stateMutability": "view",
      "type": "function"
    },
    {
      "inputs": [
        {
          "internalType": "bytes32",
          "name": "phoneHash",
          "type": "bytes32"
        }
      ],
      "name": "renew",
      "outputs": [],
      "stateMutability": "payable",
      "type": "function"
    },
    {
      "inputs": [
        {
          "internalType": "bytes32",
          "name": "role",
          "type": "bytes32"
        },
        {
          "internalType": "address",
          "name": "account",
          "type": "address"
        }
      ],
      "name": "renounceRole",
      "outputs": [],
      "stateMutability": "nonpayable",
      "type": "function"
    },
    {
      "inputs": [
        {
          "internalType": "bytes32",
          "name": "",
          "type": "bytes32"
        },
        {
          "internalType": "uint256",
          "name": "",
          "type": "uint256"
        }
      ],
      "name": "resolverRecords",
      "outputs": [
        {
          "internalType": "address",
          "name": "wallet",
          "type": "address"
        },
        {
          "internalType": "uint256",
          "name": "createdAt",
          "type": "uint256"
        },
        {
          "internalType": "string",
          "name": "label",
          "type": "string"
        },
        {
          "internalType": "bool",
          "name": "exists",
          "type": "bool"
        }
      ],
      "stateMutability": "view",
      "type": "function"
    },
    {
      "inputs": [
        {
          "internalType": "bytes32",
          "name": "role",
          "type": "bytes32"
        },
        {
          "internalType": "address",
          "name": "account",
          "type": "address"
        }
      ],
      "name": "revokeRole",
      "outputs": [],
      "stateMutability": "nonpayable",
      "type": "function"
    },
    {
      "inputs": [
        {
          "internalType": "uint256",
          "name": "time",
          "type": "uint256"
        }
      ],
      "name": "setExpiryTime",
      "outputs": [],
      "stateMutability": "nonpayable",
      "type": "function"
    },
    {
      "inputs": [
        {
          "internalType": "uint256",
          "name": "time",
          "type": "uint256"
        }
      ],
      "name": "setGracePeriod",
      "outputs": [],
      "stateMutability": "nonpayable",
      "type": "function"
    },
    {
      "inputs": [
        {
          "internalType": "bytes32",
          "name": "phoneHash",
          "type": "bytes32"
        },
        {
          "internalType": "address",
          "name": "owner",
          "type": "address"
        }
      ],
      "name": "setOwner",
      "outputs": [],
      "stateMutability": "nonpayable",
      "type": "function"
    },
    {
      "inputs": [
        {
          "internalType": "bytes32",
          "name": "phoneHash",
          "type": "bytes32"
        },
        {
          "internalType": "address",
          "name": "resolver",
          "type": "address"
        },
        {
          "internalType": "string",
          "name": "label",
          "type": "string"
        }
      ],
      "name": "setPhoneRecord",
      "outputs": [],
      "stateMutability": "payable",
      "type": "function"
    },
    {
      "inputs": [
        {
          "components": [
            {
              "internalType": "address",
              "name": "owner",
              "type": "address"
            },
            {
              "internalType": "bytes32",
              "name": "phoneHash",
              "type": "bytes32"
            },
            {
              "internalType": "bool",
              "name": "exists",
              "type": "bool"
            },
            {
              "internalType": "bool",
              "name": "isInGracePeriod",
              "type": "bool"
            },
            {
              "internalType": "bool",
              "name": "isExpired",
              "type": "bool"
            },
            {
              "internalType": "bool",
              "name": "isVerified",
              "type": "bool"
            },
            {
              "internalType": "uint256",
              "name": "expirationTime",
              "type": "uint256"
            },
            {
              "internalType": "uint256",
              "name": "verifiedAt",
              "type": "uint256"
            },
            {
              "internalType": "uint256",
              "name": "createdAt",
              "type": "uint256"
            }
          ],
          "internalType": "struct IPNSSchema.PhoneRecord",
          "name": "recordData",
          "type": "tuple"
        },
        {
          "internalType": "bytes32",
          "name": "phoneHash",
          "type": "bytes32"
        }
      ],
      "name": "setPhoneRecordMapping",
      "outputs": [],
      "stateMutability": "nonpayable",
      "type": "function"
    },
    {
      "inputs": [
        {
          "internalType": "uint256",
          "name": "_registryCost",
          "type": "uint256"
        }
      ],
      "name": "setRegistryCost",
      "outputs": [],
      "stateMutability": "nonpayable",
      "type": "function"
    },
    {
      "inputs": [
        {
          "internalType": "uint256",
          "name": "_registryRenewCost",
          "type": "uint256"
        }
      ],
      "name": "setRegistryRenewCost",
      "outputs": [],
      "stateMutability": "nonpayable",
      "type": "function"
    },
    {
      "inputs": [
        {
          "internalType": "bytes4",
          "name": "interfaceId",
          "type": "bytes4"
        }
      ],
      "name": "supportsInterface",
      "outputs": [
        {
          "internalType": "bool",
          "name": "",
          "type": "bool"
        }
      ],
      "stateMutability": "view",
      "type": "function"
    },
    {
      "inputs": [
        {
          "internalType": "bytes32",
          "name": "phoneHash",
          "type": "bytes32"
        },
        {
          "internalType": "bytes32",
          "name": "hashedMessage",
          "type": "bytes32"
        },
        {
          "internalType": "bool",
          "name": "status",
          "type": "bool"
        },
        {
          "internalType": "bytes",
          "name": "signature",
          "type": "bytes"
        }
      ],
      "name": "verifyPhone",
      "outputs": [],
      "stateMutability": "nonpayable",
      "type": "function"
    },
    {
      "inputs": [
        {
          "internalType": "address",
          "name": "_recipient",
          "type": "address"
        },
        {
          "internalType": "uint256",
          "name": "amount",
          "type": "uint256"
        }
      ],
      "name": "withdraw",
      "outputs": [],
      "stateMutability": "nonpayable",
      "type": "function"
    },
    {
      "stateMutability": "payable",
      "type": "receive"
    }
  ],
  "bytecode": "0x608060405234801561001057600080fd5b50615d3880620000216000396000f3fe6080604052600436106102345760003560e01c80638fafbb501161012e578063d547741f116100ab578063f3fef3a31161006f578063f3fef3a31461087e578063f56d7f11146108a7578063f79fe538146108d0578063f87422541461090d578063fd3069d6146109385761023b565b8063d547741f14610799578063dbd18388146107c2578063e7705db6146107ed578063ea6ec3de14610818578063f2f65960146108555761023b565b8063a217fddf116100f2578063a217fddf146106b1578063ab8a2df1146106dc578063c0c53b8b14610705578063c4c839181461072e578063d26f38871461076e5761023b565b80638fafbb50146105b657806391d14854146105e157806393210be41461061e57806399bc0aea1461065b578063a06db7dc146106865761023b565b80632f2ff15d116101bc5780634b6f6710116101805780634b6f6710146104f25780634cb000451461051d5780635b0fc9c3146105485780636474eeab146105715780638e32762d1461059a5761023b565b80632f2ff15d1461041157806330fc4cff1461043a57806336568abe1461046357806340ce119a1461048c578063488dbfad146104b55761023b565b80631779fa18116102035780631779fa1814610306578063213681cd14610343578063248a9ca31461038057806325cb5bc0146103bd5780632c1d0cfe146103e85761023b565b806301e647251461023d57806301ffc9a7146102825780630d8e6e2c146102bf578063130b7498146102ea5761023b565b3661023b57005b005b34801561024957600080fd5b50610264600480360381019061025f9190613ff9565b610954565b604051610279999897969594939291906140aa565b60405180910390f35b34801561028e57600080fd5b506102a960048036038101906102a4919061418f565b6109f6565b6040516102b691906141bc565b60405180910390f35b3480156102cb57600080fd5b506102d4610a70565b6040516102e191906141f6565b60405180910390f35b61030460048036038101906102ff9190614383565b610a79565b005b34801561031257600080fd5b5061032d6004803603810190610328919061441e565b610a8a565b60405161033a919061444b565b60405180910390f35b34801561034f57600080fd5b5061036a60048036038101906103659190613ff9565b610a9c565b6040516103779190614559565b60405180910390f35b34801561038c57600080fd5b506103a760048036038101906103a29190613ff9565b610c94565b6040516103b49190614575565b60405180910390f35b3480156103c957600080fd5b506103d2610cb4565b6040516103df919061444b565b60405180910390f35b3480156103f457600080fd5b5061040f600480360381019061040a919061441e565b610cbe565b005b34801561041d57600080fd5b5061043860048036038101906104339190614590565b610d45565b005b34801561044657600080fd5b50610461600480360381019061045c919061441e565b610d66565b005b34801561046f57600080fd5b5061048a60048036038101906104859190614590565b610e3b565b005b34801561049857600080fd5b506104b360048036038101906104ae91906146e1565b610ebe565b005b3480156104c157600080fd5b506104dc60048036038101906104d79190613ff9565b610ecc565b6040516104e991906141bc565b60405180910390f35b3480156104fe57600080fd5b50610507610ef9565b6040516105149190614782565b60405180910390f35b34801561052957600080fd5b50610532610f1f565b60405161053f919061444b565b60405180910390f35b34801561055457600080fd5b5061056f600480360381019061056a9190614590565b610f25565b005b34801561057d57600080fd5b5061059860048036038101906105939190614383565b611295565b005b6105b460048036038101906105af9190613ff9565b6114dd565b005b3480156105c257600080fd5b506105cb611a02565b6040516105d8919061444b565b60405180910390f35b3480156105ed57600080fd5b5061060860048036038101906106039190614590565b611a08565b60405161061591906141bc565b60405180910390f35b34801561062a57600080fd5b5061064560048036038101906106409190613ff9565b611a73565b6040516106529190614559565b60405180910390f35b34801561066757600080fd5b50610670611b8b565b60405161067d919061444b565b60405180910390f35b34801561069257600080fd5b5061069b611b91565b6040516106a8919061444b565b60405180910390f35b3480156106bd57600080fd5b506106c6611b97565b6040516106d39190614575565b60405180910390f35b3480156106e857600080fd5b5061070360048036038101906106fe919061441e565b611b9e565b005b34801561071157600080fd5b5061072c6004803603810190610727919061479d565b611c25565b005b34801561073a57600080fd5b50610755600480360381019061075091906147f0565b611e34565b60405161076594939291906148b8565b60405180910390f35b34801561077a57600080fd5b50610783611f36565b6040516107909190614925565b60405180910390f35b3480156107a557600080fd5b506107c060048036038101906107bb9190614590565b611f5c565b005b3480156107ce57600080fd5b506107d7611f7d565b6040516107e4919061444b565b60405180910390f35b3480156107f957600080fd5b50610802611f87565b60405161080f9190614575565b60405180910390f35b34801561082457600080fd5b5061083f600480360381019061083a9190613ff9565b611fab565b60405161084c9190614aaf565b60405180910390f35b34801561086157600080fd5b5061087c6004803603810190610877919061441e565b61212a565b005b34801561088a57600080fd5b506108a560048036038101906108a09190614ad1565b6121ff565b005b3480156108b357600080fd5b506108ce60048036038101906108c99190614bb2565b61242e565b005b3480156108dc57600080fd5b506108f760048036038101906108f29190613ff9565b6124ff565b60405161090491906141bc565b60405180910390f35b34801561091957600080fd5b5061092261252c565b60405161092f9190614575565b60405180910390f35b610952600480360381019061094d9190614383565b612550565b005b609e6020528060005260406000206000915090508060000160009054906101000a900473ffffffffffffffffffffffffffffffffffffffff16908060010154908060020160009054906101000a900460ff16908060020160019054906101000a900460ff16908060020160029054906101000a900460ff16908060020160039054906101000a900460ff16908060030154908060040154908060050154905089565b60007f7965db0b000000000000000000000000000000000000000000000000000000007bffffffffffffffffffffffffffffffffffffffffffffffffffffffff1916827bffffffffffffffffffffffffffffffffffffffffffffffffffffffff19161480610a695750610a688261273f565b5b9050919050565b60006001905090565b610a85833384846127a9565b505050565b6000610a95826130d3565b9050919050565b610aa4613d44565b6000609e6000848152602001908152602001600020604051806101200160405290816000820160009054906101000a900473ffffffffffffffffffffffffffffffffffffffff1673ffffffffffffffffffffffffffffffffffffffff1673ffffffffffffffffffffffffffffffffffffffff168152602001600182015481526020016002820160009054906101000a900460ff161515151581526020016002820160019054906101000a900460ff161515151581526020016002820160029054906101000a900460ff161515151581526020016002820160039054906101000a900460ff16151515158152602001600382015481526020016004820154815260200160058201548152505090508060400151610bf5576040517f08c379a0000000000000000000000000000000000000000000000000000000008152600401610bec90614c81565b60405180910390fd5b6000610c00846130fa565b90506000610c0d85613177565b9050604051806101200160405280846000015173ffffffffffffffffffffffffffffffffffffffff16815260200184602001518152602001846040015115158152602001831515815260200182151581526020018460a00151151581526020018460c0015181526020018460e0015181526020018461010001518152509350505050919050565b600060656000838152602001908152602001600020600101549050919050565b6000609754905090565b610ce87f339759585899103d2ace64958e37e18ccb0504652c81d4a1b8aa80fe2126ab9533611a08565b80610cfc5750610cfb6000801b33611a08565b5b610d3b576040517f08c379a0000000000000000000000000000000000000000000000000000000008152600401610d3290614ced565b60405180910390fd5b8060998190555050565b610d4e82610c94565b610d5781613201565b610d618383613215565b505050565b610d907f339759585899103d2ace64958e37e18ccb0504652c81d4a1b8aa80fe2126ab9533611a08565b80610da45750610da36000801b33611a08565b5b610de3576040517f08c379a0000000000000000000000000000000000000000000000000000000008152600401610dda90614ced565b60405180910390fd5b806097819055503373ffffffffffffffffffffffffffffffffffffffff167f9d85dc994c891eea203f3a6cc89736299931ac5325fd63b233339228970b99de82604051610e30919061444b565b60405180910390a250565b610e436132f6565b73ffffffffffffffffffffffffffffffffffffffff168173ffffffffffffffffffffffffffffffffffffffff1614610eb0576040517f08c379a0000000000000000000000000000000000000000000000000000000008152600401610ea790614d7f565b60405180910390fd5b610eba82826132fe565b5050565b610ec882826133e0565b5050565b6000609e600083815260200190815260200160002060020160039054906101000a900460ff169050919050565b609b60009054906101000a900473ffffffffffffffffffffffffffffffffffffffff1681565b60995481565b816000609e600083815260200190815260200160002060000160009054906101000a900473ffffffffffffffffffffffffffffffffffffffff1690503373ffffffffffffffffffffffffffffffffffffffff168173ffffffffffffffffffffffffffffffffffffffff1614610fcf576040517f08c379a0000000000000000000000000000000000000000000000000000000008152600401610fc690614deb565b60405180910390fd5b836000610fdb826130fa565b90508015611046576000609e6000848152602001908152602001600020905060018160020160016101000a81548160ff021916908315150217905550827f03eb7537ed8ac874f6194d32434e70b659fe7409c8f693aa03e65cf50f2626e360405160405180910390a2505b85600061105282613177565b90508015611113576000609e6000848152602001908152602001600020905060008160020160016101000a81548160ff02191690831515021790555060018160020160026101000a81548160ff021916908315150217905550827fb679d0c767903a8ba184d02a07326d998e08611b6dc812b61142ef5d9374a30960405160405180910390a26040517f08c379a000000000000000000000000000000000000000000000000000000000815260040161110a90614e7d565b60405180910390fd5b600073ffffffffffffffffffffffffffffffffffffffff168773ffffffffffffffffffffffffffffffffffffffff161415611183576040517f08c379a000000000000000000000000000000000000000000000000000000000815260040161117a90614f0f565b60405180910390fd5b3073ffffffffffffffffffffffffffffffffffffffff168773ffffffffffffffffffffffffffffffffffffffff1614156111f2576040517f08c379a00000000000000000000000000000000000000000000000000000000081526004016111e990614fa1565b60405180910390fd5b86609e60008a815260200190815260200160002060000160006101000a81548173ffffffffffffffffffffffffffffffffffffffff021916908373ffffffffffffffffffffffffffffffffffffffff1602179055508673ffffffffffffffffffffffffffffffffffffffff16887fd4735d920b0f87494915f556dd9b54c8f309026070caea5c737245152564d26660405160405180910390a35050505050505050565b826000609e600083815260200190815260200160002060000160009054906101000a900473ffffffffffffffffffffffffffffffffffffffff1690503373ffffffffffffffffffffffffffffffffffffffff168173ffffffffffffffffffffffffffffffffffffffff161461133f576040517f08c379a000000000000000000000000000000000000000000000000000000000815260040161133690614deb565b60405180910390fd5b84600061134b826130fa565b905080156113b6576000609e6000848152602001908152602001600020905060018160020160016101000a81548160ff021916908315150217905550827f03eb7537ed8ac874f6194d32434e70b659fe7409c8f693aa03e65cf50f2626e360405160405180910390a2505b8660006113c282613177565b90508015611483576000609e6000848152602001908152602001600020905060008160020160016101000a81548160ff02191690831515021790555060018160020160026101000a81548160ff021916908315150217905550827fb679d0c767903a8ba184d02a07326d998e08611b6dc812b61142ef5d9374a30960405160405180910390a26040517f08c379a000000000000000000000000000000000000000000000000000000000815260040161147a90614e7d565b60405180910390fd5b61148e8989896134f8565b8773ffffffffffffffffffffffffffffffffffffffff16897f2fba9db5fd4b5b44ef46ec5170dba710636b886bf0dbf8c98ffb5e76e2e5516860405160405180910390a3505050505050505050565b806000609e600083815260200190815260200160002060000160009054906101000a900473ffffffffffffffffffffffffffffffffffffffff1690503373ffffffffffffffffffffffffffffffffffffffff168173ffffffffffffffffffffffffffffffffffffffff1614611587576040517f08c379a000000000000000000000000000000000000000000000000000000000815260040161157e90614deb565b60405180910390fd5b826000609e600083815260200190815260200160002060030154116115e1576040517f08c379a00000000000000000000000000000000000000000000000000000000081526004016115d89061500d565b60405180910390fd5b6115ec609a546130d3565b34101561162e576040517f08c379a000000000000000000000000000000000000000000000000000000000815260040161162590615079565b60405180910390fd5b6000609e600086815260200190815260200160002090506000611650866130fa565b9050600061165d87613177565b90508260020160009054906101000a900460ff166116b0576040517f08c379a00000000000000000000000000000000000000000000000000000000081526004016116a79061510b565b60405180910390fd5b8180156116bb575080155b6116fa576040517f08c379a00000000000000000000000000000000000000000000000000000000081526004016116f19061519d565b60405180910390fd5b60008360020160016101000a81548160ff02191690831515021790555060008360020160026101000a81548160ff0219169083151502179055506097544261174291906151ec565b836003018190555060003073ffffffffffffffffffffffffffffffffffffffff163460405161177090615273565b60006040518083038185875af1925050503d80600081146117ad576040519150601f19603f3d011682016040523d82523d6000602084013e6117b2565b606091505b50509050806117f6576040517f08c379a00000000000000000000000000000000000000000000000000000000081526004016117ed906152d4565b60405180910390fd5b611801609a546130d3565b3411156118cb5760003373ffffffffffffffffffffffffffffffffffffffff1661182c609a546130d3565b3461183791906152f4565b60405161184390615273565b60006040518083038185875af1925050503d8060008114611880576040519150601f19603f3d011682016040523d82523d6000602084013e611885565b606091505b50509050806118c9576040517f08c379a00000000000000000000000000000000000000000000000000000000081526004016118c0906152d4565b60405180910390fd5b505b6119cb84604051806101200160405290816000820160009054906101000a900473ffffffffffffffffffffffffffffffffffffffff1673ffffffffffffffffffffffffffffffffffffffff1673ffffffffffffffffffffffffffffffffffffffff168152602001600182015481526020016002820160009054906101000a900460ff161515151581526020016002820160019054906101000a900460ff161515151581526020016002820160029054906101000a900460ff161515151581526020016002820160039054906101000a900460ff161515151581526020016003820154815260200160048201548152602001600582015481525050896133e0565b877ffc18d31e0e0e3243c37bd753fa25eaeea8fae3f39c29c8e2b70b249d81d96abd60405160405180910390a25050505050505050565b609a5481565b60006065600084815260200190815260200160002060000160008373ffffffffffffffffffffffffffffffffffffffff1673ffffffffffffffffffffffffffffffffffffffff16815260200190815260200160002060009054906101000a900460ff16905092915050565b611a7b613d44565b609e6000838152602001908152602001600020604051806101200160405290816000820160009054906101000a900473ffffffffffffffffffffffffffffffffffffffff1673ffffffffffffffffffffffffffffffffffffffff1673ffffffffffffffffffffffffffffffffffffffff168152602001600182015481526020016002820160009054906101000a900460ff161515151581526020016002820160019054906101000a900460ff161515151581526020016002820160029054906101000a900460ff161515151581526020016002820160039054906101000a900460ff1615151515815260200160038201548152602001600482015481526020016005820154815250509050919050565b60975481565b60985481565b6000801b81565b611bc87f339759585899103d2ace64958e37e18ccb0504652c81d4a1b8aa80fe2126ab9533611a08565b80611bdc5750611bdb6000801b33611a08565b5b611c1b576040517f08c379a0000000000000000000000000000000000000000000000000000000008152600401611c1290614ced565b60405180910390fd5b80609a8190555050565b60008060019054906101000a900460ff16159050808015611c565750600160008054906101000a900460ff1660ff16105b80611c835750611c6530613871565b158015611c825750600160008054906101000a900460ff1660ff16145b5b611cc2576040517f08c379a0000000000000000000000000000000000000000000000000000000008152600401611cb99061539a565b60405180910390fd5b60016000806101000a81548160ff021916908360ff1602179055508015611cff576001600060016101000a81548160ff0219169083151502179055505b611d07613894565b6301e13380609781905550624f1a0060988190555082609b60006101000a81548173ffffffffffffffffffffffffffffffffffffffff021916908373ffffffffffffffffffffffffffffffffffffffff16021790555083609c60006101000a81548173ffffffffffffffffffffffffffffffffffffffff021916908373ffffffffffffffffffffffffffffffffffffffff160217905550611dab6000801b33613215565b611dd57f0ce23c3e399818cfee81a7ab0880f714e53d7672b08df0fa62f2843416e1ea0983613215565b8015611e2e5760008060016101000a81548160ff0219169083151502179055507f7f26b83ff96e1f2b6a682f133852f6798a09c465da95921460cefb38474024986001604051611e259190615402565b60405180910390a15b50505050565b609f6020528160005260406000208181548110611e5057600080fd5b9060005260206000209060040201600091509150508060000160009054906101000a900473ffffffffffffffffffffffffffffffffffffffff1690806001015490806002018054611ea09061544c565b80601f0160208091040260200160405190810160405280929190818152602001828054611ecc9061544c565b8015611f195780601f10611eee57610100808354040283529160200191611f19565b820191906000526020600020905b815481529060010190602001808311611efc57829003601f168201915b5050505050908060030160009054906101000a900460ff16905084565b609c60009054906101000a900473ffffffffffffffffffffffffffffffffffffffff1681565b611f6582610c94565b611f6e81613201565b611f7883836132fe565b505050565b6000609854905090565b7f0ce23c3e399818cfee81a7ab0880f714e53d7672b08df0fa62f2843416e1ea0981565b6060609f6000838152602001908152602001600020805480602002602001604051908101604052809291908181526020016000905b8282101561211f57838290600052602060002090600402016040518060800160405290816000820160009054906101000a900473ffffffffffffffffffffffffffffffffffffffff1673ffffffffffffffffffffffffffffffffffffffff1673ffffffffffffffffffffffffffffffffffffffff168152602001600182015481526020016002820180546120739061544c565b80601f016020809104026020016040519081016040528092919081815260200182805461209f9061544c565b80156120ec5780601f106120c1576101008083540402835291602001916120ec565b820191906000526020600020905b8154815290600101906020018083116120cf57829003601f168201915b505050505081526020016003820160009054906101000a900460ff16151515158152505081526020019060010190611fe0565b505050509050919050565b6121547f339759585899103d2ace64958e37e18ccb0504652c81d4a1b8aa80fe2126ab9533611a08565b8061216857506121676000801b33611a08565b5b6121a7576040517f08c379a000000000000000000000000000000000000000000000000000000000815260040161219e90614ced565b60405180910390fd5b806098819055503373ffffffffffffffffffffffffffffffffffffffff167f2f09768ccdcd5c73d8da21f3662ec67c7a580278f579e047e118a9ef5865e50d826040516121f4919061444b565b60405180910390a250565b6122297f339759585899103d2ace64958e37e18ccb0504652c81d4a1b8aa80fe2126ab9533611a08565b8061223d575061223c6000801b33611a08565b5b61227c576040517f08c379a000000000000000000000000000000000000000000000000000000000815260040161227390614ced565b60405180910390fd5b600073ffffffffffffffffffffffffffffffffffffffff168273ffffffffffffffffffffffffffffffffffffffff1614156122ec576040517f08c379a00000000000000000000000000000000000000000000000000000000081526004016122e3906154f0565b60405180910390fd5b6000811161232f576040517f08c379a00000000000000000000000000000000000000000000000000000000081526004016123269061555c565b60405180910390fd5b60008273ffffffffffffffffffffffffffffffffffffffff168260405161235590615273565b60006040518083038185875af1925050503d8060008114612392576040519150601f19603f3d011682016040523d82523d6000602084013e612397565b606091505b50509050806123db576040517f08c379a00000000000000000000000000000000000000000000000000000000081526004016123d2906152d4565b60405180910390fd5b8273ffffffffffffffffffffffffffffffffffffffff167ff4f855c53853d0277a9ff688aadbfe4cb795ca1d5af41704b62cb539f89939ec83604051612421919061444b565b60405180910390a2505050565b609c60009054906101000a900473ffffffffffffffffffffffffffffffffffffffff1673ffffffffffffffffffffffffffffffffffffffff1663c256cdae858585856040518563ffffffff1660e01b815260040161248f94939291906155d1565b600060405180830381600087803b1580156124a957600080fd5b505af11580156124bd573d6000803e3d6000fd5b50505050837faa50ef67735e4ca4cb60e096249d4aa16358cd00b9767cc0985da8b72565c73c836040516124f191906141bc565b60405180910390a250505050565b6000609e600083815260200190815260200160002060020160009054906101000a900460ff169050919050565b7f339759585899103d2ace64958e37e18ccb0504652c81d4a1b8aa80fe2126ab9581565b826000609e600083815260200190815260200160002060030154116125aa576040517f08c379a00000000000000000000000000000000000000000000000000000000081526004016125a19061500d565b60405180910390fd5b6000609e6000868152602001908152602001600020905060006125cc86613177565b90508160020160009054906101000a900460ff1661261f576040517f08c379a00000000000000000000000000000000000000000000000000000000081526004016126169061568f565b60405180910390fd5b8061265f576040517f08c379a000000000000000000000000000000000000000000000000000000000815260040161265690615721565b60405180910390fd5b609e6000878152602001908152602001600020600080820160006101000a81549073ffffffffffffffffffffffffffffffffffffffff021916905560018201600090556002820160006101000a81549060ff02191690556002820160016101000a81549060ff02191690556002820160026101000a81549060ff02191690556002820160036101000a81549060ff02191690556003820160009055600482016000905560058201600090555050609f6000878152602001908152602001600020600061272b9190613db1565b612737863387876127a9565b505050505050565b60007f01ffc9a7000000000000000000000000000000000000000000000000000000007bffffffffffffffffffffffffffffffffffffffffffffffffffffffff1916827bffffffffffffffffffffffffffffffffffffffffffffffffffffffff1916149050919050565b836000609e6000838152602001908152602001600020604051806101200160405290816000820160009054906101000a900473ffffffffffffffffffffffffffffffffffffffff1673ffffffffffffffffffffffffffffffffffffffff1673ffffffffffffffffffffffffffffffffffffffff168152602001600182015481526020016002820160009054906101000a900460ff161515151581526020016002820160019054906101000a900460ff161515151581526020016002820160029054906101000a900460ff161515151581526020016002820160039054906101000a900460ff16151515158152602001600382015481526020016004820154815260200160058201548152505090508060a001516128fb576040517f08c379a00000000000000000000000000000000000000000000000000000000081526004016128f29061578d565b60405180910390fd5b856000609e6000838152602001908152602001600020604051806101200160405290816000820160009054906101000a900473ffffffffffffffffffffffffffffffffffffffff1673ffffffffffffffffffffffffffffffffffffffff1673ffffffffffffffffffffffffffffffffffffffff168152602001600182015481526020016002820160009054906101000a900460ff161515151581526020016002820160019054906101000a900460ff161515151581526020016002820160029054906101000a900460ff161515151581526020016002820160039054906101000a900460ff16151515158152602001600382015481526020016004820154815260200160058201548152505090503373ffffffffffffffffffffffffffffffffffffffff16816000015173ffffffffffffffffffffffffffffffffffffffff1614612a7b576040517f08c379a0000000000000000000000000000000000000000000000000000000008152600401612a72906157f9565b60405180910390fd5b612a866099546130d3565b341015612ac8576040517f08c379a0000000000000000000000000000000000000000000000000000000008152600401612abf90615079565b60405180910390fd5b6000609e60008a815260200190815260200160002090506000609d87604051612af19190615855565b908152602001604051809103902090508060030160009054906101000a900460ff1615612b53576040517f08c379a0000000000000000000000000000000000000000000000000000000008152600401612b4a906158de565b60405180910390fd5b8060030160009054906101000a900460ff16612ce95786816002019080519060200190612b81929190613dd5565b50428160010181905550878160000160006101000a81548173ffffffffffffffffffffffffffffffffffffffff021916908373ffffffffffffffffffffffffffffffffffffffff16021790555060018160030160006101000a81548160ff021916908315150217905550609f60008b81526020019081526020016000208190806001815401808255809150506001900390600052602060002090600402016000909190919091506000820160009054906101000a900473ffffffffffffffffffffffffffffffffffffffff168160000160006101000a81548173ffffffffffffffffffffffffffffffffffffffff021916908373ffffffffffffffffffffffffffffffffffffffff160217905550600182015481600101556002820181600201908054612cad9061544c565b612cb8929190613e5b565b506003820160009054906101000a900460ff168160030160006101000a81548160ff02191690831515021790555050505b898260010181905550888260000160006101000a81548173ffffffffffffffffffffffffffffffffffffffff021916908373ffffffffffffffffffffffffffffffffffffffff16021790555042826005018190555060018260020160006101000a81548160ff02191690831515021790555060008260020160016101000a81548160ff02191690831515021790555060008260020160026101000a81548160ff02191690831515021790555060975442612da391906151ec565b8260030181905550612eab82604051806101200160405290816000820160009054906101000a900473ffffffffffffffffffffffffffffffffffffffff1673ffffffffffffffffffffffffffffffffffffffff1673ffffffffffffffffffffffffffffffffffffffff168152602001600182015481526020016002820160009054906101000a900460ff161515151581526020016002820160019054906101000a900460ff161515151581526020016002820160029054906101000a900460ff161515151581526020016002820160039054906101000a900460ff1615151515815260200160038201548152602001600482015481526020016005820154815250508b6133e0565b60003073ffffffffffffffffffffffffffffffffffffffff1634604051612ed190615273565b60006040518083038185875af1925050503d8060008114612f0e576040519150601f19603f3d011682016040523d82523d6000602084013e612f13565b606091505b50509050612f56816040518060400160405280601381526020017f76616c75652066726f6d207472616e73666572000000000000000000000000008152506138e5565b80612f96576040517f08c379a0000000000000000000000000000000000000000000000000000000008152600401612f8d906152d4565b60405180910390fd5b612fa16099546130d3565b34111561306b5760003373ffffffffffffffffffffffffffffffffffffffff16612fcc6099546130d3565b34612fd791906152f4565b604051612fe390615273565b60006040518083038185875af1925050503d8060008114613020576040519150601f19603f3d011682016040523d82523d6000602084013e613025565b606091505b5050905080613069576040517f08c379a0000000000000000000000000000000000000000000000000000000008152600401613060906152d4565b60405180910390fd5b505b8973ffffffffffffffffffffffffffffffffffffffff168973ffffffffffffffffffffffffffffffffffffffff168c7f09e63897cecdb290ea9107823707eaff21c470ccde4e25697135681b86873bc560405160405180910390a45050505050505050505050565b6000806130de613981565b9050600081846130ee919061592d565b90508092505050919050565b6000816000609e60008381526020019081526020016000206003015411613156576040517f08c379a000000000000000000000000000000000000000000000000000000000815260040161314d9061500d565b60405180910390fd5b609e6000848152602001908152602001600020600301544211915050919050565b6000816000609e600083815260200190815260200160002060030154116131d3576040517f08c379a00000000000000000000000000000000000000000000000000000000081526004016131ca9061500d565b60405180910390fd5b609854609e6000858152602001908152602001600020600301546131f791906151ec565b4211915050919050565b6132128161320d6132f6565b613a2d565b50565b61321f8282611a08565b6132f25760016065600084815260200190815260200160002060000160008373ffffffffffffffffffffffffffffffffffffffff1673ffffffffffffffffffffffffffffffffffffffff16815260200190815260200160002060006101000a81548160ff0219169083151502179055506132976132f6565b73ffffffffffffffffffffffffffffffffffffffff168173ffffffffffffffffffffffffffffffffffffffff16837f2f8788117e7eff1d82e926ec794901d17c78024a50270940304540a733656f0d60405160405180910390a45b5050565b600033905090565b6133088282611a08565b156133dc5760006065600084815260200190815260200160002060000160008373ffffffffffffffffffffffffffffffffffffffff1673ffffffffffffffffffffffffffffffffffffffff16815260200190815260200160002060006101000a81548160ff0219169083151502179055506133816132f6565b73ffffffffffffffffffffffffffffffffffffffff168173ffffffffffffffffffffffffffffffffffffffff16837ff6391f5c32d9c69d2a47ea670b442974b53935d1edc7fd64eb21e047a839171b60405160405180910390a45b5050565b6000609e60008381526020019081526020016000209050826101000151816005018190555082600001518160000160006101000a81548173ffffffffffffffffffffffffffffffffffffffff021916908373ffffffffffffffffffffffffffffffffffffffff16021790555082604001518160020160006101000a81548160ff0219169083151502179055508260200151816001018190555082606001518160020160016101000a81548160ff02191690831515021790555082608001518160020160026101000a81548160ff0219169083151502179055508260a001518160020160036101000a81548160ff0219169083151502179055508260c0015181600301819055508260e001518160040181905550505050565b6000609d8260405161350a9190615855565b908152602001604051809103902090506000609e600086815260200190815260200160002090508060020160009054906101000a900460ff16613582576040517f08c379a000000000000000000000000000000000000000000000000000000000815260040161357990614c81565b60405180910390fd5b8160030160009054906101000a900460ff16156135d4576040517f08c379a00000000000000000000000000000000000000000000000000000000081526004016135cb906159aa565b60405180910390fd5b8160030160009054906101000a900460ff1661376a5782826002019080519060200190613602929190613dd5565b50428260010181905550838260000160006101000a81548173ffffffffffffffffffffffffffffffffffffffff021916908373ffffffffffffffffffffffffffffffffffffffff16021790555060018260030160006101000a81548160ff021916908315150217905550609f60008681526020019081526020016000208290806001815401808255809150506001900390600052602060002090600402016000909190919091506000820160009054906101000a900473ffffffffffffffffffffffffffffffffffffffff168160000160006101000a81548173ffffffffffffffffffffffffffffffffffffffff021916908373ffffffffffffffffffffffffffffffffffffffff16021790555060018201548160010155600282018160020190805461372e9061544c565b613739929190613e5b565b506003820160009054906101000a900460ff168160030160006101000a81548160ff02191690831515021790555050505b61386a81604051806101200160405290816000820160009054906101000a900473ffffffffffffffffffffffffffffffffffffffff1673ffffffffffffffffffffffffffffffffffffffff1673ffffffffffffffffffffffffffffffffffffffff168152602001600182015481526020016002820160009054906101000a900460ff161515151581526020016002820160019054906101000a900460ff161515151581526020016002820160029054906101000a900460ff161515151581526020016002820160039054906101000a900460ff161515151581526020016003820154815260200160048201548152602001600582015481525050866133e0565b5050505050565b6000808273ffffffffffffffffffffffffffffffffffffffff163b119050919050565b600060019054906101000a900460ff166138e3576040517f08c379a00000000000000000000000000000000000000000000000000000000081526004016138da90615a3c565b60405180910390fd5b565b61397d82826040516024016138fb929190615a5c565b6040516020818303038152906040527f8feac525000000000000000000000000000000000000000000000000000000007bffffffffffffffffffffffffffffffffffffffffffffffffffffffff19166020820180517bffffffffffffffffffffffffffffffffffffffffffffffffffffffff8381831617835250505050613ab2565b5050565b600080609b60009054906101000a900473ffffffffffffffffffffffffffffffffffffffff1673ffffffffffffffffffffffffffffffffffffffff1663feaf968c6040518163ffffffff1660e01b815260040160206040518083038186803b1580156139ec57600080fd5b505afa158015613a00573d6000803e3d6000fd5b505050506040513d601f19601f82011682018060405250810190613a249190615ac2565b90508091505090565b613a378282611a08565b613aae57613a4481613adb565b613a528360001c6020613b08565b604051602001613a63929190615b87565b6040516020818303038152906040526040517f08c379a0000000000000000000000000000000000000000000000000000000008152600401613aa59190615bc1565b60405180910390fd5b5050565b60008151905060006a636f6e736f6c652e6c6f679050602083016000808483855afa5050505050565b6060613b018273ffffffffffffffffffffffffffffffffffffffff16601460ff16613b08565b9050919050565b606060006002836002613b1b9190615be3565b613b2591906151ec565b67ffffffffffffffff811115613b3e57613b3d614258565b5b6040519080825280601f01601f191660200182016040528015613b705781602001600182028036833780820191505090505b5090507f300000000000000000000000000000000000000000000000000000000000000081600081518110613ba857613ba7615c3d565b5b60200101907effffffffffffffffffffffffffffffffffffffffffffffffffffffffffffff1916908160001a9053507f780000000000000000000000000000000000000000000000000000000000000081600181518110613c0c57613c0b615c3d565b5b60200101907effffffffffffffffffffffffffffffffffffffffffffffffffffffffffffff1916908160001a90535060006001846002613c4c9190615be3565b613c5691906151ec565b90505b6001811115613cf6577f3031323334353637383961626364656600000000000000000000000000000000600f861660108110613c9857613c97615c3d565b5b1a60f81b828281518110613caf57613cae615c3d565b5b60200101907effffffffffffffffffffffffffffffffffffffffffffffffffffffffffffff1916908160001a905350600485901c945080613cef90615c6c565b9050613c59565b5060008414613d3a576040517f08c379a0000000000000000000000000000000000000000000000000000000008152600401613d3190615ce2565b60405180910390fd5b8091505092915050565b604051806101200160405280600073ffffffffffffffffffffffffffffffffffffffff168152602001600080191681526020016000151581526020016000151581526020016000151581526020016000151581526020016000815260200160008152602001600081525090565b5080546000825560040290600052602060002090810190613dd29190613ee8565b50565b828054613de19061544c565b90600052602060002090601f016020900481019282613e035760008555613e4a565b82601f10613e1c57805160ff1916838001178555613e4a565b82800160010185558215613e4a579182015b82811115613e49578251825591602001919060010190613e2e565b5b509050613e579190613f52565b5090565b828054613e679061544c565b90600052602060002090601f016020900481019282613e895760008555613ed7565b82601f10613e9a5780548555613ed7565b82800160010185558215613ed757600052602060002091601f016020900482015b82811115613ed6578254825591600101919060010190613ebb565b5b509050613ee49190613f52565b5090565b5b80821115613f4e57600080820160006101000a81549073ffffffffffffffffffffffffffffffffffffffff02191690556001820160009055600282016000613f319190613f6f565b6003820160006101000a81549060ff021916905550600401613ee9565b5090565b5b80821115613f6b576000816000905550600101613f53565b5090565b508054613f7b9061544c565b6000825580601f10613f8d5750613fac565b601f016020900490600052602060002090810190613fab9190613f52565b5b50565b6000604051905090565b600080fd5b600080fd5b6000819050919050565b613fd681613fc3565b8114613fe157600080fd5b50565b600081359050613ff381613fcd565b92915050565b60006020828403121561400f5761400e613fb9565b5b600061401d84828501613fe4565b91505092915050565b600073ffffffffffffffffffffffffffffffffffffffff82169050919050565b600061405182614026565b9050919050565b61406181614046565b82525050565b61407081613fc3565b82525050565b60008115159050919050565b61408b81614076565b82525050565b6000819050919050565b6140a481614091565b82525050565b6000610120820190506140c0600083018c614058565b6140cd602083018b614067565b6140da604083018a614082565b6140e76060830189614082565b6140f46080830188614082565b61410160a0830187614082565b61410e60c083018661409b565b61411b60e083018561409b565b61412961010083018461409b565b9a9950505050505050505050565b60007fffffffff0000000000000000000000000000000000000000000000000000000082169050919050565b61416c81614137565b811461417757600080fd5b50565b60008135905061418981614163565b92915050565b6000602082840312156141a5576141a4613fb9565b5b60006141b38482850161417a565b91505092915050565b60006020820190506141d16000830184614082565b92915050565b600063ffffffff82169050919050565b6141f0816141d7565b82525050565b600060208201905061420b60008301846141e7565b92915050565b61421a81614046565b811461422557600080fd5b50565b60008135905061423781614211565b92915050565b600080fd5b600080fd5b6000601f19601f8301169050919050565b7f4e487b7100000000000000000000000000000000000000000000000000000000600052604160045260246000fd5b61429082614247565b810181811067ffffffffffffffff821117156142af576142ae614258565b5b80604052505050565b60006142c2613faf565b90506142ce8282614287565b919050565b600067ffffffffffffffff8211156142ee576142ed614258565b5b6142f782614247565b9050602081019050919050565b82818337600083830152505050565b6000614326614321846142d3565b6142b8565b90508281526020810184848401111561434257614341614242565b5b61434d848285614304565b509392505050565b600082601f83011261436a5761436961423d565b5b813561437a848260208601614313565b91505092915050565b60008060006060848603121561439c5761439b613fb9565b5b60006143aa86828701613fe4565b93505060206143bb86828701614228565b925050604084013567ffffffffffffffff8111156143dc576143db613fbe565b5b6143e886828701614355565b9150509250925092565b6143fb81614091565b811461440657600080fd5b50565b600081359050614418816143f2565b92915050565b60006020828403121561443457614433613fb9565b5b600061444284828501614409565b91505092915050565b6000602082019050614460600083018461409b565b92915050565b61446f81614046565b82525050565b61447e81613fc3565b82525050565b61448d81614076565b82525050565b61449c81614091565b82525050565b610120820160008201516144b96000850182614466565b5060208201516144cc6020850182614475565b5060408201516144df6040850182614484565b5060608201516144f26060850182614484565b5060808201516145056080850182614484565b5060a082015161451860a0850182614484565b5060c082015161452b60c0850182614493565b5060e082015161453e60e0850182614493565b50610100820151614553610100850182614493565b50505050565b60006101208201905061456f60008301846144a2565b92915050565b600060208201905061458a6000830184614067565b92915050565b600080604083850312156145a7576145a6613fb9565b5b60006145b585828601613fe4565b92505060206145c685828601614228565b9150509250929050565b600080fd5b6145de81614076565b81146145e957600080fd5b50565b6000813590506145fb816145d5565b92915050565b60006101208284031215614618576146176145d0565b5b6146236101206142b8565b9050600061463384828501614228565b600083015250602061464784828501613fe4565b602083015250604061465b848285016145ec565b604083015250606061466f848285016145ec565b6060830152506080614683848285016145ec565b60808301525060a0614697848285016145ec565b60a08301525060c06146ab84828501614409565b60c08301525060e06146bf84828501614409565b60e0830152506101006146d484828501614409565b6101008301525092915050565b60008061014083850312156146f9576146f8613fb9565b5b600061470785828601614601565b92505061012061471985828601613fe4565b9150509250929050565b6000819050919050565b600061474861474361473e84614026565b614723565b614026565b9050919050565b600061475a8261472d565b9050919050565b600061476c8261474f565b9050919050565b61477c81614761565b82525050565b60006020820190506147976000830184614773565b92915050565b6000806000606084860312156147b6576147b5613fb9565b5b60006147c486828701614228565b93505060206147d586828701614228565b92505060406147e686828701614228565b9150509250925092565b6000806040838503121561480757614806613fb9565b5b600061481585828601613fe4565b925050602061482685828601614409565b9150509250929050565b600081519050919050565b600082825260208201905092915050565b60005b8381101561486a57808201518184015260208101905061484f565b83811115614879576000848401525b50505050565b600061488a82614830565b614894818561483b565b93506148a481856020860161484c565b6148ad81614247565b840191505092915050565b60006080820190506148cd6000830187614058565b6148da602083018661409b565b81810360408301526148ec818561487f565b90506148fb6060830184614082565b95945050505050565b600061490f8261474f565b9050919050565b61491f81614904565b82525050565b600060208201905061493a6000830184614916565b92915050565b600081519050919050565b600082825260208201905092915050565b6000819050602082019050919050565b600082825260208201905092915050565b600061498882614830565b614992818561496c565b93506149a281856020860161484c565b6149ab81614247565b840191505092915050565b60006080830160008301516149ce6000860182614466565b5060208301516149e16020860182614493565b50604083015184820360408601526149f9828261497d565b9150506060830151614a0e6060860182614484565b508091505092915050565b6000614a2583836149b6565b905092915050565b6000602082019050919050565b6000614a4582614940565b614a4f818561494b565b935083602082028501614a618561495c565b8060005b85811015614a9d5784840389528151614a7e8582614a19565b9450614a8983614a2d565b925060208a01995050600181019050614a65565b50829750879550505050505092915050565b60006020820190508181036000830152614ac98184614a3a565b905092915050565b60008060408385031215614ae857614ae7613fb9565b5b6000614af685828601614228565b9250506020614b0785828601614409565b9150509250929050565b600067ffffffffffffffff821115614b2c57614b2b614258565b5b614b3582614247565b9050602081019050919050565b6000614b55614b5084614b11565b6142b8565b905082815260208101848484011115614b7157614b70614242565b5b614b7c848285614304565b509392505050565b600082601f830112614b9957614b9861423d565b5b8135614ba9848260208601614b42565b91505092915050565b60008060008060808587031215614bcc57614bcb613fb9565b5b6000614bda87828801613fe4565b9450506020614beb87828801613fe4565b9350506040614bfc878288016145ec565b925050606085013567ffffffffffffffff811115614c1d57614c1c613fbe565b5b614c2987828801614b84565b91505092959194509250565b7f70686f6e65207265636f7264206e6f7420666f756e6400000000000000000000600082015250565b6000614c6b60168361483b565b9150614c7682614c35565b602082019050919050565b60006020820190508181036000830152614c9a81614c5e565b9050919050565b7f6e6f7420616c6c6f77656420746f20657865637574652066756e6374696f6e00600082015250565b6000614cd7601f8361483b565b9150614ce282614ca1565b602082019050919050565b60006020820190508181036000830152614d0681614cca565b9050919050565b7f416363657373436f6e74726f6c3a2063616e206f6e6c792072656e6f756e636560008201527f20726f6c657320666f722073656c660000000000000000000000000000000000602082015250565b6000614d69602f8361483b565b9150614d7482614d0d565b604082019050919050565b60006020820190508181036000830152614d9881614d5c565b9050919050565b7f63616c6c6572206973206e6f7420617574686f72697365640000000000000000600082015250565b6000614dd560188361483b565b9150614de082614d9f565b602082019050919050565b60006020820190508181036000830152614e0481614dc8565b9050919050565b7f70686f6e65207265636f72642068617320657870697265642c20706c6561736560008201527f2072656e65770000000000000000000000000000000000000000000000000000602082015250565b6000614e6760268361483b565b9150614e7282614e0b565b604082019050919050565b60006020820190508181036000830152614e9681614e5a565b9050919050565b7f63616e6e6f7420736574206f776e657220746f20746865207a65726f2061646460008201527f7265737300000000000000000000000000000000000000000000000000000000602082015250565b6000614ef960248361483b565b9150614f0482614e9d565b604082019050919050565b60006020820190508181036000830152614f2881614eec565b9050919050565b7f63616e6e6f7420736574206f776e657220746f2074686520726567697374727960008201527f2061646472657373000000000000000000000000000000000000000000000000602082015250565b6000614f8b60288361483b565b9150614f9682614f2f565b604082019050919050565b60006020820190508181036000830152614fba81614f7e565b9050919050565b7f70686f6e6520657870697279207265636f7264206e6f7420666f756e64000000600082015250565b6000614ff7601d8361483b565b915061500282614fc1565b602082019050919050565b6000602082019050818103600083015261502681614fea565b9050919050565b7f696e73756666696369656e742062616c616e6365000000000000000000000000600082015250565b600061506360148361483b565b915061506e8261502d565b602082019050919050565b6000602082019050818103600083015261509281615056565b9050919050565b7f6f6e6c7920616e206578697374696e672070686f6e65207265636f726420636160008201527f6e2062652072656e657765640000000000000000000000000000000000000000602082015250565b60006150f5602c8361483b565b915061510082615099565b604082019050919050565b60006020820190508181036000830152615124816150e8565b9050919050565b7f6f6e6c7920612070686f6e65207265636f72642063757272656e746c7920696e60008201527f20677261636520706572696f642063616e2062652072656e6577656400000000602082015250565b6000615187603c8361483b565b91506151928261512b565b604082019050919050565b600060208201905081810360008301526151b68161517a565b9050919050565b7f4e487b7100000000000000000000000000000000000000000000000000000000600052601160045260246000fd5b60006151f782614091565b915061520283614091565b9250827fffffffffffffffffffffffffffffffffffffffffffffffffffffffffffffffff03821115615237576152366151bd565b5b828201905092915050565b600081905092915050565b50565b600061525d600083615242565b91506152688261524d565b600082019050919050565b600061527e82615250565b9150819050919050565b7f5472616e73666572206661696c65642e00000000000000000000000000000000600082015250565b60006152be60108361483b565b91506152c982615288565b602082019050919050565b600060208201905081810360008301526152ed816152b1565b9050919050565b60006152ff82614091565b915061530a83614091565b92508282101561531d5761531c6151bd565b5b828203905092915050565b7f496e697469616c697a61626c653a20636f6e747261637420697320616c72656160008201527f647920696e697469616c697a6564000000000000000000000000000000000000602082015250565b6000615384602e8361483b565b915061538f82615328565b604082019050919050565b600060208201905081810360008301526153b381615377565b9050919050565b6000819050919050565b600060ff82169050919050565b60006153ec6153e76153e2846153ba565b614723565b6153c4565b9050919050565b6153fc816153d1565b82525050565b600060208201905061541760008301846153f3565b92915050565b7f4e487b7100000000000000000000000000000000000000000000000000000000600052602260045260246000fd5b6000600282049050600182168061546457607f821691505b602082108114156154785761547761541d565b5b50919050565b7f726563697069656e7420616464726573732063616e6e6f74206265207a65726f60008201527f2061646472657373000000000000000000000000000000000000000000000000602082015250565b60006154da60288361483b565b91506154e58261547e565b604082019050919050565b60006020820190508181036000830152615509816154cd565b9050919050565b7f616d6f756e74206d7573742062652067726561746572207468616e207a65726f600082015250565b600061554660208361483b565b915061555182615510565b602082019050919050565b6000602082019050818103600083015261557581615539565b9050919050565b600081519050919050565b600082825260208201905092915050565b60006155a38261557c565b6155ad8185615587565b93506155bd81856020860161484c565b6155c681614247565b840191505092915050565b60006080820190506155e66000830187614067565b6155f36020830186614067565b6156006040830185614082565b81810360608301526156128184615598565b905095945050505050565b7f6f6e6c7920616e206578697374696e672070686f6e65207265636f726420636160008201527f6e20626520636c61696d65640000000000000000000000000000000000000000602082015250565b6000615679602c8361483b565b91506156848261561d565b604082019050919050565b600060208201905081810360008301526156a88161566c565b9050919050565b7f6f6e6c7920616e20657870697265642070686f6e65207265636f72642063616e60008201527f20626520636c61696d6564000000000000000000000000000000000000000000602082015250565b600061570b602b8361483b565b9150615716826156af565b604082019050919050565b6000602082019050818103600083015261573a816156fe565b9050919050565b7f70686f6e65207265636f7264206973206e6f7420766572696669656400000000600082015250565b6000615777601c8361483b565b915061578282615741565b602082019050919050565b600060208201905081810360008301526157a68161576a565b9050919050565b7f63616c6c6572206973206e6f74207665726966696564206f776e657200000000600082015250565b60006157e3601c8361483b565b91506157ee826157ad565b602082019050919050565b60006020820190508181036000830152615812816157d6565b9050919050565b600081905092915050565b600061582f82614830565b6158398185615819565b935061584981856020860161484c565b80840191505092915050565b60006158618284615824565b915081905092915050565b7f70686f6e65207265636f726420686173206265656e206372656174656420616e60008201527f64206c696e6b656420746f20612077616c6c657420616c726561647900000000602082015250565b60006158c8603c8361483b565b91506158d38261586c565b604082019050919050565b600060208201905081810360008301526158f7816158bb565b9050919050565b7f4e487b7100000000000000000000000000000000000000000000000000000000600052601260045260246000fd5b600061593882614091565b915061594383614091565b925082615953576159526158fe565b5b828204905092915050565b7f7265736f6c766572206c6162656c20616c726561647920657869737400000000600082015250565b6000615994601c8361483b565b915061599f8261595e565b602082019050919050565b600060208201905081810360008301526159c381615987565b9050919050565b7f496e697469616c697a61626c653a20636f6e7472616374206973206e6f74206960008201527f6e697469616c697a696e67000000000000000000000000000000000000000000602082015250565b6000615a26602b8361483b565b9150615a31826159ca565b604082019050919050565b60006020820190508181036000830152615a5581615a19565b9050919050565b6000604082019050615a716000830185614082565b8181036020830152615a83818461487f565b90509392505050565b6000819050919050565b615a9f81615a8c565b8114615aaa57600080fd5b50565b600081519050615abc81615a96565b92915050565b600060208284031215615ad857615ad7613fb9565b5b6000615ae684828501615aad565b91505092915050565b7f416363657373436f6e74726f6c3a206163636f756e7420000000000000000000600082015250565b6000615b25601783615819565b9150615b3082615aef565b601782019050919050565b7f206973206d697373696e6720726f6c6520000000000000000000000000000000600082015250565b6000615b71601183615819565b9150615b7c82615b3b565b601182019050919050565b6000615b9282615b18565b9150615b9e8285615824565b9150615ba982615b64565b9150615bb58284615824565b91508190509392505050565b60006020820190508181036000830152615bdb818461487f565b905092915050565b6000615bee82614091565b9150615bf983614091565b9250817fffffffffffffffffffffffffffffffffffffffffffffffffffffffffffffffff0483118215151615615c3257615c316151bd565b5b828202905092915050565b7f4e487b7100000000000000000000000000000000000000000000000000000000600052603260045260246000fd5b6000615c7782614091565b91506000821415615c8b57615c8a6151bd565b5b600182039050919050565b7f537472696e67733a20686578206c656e67746820696e73756666696369656e74600082015250565b6000615ccc60208361483b565b9150615cd782615c96565b602082019050919050565b60006020820190508181036000830152615cfb81615cbf565b905091905056fea26469706673582212202e7e876f8cba9a547078401ba890d6e2db09838a2bd64c7217cc63d38eada04d64736f6c63430008090033",
  "linkReferences": {},
  "deployedLinkReferences": {}
}