{
  "_format": "hh-sol-artifact-1",
  "contractName": "PNSResolver",
  "sourceName": "contracts/PNSResolver.sol",
  "abi": [
    {
      "anonymous": false,
      "inputs": [
        {
          "indexed": false,
          "internalType": "uint8",
          "name": "version",
          "type": "uint8"
        }
      ],
      "name": "Initialized",
      "type": "event"
    },
    {
      "inputs": [],
      "name": "PNSRegistry",
      "outputs": [
        {
          "internalType": "contract IPNSRegistry",
          "name": "",
          "type": "address"
        }
      ],
      "stateMutability": "view",
      "type": "function"
    },
    {
      "inputs": [
        {
          "internalType": "bytes32",
          "name": "phoneHash",
          "type": "bytes32"
        }
      ],
      "name": "getOwner",
      "outputs": [
        {
          "internalType": "address",
          "name": "",
          "type": "address"
        }
      ],
      "stateMutability": "view",
      "type": "function"
    },
    {
      "inputs": [
        {
          "internalType": "bytes32",
          "name": "phoneHash",
          "type": "bytes32"
        }
      ],
      "name": "getResolverDetails",
      "outputs": [
        {
          "components": [
            {
              "internalType": "address",
              "name": "wallet",
              "type": "address"
            },
            {
              "internalType": "uint256",
              "name": "createdAt",
              "type": "uint256"
            },
            {
              "internalType": "string",
              "name": "label",
              "type": "string"
            },
            {
              "internalType": "bool",
              "name": "exists",
              "type": "bool"
            }
          ],
          "internalType": "struct IPNSSchema.ResolverRecord[]",
          "name": "",
          "type": "tuple[]"
        }
      ],
      "stateMutability": "view",
      "type": "function"
    },
    {
      "inputs": [],
      "name": "getVersion",
      "outputs": [
        {
          "internalType": "uint32",
          "name": "",
          "type": "uint32"
        }
      ],
      "stateMutability": "view",
      "type": "function"
    },
    {
      "inputs": [
        {
          "internalType": "contract IPNSRegistry",
          "name": "_PNSRegistry",
          "type": "address"
        }
      ],
      "name": "initialize",
      "outputs": [],
      "stateMutability": "nonpayable",
      "type": "function"
    }
  ],
  "bytecode": "0x608060405234801561001057600080fd5b50610eb0806100206000396000f3fe608060405234801561001057600080fd5b50600436106100575760003560e01c80630d8e6e2c1461005c5780633db13e5d1461007a5780635df583df146100aa578063c4d66de8146100c8578063deb931a2146100e4575b600080fd5b610064610114565b60405161007191906104e7565b60405180910390f35b610094600480360381019061008f919061054c565b61011d565b6040516100a191906107ac565b60405180910390f35b6100b26101d6565b6040516100bf919061082d565b60405180910390f35b6100e260048036038101906100dd9190610886565b6101fc565b005b6100fe60048036038101906100f9919061054c565b610374565b60405161010b91906108c2565b60405180910390f35b60006001905090565b6060600060029054906101000a900473ffffffffffffffffffffffffffffffffffffffff1673ffffffffffffffffffffffffffffffffffffffff1663ea6ec3de836040518263ffffffff1660e01b815260040161017a91906108ec565b60006040518083038186803b15801561019257600080fd5b505afa1580156101a6573d6000803e3d6000fd5b505050506040513d6000823e3d601f19601f820116820180604052508101906101cf9190610c35565b9050919050565b600060029054906101000a900473ffffffffffffffffffffffffffffffffffffffff1681565b60008060019054906101000a900460ff1615905080801561022d5750600160008054906101000a900460ff1660ff16105b8061025a575061023c3061038f565b1580156102595750600160008054906101000a900460ff1660ff16145b5b610299576040517f08c379a000000000000000000000000000000000000000000000000000000000815260040161029090610d01565b60405180910390fd5b60016000806101000a81548160ff021916908360ff16021790555080156102d6576001600060016101000a81548160ff0219169083151502179055505b81600060026101000a81548173ffffffffffffffffffffffffffffffffffffffff021916908373ffffffffffffffffffffffffffffffffffffffff16021790555080156103705760008060016101000a81548160ff0219169083151502179055507f7f26b83ff96e1f2b6a682f133852f6798a09c465da95921460cefb384740249860016040516103679190610d69565b60405180910390a15b5050565b600080610380836103b2565b90508060000151915050919050565b6000808273ffffffffffffffffffffffffffffffffffffffff163b119050919050565b6103ba61046c565b600060029054906101000a900473ffffffffffffffffffffffffffffffffffffffff1673ffffffffffffffffffffffffffffffffffffffff1663213681cd836040518263ffffffff1660e01b815260040161041591906108ec565b60e06040518083038186803b15801561042d57600080fd5b505afa158015610441573d6000803e3d6000fd5b505050506040513d601f19601f820116820180604052508101906104659190610e4d565b9050919050565b6040518060e00160405280600073ffffffffffffffffffffffffffffffffffffffff1681526020016000801916815260200160001515815260200160001515815260200160001515815260200160008152602001600081525090565b600063ffffffff82169050919050565b6104e1816104c8565b82525050565b60006020820190506104fc60008301846104d8565b92915050565b6000604051905090565b600080fd5b600080fd5b6000819050919050565b61052981610516565b811461053457600080fd5b50565b60008135905061054681610520565b92915050565b6000602082840312156105625761056161050c565b5b600061057084828501610537565b91505092915050565b600081519050919050565b600082825260208201905092915050565b6000819050602082019050919050565b600073ffffffffffffffffffffffffffffffffffffffff82169050919050565b60006105d0826105a5565b9050919050565b6105e0816105c5565b82525050565b6000819050919050565b6105f9816105e6565b82525050565b600081519050919050565b600082825260208201905092915050565b60005b8381101561063957808201518184015260208101905061061e565b83811115610648576000848401525b50505050565b6000601f19601f8301169050919050565b600061066a826105ff565b610674818561060a565b935061068481856020860161061b565b61068d8161064e565b840191505092915050565b60008115159050919050565b6106ad81610698565b82525050565b60006080830160008301516106cb60008601826105d7565b5060208301516106de60208601826105f0565b50604083015184820360408601526106f6828261065f565b915050606083015161070b60608601826106a4565b508091505092915050565b600061072283836106b3565b905092915050565b6000602082019050919050565b600061074282610579565b61074c8185610584565b93508360208202850161075e85610595565b8060005b8581101561079a578484038952815161077b8582610716565b94506107868361072a565b925060208a01995050600181019050610762565b50829750879550505050505092915050565b600060208201905081810360008301526107c68184610737565b905092915050565b6000819050919050565b60006107f36107ee6107e9846105a5565b6107ce565b6105a5565b9050919050565b6000610805826107d8565b9050919050565b6000610817826107fa565b9050919050565b6108278161080c565b82525050565b6000602082019050610842600083018461081e565b92915050565b6000610853826105c5565b9050919050565b61086381610848565b811461086e57600080fd5b50565b6000813590506108808161085a565b92915050565b60006020828403121561089c5761089b61050c565b5b60006108aa84828501610871565b91505092915050565b6108bc816105c5565b82525050565b60006020820190506108d760008301846108b3565b92915050565b6108e681610516565b82525050565b600060208201905061090160008301846108dd565b92915050565b600080fd5b7f4e487b7100000000000000000000000000000000000000000000000000000000600052604160045260246000fd5b6109448261064e565b810181811067ffffffffffffffff821117156109635761096261090c565b5b80604052505050565b6000610976610502565b9050610982828261093b565b919050565b600067ffffffffffffffff8211156109a2576109a161090c565b5b602082029050602081019050919050565b600080fd5b600080fd5b600080fd5b6109cb816105c5565b81146109d657600080fd5b50565b6000815190506109e8816109c2565b92915050565b6109f7816105e6565b8114610a0257600080fd5b50565b600081519050610a14816109ee565b92915050565b600080fd5b600067ffffffffffffffff821115610a3a57610a3961090c565b5b610a438261064e565b9050602081019050919050565b6000610a63610a5e84610a1f565b61096c565b905082815260208101848484011115610a7f57610a7e610a1a565b5b610a8a84828561061b565b509392505050565b600082601f830112610aa757610aa6610907565b5b8151610ab7848260208601610a50565b91505092915050565b610ac981610698565b8114610ad457600080fd5b50565b600081519050610ae681610ac0565b92915050565b600060808284031215610b0257610b016109b8565b5b610b0c608061096c565b90506000610b1c848285016109d9565b6000830152506020610b3084828501610a05565b602083015250604082015167ffffffffffffffff811115610b5457610b536109bd565b5b610b6084828501610a92565b6040830152506060610b7484828501610ad7565b60608301525092915050565b6000610b93610b8e84610987565b61096c565b90508083825260208201905060208402830185811115610bb657610bb56109b3565b5b835b81811015610bfd57805167ffffffffffffffff811115610bdb57610bda610907565b5b808601610be88982610aec565b85526020850194505050602081019050610bb8565b5050509392505050565b600082601f830112610c1c57610c1b610907565b5b8151610c2c848260208601610b80565b91505092915050565b600060208284031215610c4b57610c4a61050c565b5b600082015167ffffffffffffffff811115610c6957610c68610511565b5b610c7584828501610c07565b91505092915050565b600082825260208201905092915050565b7f496e697469616c697a61626c653a20636f6e747261637420697320616c72656160008201527f647920696e697469616c697a6564000000000000000000000000000000000000602082015250565b6000610ceb602e83610c7e565b9150610cf682610c8f565b604082019050919050565b60006020820190508181036000830152610d1a81610cde565b9050919050565b6000819050919050565b600060ff82169050919050565b6000610d53610d4e610d4984610d21565b6107ce565b610d2b565b9050919050565b610d6381610d38565b82525050565b6000602082019050610d7e6000830184610d5a565b92915050565b600081519050610d9381610520565b92915050565b600060e08284031215610daf57610dae6109b8565b5b610db960e061096c565b90506000610dc9848285016109d9565b6000830152506020610ddd84828501610d84565b6020830152506040610df184828501610ad7565b6040830152506060610e0584828501610ad7565b6060830152506080610e1984828501610ad7565b60808301525060a0610e2d84828501610a05565b60a08301525060c0610e4184828501610a05565b60c08301525092915050565b600060e08284031215610e6357610e6261050c565b5b6000610e7184828501610d99565b9150509291505056fea2646970667358221220563ae1d4644b1ac49e7addc3c721a2b9ddabe8e3a4b2bc2480acb279ab28dcd764736f6c63430008090033",
  "linkReferences": {},
  "deployedLinkReferences": {}
}